{
  "_format": "hh-sol-artifact-1",
  "contractName": "LoyaltyToken",
  "sourceName": "contracts/LoyaltyToken.sol",
  "abi": [
    {
      "inputs": [],
      "stateMutability": "nonpayable",
      "type": "constructor"
    },
    {
      "anonymous": false,
      "inputs": [
        {
          "indexed": true,
          "internalType": "address",
          "name": "owner",
          "type": "address"
        },
        {
          "indexed": true,
          "internalType": "address",
          "name": "spender",
          "type": "address"
        },
        {
          "indexed": false,
          "internalType": "uint256",
          "name": "value",
          "type": "uint256"
        }
      ],
      "name": "Approval",
      "type": "event"
    },
    {
      "anonymous": false,
      "inputs": [
        {
          "indexed": true,
          "internalType": "bytes32",
          "name": "role",
          "type": "bytes32"
        },
        {
          "indexed": true,
          "internalType": "bytes32",
          "name": "previousAdminRole",
          "type": "bytes32"
        },
        {
          "indexed": true,
          "internalType": "bytes32",
          "name": "newAdminRole",
          "type": "bytes32"
        }
      ],
      "name": "RoleAdminChanged",
      "type": "event"
    },
    {
      "anonymous": false,
      "inputs": [
        {
          "indexed": true,
          "internalType": "bytes32",
          "name": "role",
          "type": "bytes32"
        },
        {
          "indexed": true,
          "internalType": "address",
          "name": "account",
          "type": "address"
        },
        {
          "indexed": true,
          "internalType": "address",
          "name": "sender",
          "type": "address"
        }
      ],
      "name": "RoleGranted",
      "type": "event"
    },
    {
      "anonymous": false,
      "inputs": [
        {
          "indexed": true,
          "internalType": "bytes32",
          "name": "role",
          "type": "bytes32"
        },
        {
          "indexed": true,
          "internalType": "address",
          "name": "account",
          "type": "address"
        },
        {
          "indexed": true,
          "internalType": "address",
          "name": "sender",
          "type": "address"
        }
      ],
      "name": "RoleRevoked",
      "type": "event"
    },
    {
      "anonymous": false,
      "inputs": [
        {
          "indexed": true,
          "internalType": "address",
          "name": "from",
          "type": "address"
        },
        {
          "indexed": true,
          "internalType": "address",
          "name": "to",
          "type": "address"
        },
        {
          "indexed": false,
          "internalType": "uint256",
          "name": "value",
          "type": "uint256"
        }
      ],
      "name": "Transfer",
      "type": "event"
    },
    {
      "anonymous": false,
      "inputs": [
        {
          "indexed": false,
          "internalType": "uint256",
          "name": "totalAmount",
          "type": "uint256"
        },
        {
          "components": [
            {
              "internalType": "uint256",
              "name": "transactionId",
              "type": "uint256"
            },
            {
              "internalType": "address",
              "name": "customer",
              "type": "address"
            },
            {
              "internalType": "uint256",
              "name": "amount",
              "type": "uint256"
            },
            {
              "internalType": "uint256",
              "name": "currAmount",
              "type": "uint256"
            },
            {
              "internalType": "uint256",
              "name": "mintDate",
              "type": "uint256"
            },
            {
              "internalType": "bool",
              "name": "isCredit",
              "type": "bool"
            },
            {
              "internalType": "string",
              "name": "detail",
              "type": "string"
            }
          ],
          "indexed": false,
          "internalType": "struct LoyaltyToken.transaction[]",
          "name": "",
          "type": "tuple[]"
        }
      ],
      "name": "fetchAll",
      "type": "event"
    },
    {
      "anonymous": false,
      "inputs": [
        {
          "indexed": false,
          "internalType": "uint256",
          "name": "transactionId",
          "type": "uint256"
        },
        {
          "indexed": false,
          "internalType": "address",
          "name": "customer",
          "type": "address"
        },
        {
          "indexed": false,
          "internalType": "uint256",
          "name": "amount",
          "type": "uint256"
        },
        {
          "indexed": false,
          "internalType": "uint256",
          "name": "currAmount",
          "type": "uint256"
        },
        {
          "indexed": false,
          "internalType": "uint256",
          "name": "mintDate",
          "type": "uint256"
        },
        {
          "indexed": false,
          "internalType": "bool",
          "name": "isCredit",
          "type": "bool"
        },
        {
          "indexed": false,
          "internalType": "string",
          "name": "detail",
          "type": "string"
        }
      ],
      "name": "tokenMinted",
      "type": "event"
    },
    {
      "inputs": [],
      "name": "ADMIN_ROLE",
      "outputs": [
        {
          "internalType": "bytes32",
          "name": "",
          "type": "bytes32"
        }
      ],
      "stateMutability": "view",
      "type": "function"
    },
    {
      "inputs": [],
      "name": "DEFAULT_ADMIN_ROLE",
      "outputs": [
        {
          "internalType": "bytes32",
          "name": "",
          "type": "bytes32"
        }
      ],
      "stateMutability": "view",
      "type": "function"
    },
    {
      "inputs": [],
      "name": "SELLER_ROLE",
      "outputs": [
        {
          "internalType": "bytes32",
          "name": "",
          "type": "bytes32"
        }
      ],
      "stateMutability": "view",
      "type": "function"
    },
    {
      "inputs": [
        {
          "internalType": "address",
          "name": "owner",
          "type": "address"
        },
        {
          "internalType": "address",
          "name": "spender",
          "type": "address"
        }
      ],
      "name": "allowance",
      "outputs": [
        {
          "internalType": "uint256",
          "name": "",
          "type": "uint256"
        }
      ],
      "stateMutability": "view",
      "type": "function"
    },
    {
      "inputs": [
        {
          "internalType": "address",
          "name": "spender",
          "type": "address"
        },
        {
          "internalType": "uint256",
          "name": "amount",
          "type": "uint256"
        }
      ],
      "name": "approve",
      "outputs": [
        {
          "internalType": "bool",
          "name": "",
          "type": "bool"
        }
      ],
      "stateMutability": "nonpayable",
      "type": "function"
    },
    {
      "inputs": [
        {
          "internalType": "address",
          "name": "_to",
          "type": "address"
        }
      ],
      "name": "assignAdmin",
      "outputs": [],
      "stateMutability": "nonpayable",
      "type": "function"
    },
    {
      "inputs": [
        {
          "internalType": "address",
          "name": "_to",
          "type": "address"
        }
      ],
      "name": "assignSeller",
      "outputs": [],
      "stateMutability": "nonpayable",
      "type": "function"
    },
    {
      "inputs": [
        {
          "internalType": "address",
          "name": "",
          "type": "address"
        }
      ],
      "name": "balanceFor",
      "outputs": [
        {
          "internalType": "uint256",
          "name": "",
          "type": "uint256"
        }
      ],
      "stateMutability": "view",
      "type": "function"
    },
    {
      "inputs": [
        {
          "internalType": "address",
          "name": "account",
          "type": "address"
        }
      ],
      "name": "balanceOf",
      "outputs": [
        {
          "internalType": "uint256",
          "name": "",
          "type": "uint256"
        }
      ],
      "stateMutability": "view",
      "type": "function"
    },
    {
      "inputs": [
        {
          "internalType": "uint256",
          "name": "amount",
          "type": "uint256"
        }
      ],
      "name": "burn",
      "outputs": [],
      "stateMutability": "nonpayable",
      "type": "function"
    },
    {
      "inputs": [
        {
          "internalType": "address",
          "name": "account",
          "type": "address"
        },
        {
          "internalType": "uint256",
          "name": "amount",
          "type": "uint256"
        }
      ],
      "name": "burnFrom",
      "outputs": [],
      "stateMutability": "nonpayable",
      "type": "function"
    },
    {
      "inputs": [
        {
          "internalType": "address",
          "name": "from",
          "type": "address"
        },
        {
          "internalType": "uint256",
          "name": "amount",
          "type": "uint256"
        }
      ],
      "name": "burnToken",
      "outputs": [
        {
          "internalType": "bool",
          "name": "",
          "type": "bool"
        }
      ],
      "stateMutability": "nonpayable",
      "type": "function"
    },
    {
      "inputs": [],
      "name": "decimals",
      "outputs": [
        {
          "internalType": "uint8",
          "name": "",
          "type": "uint8"
        }
      ],
      "stateMutability": "view",
      "type": "function"
    },
    {
      "inputs": [
        {
          "internalType": "address",
          "name": "spender",
          "type": "address"
        },
        {
          "internalType": "uint256",
          "name": "subtractedValue",
          "type": "uint256"
        }
      ],
      "name": "decreaseAllowance",
      "outputs": [
        {
          "internalType": "bool",
          "name": "",
          "type": "bool"
        }
      ],
      "stateMutability": "nonpayable",
      "type": "function"
    },
    {
      "inputs": [
        {
          "internalType": "address",
          "name": "_customer",
          "type": "address"
        }
      ],
      "name": "fetchTransactions",
      "outputs": [
        {
          "components": [
            {
              "internalType": "uint256",
              "name": "transactionId",
              "type": "uint256"
            },
            {
              "internalType": "address",
              "name": "customer",
              "type": "address"
            },
            {
              "internalType": "uint256",
              "name": "amount",
              "type": "uint256"
            },
            {
              "internalType": "uint256",
              "name": "currAmount",
              "type": "uint256"
            },
            {
              "internalType": "uint256",
              "name": "mintDate",
              "type": "uint256"
            },
            {
              "internalType": "bool",
              "name": "isCredit",
              "type": "bool"
            },
            {
              "internalType": "string",
              "name": "detail",
              "type": "string"
            }
          ],
          "internalType": "struct LoyaltyToken.transaction[]",
          "name": "",
          "type": "tuple[]"
        }
      ],
      "stateMutability": "view",
      "type": "function"
    },
    {
      "inputs": [
        {
          "internalType": "bytes32",
          "name": "role",
          "type": "bytes32"
        }
      ],
      "name": "getRoleAdmin",
      "outputs": [
        {
          "internalType": "bytes32",
          "name": "",
          "type": "bytes32"
        }
      ],
      "stateMutability": "view",
      "type": "function"
    },
    {
      "inputs": [
        {
          "internalType": "bytes32",
          "name": "role",
          "type": "bytes32"
        },
        {
          "internalType": "address",
          "name": "account",
          "type": "address"
        }
      ],
      "name": "grantRole",
      "outputs": [],
      "stateMutability": "nonpayable",
      "type": "function"
    },
    {
      "inputs": [
        {
          "internalType": "bytes32",
          "name": "role",
          "type": "bytes32"
        },
        {
          "internalType": "address",
          "name": "account",
          "type": "address"
        }
      ],
      "name": "hasRole",
      "outputs": [
        {
          "internalType": "bool",
          "name": "",
          "type": "bool"
        }
      ],
      "stateMutability": "view",
      "type": "function"
    },
    {
      "inputs": [
        {
          "internalType": "address",
          "name": "spender",
          "type": "address"
        },
        {
          "internalType": "uint256",
          "name": "addedValue",
          "type": "uint256"
        }
      ],
      "name": "increaseAllowance",
      "outputs": [
        {
          "internalType": "bool",
          "name": "",
          "type": "bool"
        }
      ],
      "stateMutability": "nonpayable",
      "type": "function"
    },
    {
      "inputs": [
        {
          "internalType": "address",
          "name": "to",
          "type": "address"
        },
        {
          "internalType": "uint256",
          "name": "amount",
          "type": "uint256"
        }
      ],
      "name": "mintFor",
      "outputs": [
        {
          "internalType": "bool",
          "name": "",
          "type": "bool"
        }
      ],
      "stateMutability": "nonpayable",
      "type": "function"
    },
    {
      "inputs": [
        {
          "internalType": "address",
          "name": "to",
          "type": "address"
        },
        {
          "internalType": "uint256",
          "name": "amount",
          "type": "uint256"
        }
      ],
      "name": "mintTo",
      "outputs": [
        {
          "internalType": "bool",
          "name": "",
          "type": "bool"
        }
      ],
      "stateMutability": "nonpayable",
      "type": "function"
    },
    {
      "inputs": [],
      "name": "name",
      "outputs": [
        {
          "internalType": "string",
          "name": "",
          "type": "string"
        }
      ],
      "stateMutability": "view",
      "type": "function"
    },
    {
      "inputs": [
        {
          "internalType": "uint256",
          "name": "amount",
          "type": "uint256"
        }
      ],
      "name": "redeemTokens",
      "outputs": [
        {
          "internalType": "bool",
          "name": "",
          "type": "bool"
        }
      ],
      "stateMutability": "nonpayable",
      "type": "function"
    },
    {
      "inputs": [
        {
          "internalType": "address",
          "name": "_from",
          "type": "address"
        }
      ],
      "name": "removeAdmin",
      "outputs": [],
      "stateMutability": "nonpayable",
      "type": "function"
    },
    {
      "inputs": [
        {
          "internalType": "address",
          "name": "_from",
          "type": "address"
        }
      ],
      "name": "removeSeller",
      "outputs": [],
      "stateMutability": "nonpayable",
      "type": "function"
    },
    {
      "inputs": [
        {
          "internalType": "bytes32",
          "name": "role",
          "type": "bytes32"
        },
        {
          "internalType": "address",
          "name": "account",
          "type": "address"
        }
      ],
      "name": "renounceRole",
      "outputs": [],
      "stateMutability": "nonpayable",
      "type": "function"
    },
    {
      "inputs": [
        {
          "internalType": "bytes32",
          "name": "role",
          "type": "bytes32"
        },
        {
          "internalType": "address",
          "name": "account",
          "type": "address"
        }
      ],
      "name": "revokeRole",
      "outputs": [],
      "stateMutability": "nonpayable",
      "type": "function"
    },
    {
      "inputs": [
        {
          "internalType": "bytes4",
          "name": "interfaceId",
          "type": "bytes4"
        }
      ],
      "name": "supportsInterface",
      "outputs": [
        {
          "internalType": "bool",
          "name": "",
          "type": "bool"
        }
      ],
      "stateMutability": "view",
      "type": "function"
    },
    {
      "inputs": [],
      "name": "symbol",
      "outputs": [
        {
          "internalType": "string",
          "name": "",
          "type": "string"
        }
      ],
      "stateMutability": "view",
      "type": "function"
    },
    {
      "inputs": [],
      "name": "totalSupply",
      "outputs": [
        {
          "internalType": "uint256",
          "name": "",
          "type": "uint256"
        }
      ],
      "stateMutability": "view",
      "type": "function"
    },
    {
      "inputs": [
        {
          "internalType": "address",
          "name": "to",
          "type": "address"
        },
        {
          "internalType": "uint256",
          "name": "amount",
          "type": "uint256"
        }
      ],
      "name": "transfer",
      "outputs": [
        {
          "internalType": "bool",
          "name": "",
          "type": "bool"
        }
      ],
      "stateMutability": "nonpayable",
      "type": "function"
    },
    {
      "inputs": [
        {
          "internalType": "address",
          "name": "from",
          "type": "address"
        },
        {
          "internalType": "address",
          "name": "to",
          "type": "address"
        },
        {
          "internalType": "uint256",
          "name": "amount",
          "type": "uint256"
        }
      ],
      "name": "transferFrom",
      "outputs": [
        {
          "internalType": "bool",
          "name": "",
          "type": "bool"
        }
      ],
      "stateMutability": "nonpayable",
      "type": "function"
    },
    {
      "inputs": [
        {
          "internalType": "uint256",
          "name": "transactionId",
          "type": "uint256"
        }
      ],
      "name": "validateTokens",
      "outputs": [
        {
          "internalType": "bool",
          "name": "",
          "type": "bool"
        }
      ],
      "stateMutability": "nonpayable",
      "type": "function"
    }
  ],
  "bytecode": "0x60806040523480156200001157600080fd5b506040518060400160405280600e81526020016d4c6f79616c747920546f6b656e7360901b81525060405180604001604052806002815260200161444560f01b815250816003908162000065919062000305565b50600462000074828262000305565b5050600780546001600160a01b031916339081179091556101f4600855620000bf9150620000a0600090565b620000b39060ff16633b9aca00620003e7565b63ffffffff16620000d2565b620000cc60003362000199565b62000428565b6001600160a01b0382166200012d5760405162461bcd60e51b815260206004820152601f60248201527f45524332303a206d696e7420746f20746865207a65726f206164647265737300604482015260640160405180910390fd5b806002600082825462000141919062000412565b90915550506001600160a01b038216600081815260208181526040808320805486019055518481527fddf252ad1be2c89b69c2b068fc378daa952ba7f163c4a11628f55a4df523b3ef910160405180910390a35b5050565b620001958282620001aa565b505050565b620001b6828262000234565b620001955760008281526005602090815260408083206001600160a01b03851684529091529020805460ff19166001179055620001f03390565b6001600160a01b0316816001600160a01b0316837f2f8788117e7eff1d82e926ec794901d17c78024a50270940304540a733656f0d60405160405180910390a45050565b60008281526005602090815260408083206001600160a01b038516845290915290205460ff165b92915050565b634e487b7160e01b600052604160045260246000fd5b600181811c908216806200028c57607f821691505b602082108103620002ad57634e487b7160e01b600052602260045260246000fd5b50919050565b601f821115620001a557600081815260208120601f850160051c81016020861015620002dc5750805b601f850160051c820191505b81811015620002fd57828155600101620002e8565b505050505050565b81516001600160401b0381111562000321576200032162000261565b620003398162000332845462000277565b84620002b3565b602080601f831160018114620003715760008415620003585750858301515b600019600386901b1c1916600185901b178555620002fd565b600085815260208120601f198616915b82811015620003a25788860151825594840194600190910190840162000381565b5085821015620003c15787850151600019600388901b60f8161c191681555b5050505050600190811b01905550565b634e487b7160e01b600052601160045260246000fd5b63ffffffff8181168382160280821691908281146200040a576200040a620003d1565b505092915050565b808201808211156200025b576200025b620003d1565b61288480620004386000396000f3fe608060405234801561001057600080fd5b506004361061020b5760003560e01c806370a082311161012a578063a6e158f8116100bd578063d1df306c1161008c578063da1919b311610071578063da1919b3146104c2578063dbe4613d146104d5578063dd62ed3e146104fc57600080fd5b8063d1df306c1461049c578063d547741f146104af57600080fd5b8063a6e158f814610443578063a9059cbb14610456578063ba9dfc6114610469578063bc7ff2741461048957600080fd5b806391d14854116100f957806391d14854146103e757806395d89b4114610420578063a217fddf14610428578063a457c2d71461043057600080fd5b806370a082311461037157806375b238fc1461039a57806379cc6790146103c15780637cb9cf54146103d457600080fd5b80632f2ff15d116101a25780633da7d2ed116101715780633da7d2ed1461031857806342966c681461032b578063449a52f81461033e578063556849ea1461035157600080fd5b80632f2ff15d146102d0578063313ce567146102e357806336568abe146102f2578063395093511461030557600080fd5b80631785f53c116101de5780631785f53c1461027357806318160ddd1461028857806323b872dd1461029a578063248a9ca3146102ad57600080fd5b806301ffc9a71461021057806306fdde0314610238578063095ea7b31461024d5780631141848a14610260575b600080fd5b61022361021e366004612371565b610535565b60405190151581526020015b60405180910390f35b6102406105ce565b60405161022f9190612403565b61022361025b366004612432565b610660565b61022361026e36600461245c565b610678565b610286610281366004612475565b610979565b005b6002545b60405190815260200161022f565b6102236102a8366004612490565b610abe565b61028c6102bb36600461245c565b60009081526005602052604090206001015490565b6102866102de3660046124cc565b610ae2565b6040516000815260200161022f565b6102866103003660046124cc565b610b0c565b610223610313366004612432565b610b98565b610286610326366004612475565b610bd7565b61028661033936600461245c565b610c92565b61022361034c366004612432565b610c9c565b61028c61035f366004612475565b600a6020526000908152604090205481565b61028c61037f366004612475565b6001600160a01b031660009081526020819052604090205490565b61028c7fa49807205ce4d355092ef5a8a18f56e8913cf4a201fbe287825b095693c2177581565b6102866103cf366004612432565b610ff5565b6102866103e2366004612475565b61100a565b6102236103f53660046124cc565b60009182526005602090815260408084206001600160a01b0393909316845291905290205460ff1690565b610240611172565b61028c600081565b61022361043e366004612432565b611181565b61022361045136600461245c565b61122b565b610223610464366004612432565b6114a5565b61047c610477366004612475565b6114b3565b60405161022f91906124f8565b610286610497366004612475565b611721565b6102236104aa366004612432565b611802565b6102866104bd3660046124cc565b611948565b6102236104d0366004612432565b61196d565b61028c7f43f25613eb2f15fb17222a5d424ca2655743e71265d98e4b93c05e5fb589ecde81565b61028c61050a3660046125ac565b6001600160a01b03918216600090815260016020908152604080832093909416825291909152205490565b60007fffffffff0000000000000000000000000000000000000000000000000000000082167f7965db0b0000000000000000000000000000000000000000000000000000000014806105c857507f01ffc9a7000000000000000000000000000000000000000000000000000000007fffffffff000000000000000000000000000000000000000000000000000000008316145b92915050565b6060600380546105dd906125d6565b80601f0160208091040260200160405190810160405280929190818152602001828054610609906125d6565b80156106565780601f1061062b57610100808354040283529160200191610656565b820191906000526020600020905b81548152906001019060200180831161063957829003601f168201915b5050505050905090565b60003361066e8185856119d4565b5060019392505050565b60008181526009602052604081206005015460ff166106de5760405162461bcd60e51b815260206004820152601860248201527f4f6e6c7920666f7220437265646974656420546f6b656e73000000000000000060448201526064015b60405180910390fd5b600082815260096020526040902060048101546001820154600283015460039093015460085442946001600160a01b0390931692919061071e9085612626565b8511801561072c5750600081115b1561096c57600061073d8484611802565b905042811561091557610754600680546001019055565b600061075f60065490565b6001600160a01b0387166000908152600a602052604081208054929350869290919061078c908490612639565b90915550506040805160e0810182528281526001600160a01b0388811660208084019182528385018a8152606085018a815260808601898152600060a088018181528951808b018b52600e81527f546f6b656e7320457870697265640000000000000000000000000000000000008188015260c08a019081528b8352600990965298902087518155945160018601805473ffffffffffffffffffffffffffffffffffffffff191691909716179095559051600284015551600383015591516004820155925160058401805460ff191691151591909117905551909190600682019061087790826126b0565b5050604080518381526001600160a01b03891660208201529081018790526060810186905260808101849052600060a082015260e060c08201819052600e908201527f546f6b656e7320457870697265640000000000000000000000000000000000006101008201527f0e0f276cc633ffe267793e0cd80b6e766490d5913bc83a7664b6d2d50972a43291506101200160405180910390a15061095d565b60405162461bcd60e51b815260206004820152601160248201527f546f6b656e73206e6f74204275726e656400000000000000000000000000000060448201526064016106d5565b50600098975050505050505050565b5060019695505050505050565b6001600160a01b03811660009081527fd8ef4509105c3edb0b04658b4528edc5ddd30ea5a81e623a2623c88db1eb54b6602052604090205460ff16610a005760405162461bcd60e51b815260206004820152601b60248201527f41646d696e2072696768747320646f65736e277420657869737473000000000060448201526064016106d5565b3360009081527f05b8ccbb9d4d8fb16ea74ce3c29a41f1b461fbdaff4714a0d9a8eb05499746bc602052604090205460ff16610a915760405162461bcd60e51b815260206004820152602a60248201527f4f6e6c792044656661756c742041646d696e2063616e207265766f6b652041646044820152696d696e2052696768747360b01b60648201526084016106d5565b610abb7fa49807205ce4d355092ef5a8a18f56e8913cf4a201fbe287825b095693c2177582611b2c565b50565b600033610acc858285611baf565b610ad7858585611c41565b506001949350505050565b600082815260056020526040902060010154610afd81611e2e565b610b078383611e38565b505050565b6001600160a01b0381163314610b8a5760405162461bcd60e51b815260206004820152602f60248201527f416363657373436f6e74726f6c3a2063616e206f6e6c792072656e6f756e636560448201527f20726f6c657320666f722073656c66000000000000000000000000000000000060648201526084016106d5565b610b948282611b2c565b5050565b3360008181526001602090815260408083206001600160a01b038716845290915281205490919061066e9082908690610bd2908790612626565b6119d4565b3360009081527f05b8ccbb9d4d8fb16ea74ce3c29a41f1b461fbdaff4714a0d9a8eb05499746bc602052604090205460ff16610c685760405162461bcd60e51b815260206004820152602a60248201527f4f6e6c792044656661756c742041646d696e2063616e2061737369676e2041646044820152696d696e2052696768747360b01b60648201526084016106d5565b610abb7fa49807205ce4d355092ef5a8a18f56e8913cf4a201fbe287825b095693c2177582611e38565b610abb3382611eda565b3360009081527f9adf02c4c7cfbfab2a0872ace1bf79ea4d72ff11554aea838928a0dcdeb1e5a0602052604081205460ff1680610d0757503360009081527fd8ef4509105c3edb0b04658b4528edc5ddd30ea5a81e623a2623c88db1eb54b6602052604090205460ff165b80610d4057503360009081527f05b8ccbb9d4d8fb16ea74ce3c29a41f1b461fbdaff4714a0d9a8eb05499746bc602052604090205460ff165b610db25760405162461bcd60e51b815260206004820152602860248201527f596f7520646f6e27742068617665207468652072696768747320746f206d696e60448201527f7420546f6b656e7300000000000000000000000000000000000000000000000060648201526084016106d5565b6001600160a01b038316610e175760405162461bcd60e51b815260206004820152602660248201527f43616e6e6f74207472616e7366657220746f6b656e7320746f207a65726f206160448201526564647265737360d01b60648201526084016106d5565b610e25600680546001019055565b6000610e3060065490565b9050610e3c8484612043565b6001600160a01b0384166000908152600a602052604081208054859290610e64908490612626565b90915550506040805160e0810182528281526001600160a01b038681166020808401918252838501888152606085018981524260808701818152600160a089018181528a51808c018c52601b81527f546f6b656e20526563696576656420666f7220507572636861736500000000008189015260c08b0190815260008d815260099098529a909620895181559651908701805473ffffffffffffffffffffffffffffffffffffffff1916919098161790965591516002850155516003840155925160048301555160058201805460ff191691151591909117905592519092906006820190610f5290826126b0565b5050604080518481526001600160a01b03881660208201529081018690526060810186905260808101839052600160a082015260e060c08201819052601c908201527f546f6b656e7320526563696576656420666f72205075726368617365000000006101008201527f0e0f276cc633ffe267793e0cd80b6e766490d5913bc83a7664b6d2d50972a43291506101200160405180910390a1506001949350505050565b611000823383611baf565b610b948282611eda565b3360009081527fd8ef4509105c3edb0b04658b4528edc5ddd30ea5a81e623a2623c88db1eb54b6602052604090205460ff168061107557503360009081527f05b8ccbb9d4d8fb16ea74ce3c29a41f1b461fbdaff4714a0d9a8eb05499746bc602052604090205460ff165b6110c15760405162461bcd60e51b815260206004820152601c60248201527f596f7520646f6e277420686176652061646d696e20726967687473210000000060448201526064016106d5565b6001600160a01b03811660009081527f9adf02c4c7cfbfab2a0872ace1bf79ea4d72ff11554aea838928a0dcdeb1e5a0602052604090205460ff166111485760405162461bcd60e51b815260206004820152601560248201527f53656c6c657220646f65736e277420657869737473000000000000000000000060448201526064016106d5565b610abb7f43f25613eb2f15fb17222a5d424ca2655743e71265d98e4b93c05e5fb589ecde82611b2c565b6060600480546105dd906125d6565b3360008181526001602090815260408083206001600160a01b03871684529091528120549091908381101561121e5760405162461bcd60e51b815260206004820152602560248201527f45524332303a2064656372656173656420616c6c6f77616e63652062656c6f7760448201527f207a65726f00000000000000000000000000000000000000000000000000000060648201526084016106d5565b610ad782868684036119d4565b336000908152600a6020526040812054826112885760405162461bcd60e51b815260206004820152601860248201527f546f6b656e732063616e2774206265206e65676174697665000000000000000060448201526064016106d5565b828110156112d85760405162461bcd60e51b815260206004820152601260248201527f4e6f7420656e6f75676820546f6b656e7321000000000000000000000000000060448201526064016106d5565b6112e23384611eda565b6112f0600680546001019055565b60006112fb60065490565b6040805160e081018252828152336020808301918252828401898152606084018881524260808601818152600060a088018181528951808b018b52600f81527f546f6b656e732052656465656d656400000000000000000000000000000000008189015260c08a019081528b8352600990975298902087518155955160018701805473ffffffffffffffffffffffffffffffffffffffff19166001600160a01b03909216919091179055925160028601559051600385015590516004840155935160058301805460ff191691151591909117905551939450919290919060068201906113e790826126b0565b5050604080518481523360208201529081018790526060810185905260808101839052600060a082015260e060c08201819052600f908201527f546f6b656e732052656465656d656400000000000000000000000000000000006101008201527f0e0f276cc633ffe267793e0cd80b6e766490d5913bc83a7664b6d2d50972a43291506101200160405180910390a1336000908152600a602052604081208054879290611495908490612639565b9091555060019695505050505050565b60003361066e818585611c41565b606060006114c060065490565b9050600060015b828111611512576000818152600960205260409020600101546001600160a01b0380871691160361150057816114fc81612770565b9250505b8061150a81612770565b9150506114c7565b5060008167ffffffffffffffff81111561152e5761152e61264c565b6040519080825280602002602001820160405280156115aa57816020015b6115976040518060e001604052806000815260200160006001600160a01b03168152602001600081526020016000815260200160008152602001600015158152602001606081525090565b81526020019060019003908161154c5790505b509050600060015b848111611716576000818152600960205260409020600101546001600160a01b0380891691160361170457600081815260096020908152604091829020825160e0810184528154815260018201546001600160a01b0316928101929092526002810154928201929092526003820154606082015260048201546080820152600582015460ff16151560a0820152600682018054839160c0840191611655906125d6565b80601f0160208091040260200160405190810160405280929190818152602001828054611681906125d6565b80156116ce5780601f106116a3576101008083540402835291602001916116ce565b820191906000526020600020905b8154815290600101906020018083116116b157829003601f168201915b5050505050815250508484815181106116e9576116e9612789565b602002602001018190525082806116ff90612770565b935050505b8061170e81612770565b9150506115b2565b509095945050505050565b3360009081527fd8ef4509105c3edb0b04658b4528edc5ddd30ea5a81e623a2623c88db1eb54b6602052604090205460ff168061178c57503360009081527f05b8ccbb9d4d8fb16ea74ce3c29a41f1b461fbdaff4714a0d9a8eb05499746bc602052604090205460ff165b6117d85760405162461bcd60e51b815260206004820152601c60248201527f596f7520646f6e277420686176652061646d696e20726967687473210000000060448201526064016106d5565b610abb7f43f25613eb2f15fb17222a5d424ca2655743e71265d98e4b93c05e5fb589ecde82611e38565b3360009081527fd8ef4509105c3edb0b04658b4528edc5ddd30ea5a81e623a2623c88db1eb54b6602052604081205460ff168061186d57503360009081527f05b8ccbb9d4d8fb16ea74ce3c29a41f1b461fbdaff4714a0d9a8eb05499746bc602052604090205460ff165b6118b95760405162461bcd60e51b815260206004820152601c60248201527f596f7520646f6e277420686176652061646d696e20726967687473210000000060448201526064016106d5565b6001600160a01b0383166119355760405162461bcd60e51b815260206004820152602860248201527f43616e6e6f74206275726e20746f6b656e732066726f6d20746865207a65726f60448201527f206164647265737300000000000000000000000000000000000000000000000060648201526084016106d5565b61193f8383611eda565b50600192915050565b60008281526005602052604090206001015461196381611e2e565b610b078383611b2c565b60006001600160a01b038316610e175760405162461bcd60e51b815260206004820152602660248201527f43616e6e6f74207472616e7366657220746f6b656e7320746f207a65726f206160448201526564647265737360d01b60648201526084016106d5565b6001600160a01b038316611a4f5760405162461bcd60e51b8152602060048201526024808201527f45524332303a20617070726f76652066726f6d20746865207a65726f2061646460448201527f726573730000000000000000000000000000000000000000000000000000000060648201526084016106d5565b6001600160a01b038216611acb5760405162461bcd60e51b815260206004820152602260248201527f45524332303a20617070726f766520746f20746865207a65726f20616464726560448201527f737300000000000000000000000000000000000000000000000000000000000060648201526084016106d5565b6001600160a01b0383811660008181526001602090815260408083209487168084529482529182902085905590518481527f8c5be1e5ebec7d5bd14f71427d1e84f3dd0314c0f7b2291e5b200ac8c7c3b925910160405180910390a3505050565b60008281526005602090815260408083206001600160a01b038516845290915290205460ff1615610b945760008281526005602090815260408083206001600160a01b0385168085529252808320805460ff1916905551339285917ff6391f5c32d9c69d2a47ea670b442974b53935d1edc7fd64eb21e047a839171b9190a45050565b6001600160a01b038381166000908152600160209081526040808320938616835292905220546000198114611c3b5781811015611c2e5760405162461bcd60e51b815260206004820152601d60248201527f45524332303a20696e73756666696369656e7420616c6c6f77616e636500000060448201526064016106d5565b611c3b84848484036119d4565b50505050565b6001600160a01b038316611cbd5760405162461bcd60e51b815260206004820152602560248201527f45524332303a207472616e736665722066726f6d20746865207a65726f20616460448201527f647265737300000000000000000000000000000000000000000000000000000060648201526084016106d5565b6001600160a01b038216611d395760405162461bcd60e51b815260206004820152602360248201527f45524332303a207472616e7366657220746f20746865207a65726f206164647260448201527f657373000000000000000000000000000000000000000000000000000000000060648201526084016106d5565b6001600160a01b03831660009081526020819052604090205481811015611dc85760405162461bcd60e51b815260206004820152602660248201527f45524332303a207472616e7366657220616d6f756e742065786365656473206260448201527f616c616e6365000000000000000000000000000000000000000000000000000060648201526084016106d5565b6001600160a01b03848116600081815260208181526040808320878703905593871680835291849020805487019055925185815290927fddf252ad1be2c89b69c2b068fc378daa952ba7f163c4a11628f55a4df523b3ef910160405180910390a3611c3b565b610abb8133612102565b60008281526005602090815260408083206001600160a01b038516845290915290205460ff16610b945760008281526005602090815260408083206001600160a01b03851684529091529020805460ff19166001179055611e963390565b6001600160a01b0316816001600160a01b0316837f2f8788117e7eff1d82e926ec794901d17c78024a50270940304540a733656f0d60405160405180910390a45050565b6001600160a01b038216611f565760405162461bcd60e51b815260206004820152602160248201527f45524332303a206275726e2066726f6d20746865207a65726f2061646472657360448201527f730000000000000000000000000000000000000000000000000000000000000060648201526084016106d5565b6001600160a01b03821660009081526020819052604090205481811015611fe55760405162461bcd60e51b815260206004820152602260248201527f45524332303a206275726e20616d6f756e7420657863656564732062616c616e60448201527f636500000000000000000000000000000000000000000000000000000000000060648201526084016106d5565b6001600160a01b0383166000818152602081815260408083208686039055600280548790039055518581529192917fddf252ad1be2c89b69c2b068fc378daa952ba7f163c4a11628f55a4df523b3ef910160405180910390a3505050565b6001600160a01b0382166120995760405162461bcd60e51b815260206004820152601f60248201527f45524332303a206d696e7420746f20746865207a65726f20616464726573730060448201526064016106d5565b80600260008282546120ab9190612626565b90915550506001600160a01b038216600081815260208181526040808320805486019055518481527fddf252ad1be2c89b69c2b068fc378daa952ba7f163c4a11628f55a4df523b3ef910160405180910390a35050565b60008281526005602090815260408083206001600160a01b038516845290915290205460ff16610b945761213581612177565b612140836020612189565b60405160200161215192919061279f565b60408051601f198184030181529082905262461bcd60e51b82526106d591600401612403565b60606105c86001600160a01b03831660145b60606000612198836002612820565b6121a3906002612626565b67ffffffffffffffff8111156121bb576121bb61264c565b6040519080825280601f01601f1916602001820160405280156121e5576020820181803683370190505b5090507f30000000000000000000000000000000000000000000000000000000000000008160008151811061221c5761221c612789565b60200101906001600160f81b031916908160001a9053507f78000000000000000000000000000000000000000000000000000000000000008160018151811061226757612267612789565b60200101906001600160f81b031916908160001a905350600061228b846002612820565b612296906001612626565b90505b600181111561231b577f303132333435363738396162636465660000000000000000000000000000000085600f16601081106122d7576122d7612789565b1a60f81b8282815181106122ed576122ed612789565b60200101906001600160f81b031916908160001a90535060049490941c9361231481612837565b9050612299565b50831561236a5760405162461bcd60e51b815260206004820181905260248201527f537472696e67733a20686578206c656e67746820696e73756666696369656e7460448201526064016106d5565b9392505050565b60006020828403121561238357600080fd5b81357fffffffff000000000000000000000000000000000000000000000000000000008116811461236a57600080fd5b60005b838110156123ce5781810151838201526020016123b6565b50506000910152565b600081518084526123ef8160208601602086016123b3565b601f01601f19169290920160200192915050565b60208152600061236a60208301846123d7565b80356001600160a01b038116811461242d57600080fd5b919050565b6000806040838503121561244557600080fd5b61244e83612416565b946020939093013593505050565b60006020828403121561246e57600080fd5b5035919050565b60006020828403121561248757600080fd5b61236a82612416565b6000806000606084860312156124a557600080fd5b6124ae84612416565b92506124bc60208501612416565b9150604084013590509250925092565b600080604083850312156124df57600080fd5b823591506124ef60208401612416565b90509250929050565b60006020808301818452808551808352604092508286019150828160051b87010184880160005b8381101561259e57888303603f19018552815180518452878101516001600160a01b0316888501528681015187850152606080820151908501526080808201519085015260a08082015115159085015260c09081015160e09185018290529061258a818601836123d7565b96890196945050509086019060010161251f565b509098975050505050505050565b600080604083850312156125bf57600080fd5b6125c883612416565b91506124ef60208401612416565b600181811c908216806125ea57607f821691505b60208210810361260a57634e487b7160e01b600052602260045260246000fd5b50919050565b634e487b7160e01b600052601160045260246000fd5b808201808211156105c8576105c8612610565b818103818111156105c8576105c8612610565b634e487b7160e01b600052604160045260246000fd5b601f821115610b0757600081815260208120601f850160051c810160208610156126895750805b601f850160051c820191505b818110156126a857828155600101612695565b505050505050565b815167ffffffffffffffff8111156126ca576126ca61264c565b6126de816126d884546125d6565b84612662565b602080601f83116001811461271357600084156126fb5750858301515b600019600386901b1c1916600185901b1785556126a8565b600085815260208120601f198616915b8281101561274257888601518255948401946001909101908401612723565b50858210156127605787850151600019600388901b60f8161c191681555b5050505050600190811b01905550565b60006001820161278257612782612610565b5060010190565b634e487b7160e01b600052603260045260246000fd5b7f416363657373436f6e74726f6c3a206163636f756e74200000000000000000008152600083516127d78160178501602088016123b3565b7f206973206d697373696e6720726f6c652000000000000000000000000000000060179184019182015283516128148160288401602088016123b3565b01602801949350505050565b80820281158282048414176105c8576105c8612610565b60008161284657612846612610565b50600019019056fea2646970667358221220d00c9a4d4a3b8d4734c786f98e36465362f270208bc263fb539dde5d1d0435e364736f6c63430008130033",
  "linkReferences": {},
  "deployedLinkReferences": {}
}