{
  "_format": "hh-sol-artifact-1",
  "contractName": "LoyaltyToken",
  "sourceName": "contracts/LoyaltyToken.sol",
  "abi": [
    {
      "inputs": [],
      "stateMutability": "nonpayable",
      "type": "constructor"
    },
    {
      "anonymous": false,
      "inputs": [
        {
          "indexed": true,
          "internalType": "address",
          "name": "owner",
          "type": "address"
        },
        {
          "indexed": true,
          "internalType": "address",
          "name": "spender",
          "type": "address"
        },
        {
          "indexed": false,
          "internalType": "uint256",
          "name": "value",
          "type": "uint256"
        }
      ],
      "name": "Approval",
      "type": "event"
    },
    {
      "anonymous": false,
      "inputs": [
        {
          "indexed": true,
          "internalType": "bytes32",
          "name": "role",
          "type": "bytes32"
        },
        {
          "indexed": true,
          "internalType": "bytes32",
          "name": "previousAdminRole",
          "type": "bytes32"
        },
        {
          "indexed": true,
          "internalType": "bytes32",
          "name": "newAdminRole",
          "type": "bytes32"
        }
      ],
      "name": "RoleAdminChanged",
      "type": "event"
    },
    {
      "anonymous": false,
      "inputs": [
        {
          "indexed": true,
          "internalType": "bytes32",
          "name": "role",
          "type": "bytes32"
        },
        {
          "indexed": true,
          "internalType": "address",
          "name": "account",
          "type": "address"
        },
        {
          "indexed": true,
          "internalType": "address",
          "name": "sender",
          "type": "address"
        }
      ],
      "name": "RoleGranted",
      "type": "event"
    },
    {
      "anonymous": false,
      "inputs": [
        {
          "indexed": true,
          "internalType": "bytes32",
          "name": "role",
          "type": "bytes32"
        },
        {
          "indexed": true,
          "internalType": "address",
          "name": "account",
          "type": "address"
        },
        {
          "indexed": true,
          "internalType": "address",
          "name": "sender",
          "type": "address"
        }
      ],
      "name": "RoleRevoked",
      "type": "event"
    },
    {
      "anonymous": false,
      "inputs": [
        {
          "indexed": true,
          "internalType": "address",
          "name": "from",
          "type": "address"
        },
        {
          "indexed": true,
          "internalType": "address",
          "name": "to",
          "type": "address"
        },
        {
          "indexed": false,
          "internalType": "uint256",
          "name": "value",
          "type": "uint256"
        }
      ],
      "name": "Transfer",
      "type": "event"
    },
    {
      "anonymous": false,
      "inputs": [
        {
          "indexed": false,
          "internalType": "uint256",
          "name": "totalAmount",
          "type": "uint256"
        },
        {
          "components": [
            {
              "internalType": "uint256",
              "name": "transactionId",
              "type": "uint256"
            },
            {
              "internalType": "address",
              "name": "customer",
              "type": "address"
            },
            {
              "internalType": "uint256",
              "name": "amount",
              "type": "uint256"
            },
            {
              "internalType": "uint256",
              "name": "currAmount",
              "type": "uint256"
            },
            {
              "internalType": "uint256",
              "name": "mintDate",
              "type": "uint256"
            },
            {
              "internalType": "bool",
              "name": "isCredit",
              "type": "bool"
            },
            {
              "internalType": "string",
              "name": "detail",
              "type": "string"
            }
          ],
          "indexed": false,
          "internalType": "struct LoyaltyToken.transaction[]",
          "name": "",
          "type": "tuple[]"
        }
      ],
      "name": "fetchAll",
      "type": "event"
    },
    {
      "anonymous": false,
      "inputs": [
        {
          "indexed": false,
          "internalType": "uint256",
          "name": "transactionId",
          "type": "uint256"
        },
        {
          "indexed": false,
          "internalType": "address",
          "name": "customer",
          "type": "address"
        },
        {
          "indexed": false,
          "internalType": "uint256",
          "name": "amount",
          "type": "uint256"
        },
        {
          "indexed": false,
          "internalType": "uint256",
          "name": "currAmount",
          "type": "uint256"
        },
        {
          "indexed": false,
          "internalType": "uint256",
          "name": "mintDate",
          "type": "uint256"
        },
        {
          "indexed": false,
          "internalType": "bool",
          "name": "isCredit",
          "type": "bool"
        },
        {
          "indexed": false,
          "internalType": "string",
          "name": "detail",
          "type": "string"
        }
      ],
      "name": "tokenMinted",
      "type": "event"
    },
    {
      "inputs": [],
      "name": "ADMIN_ROLE",
      "outputs": [
        {
          "internalType": "bytes32",
          "name": "",
          "type": "bytes32"
        }
      ],
      "stateMutability": "view",
      "type": "function"
    },
    {
      "inputs": [],
      "name": "DEFAULT_ADMIN_ROLE",
      "outputs": [
        {
          "internalType": "bytes32",
          "name": "",
          "type": "bytes32"
        }
      ],
      "stateMutability": "view",
      "type": "function"
    },
    {
      "inputs": [],
      "name": "SELLER_ROLE",
      "outputs": [
        {
          "internalType": "bytes32",
          "name": "",
          "type": "bytes32"
        }
      ],
      "stateMutability": "view",
      "type": "function"
    },
    {
      "inputs": [
        {
          "internalType": "address",
          "name": "owner",
          "type": "address"
        },
        {
          "internalType": "address",
          "name": "spender",
          "type": "address"
        }
      ],
      "name": "allowance",
      "outputs": [
        {
          "internalType": "uint256",
          "name": "",
          "type": "uint256"
        }
      ],
      "stateMutability": "view",
      "type": "function"
    },
    {
      "inputs": [
        {
          "internalType": "address",
          "name": "spender",
          "type": "address"
        },
        {
          "internalType": "uint256",
          "name": "amount",
          "type": "uint256"
        }
      ],
      "name": "approve",
      "outputs": [
        {
          "internalType": "bool",
          "name": "",
          "type": "bool"
        }
      ],
      "stateMutability": "nonpayable",
      "type": "function"
    },
    {
      "inputs": [
        {
          "internalType": "address",
          "name": "_to",
          "type": "address"
        }
      ],
      "name": "assignAdmin",
      "outputs": [],
      "stateMutability": "nonpayable",
      "type": "function"
    },
    {
      "inputs": [
        {
          "internalType": "address",
          "name": "_to",
          "type": "address"
        }
      ],
      "name": "assignSeller",
      "outputs": [],
      "stateMutability": "nonpayable",
      "type": "function"
    },
    {
      "inputs": [
        {
          "internalType": "address",
          "name": "",
          "type": "address"
        }
      ],
      "name": "balanceFor",
      "outputs": [
        {
          "internalType": "uint256",
          "name": "",
          "type": "uint256"
        }
      ],
      "stateMutability": "view",
      "type": "function"
    },
    {
      "inputs": [
        {
          "internalType": "address",
          "name": "account",
          "type": "address"
        }
      ],
      "name": "balanceOf",
      "outputs": [
        {
          "internalType": "uint256",
          "name": "",
          "type": "uint256"
        }
      ],
      "stateMutability": "view",
      "type": "function"
    },
    {
      "inputs": [
        {
          "internalType": "uint256",
          "name": "amount",
          "type": "uint256"
        }
      ],
      "name": "burn",
      "outputs": [],
      "stateMutability": "nonpayable",
      "type": "function"
    },
    {
      "inputs": [
        {
          "internalType": "address",
          "name": "account",
          "type": "address"
        },
        {
          "internalType": "uint256",
          "name": "amount",
          "type": "uint256"
        }
      ],
      "name": "burnFrom",
      "outputs": [],
      "stateMutability": "nonpayable",
      "type": "function"
    },
    {
      "inputs": [
        {
          "internalType": "address",
          "name": "from",
          "type": "address"
        },
        {
          "internalType": "uint256",
          "name": "amount",
          "type": "uint256"
        }
      ],
      "name": "burnToken",
      "outputs": [
        {
          "internalType": "bool",
          "name": "",
          "type": "bool"
        }
      ],
      "stateMutability": "nonpayable",
      "type": "function"
    },
    {
      "inputs": [],
      "name": "decimals",
      "outputs": [
        {
          "internalType": "uint8",
          "name": "",
          "type": "uint8"
        }
      ],
      "stateMutability": "view",
      "type": "function"
    },
    {
      "inputs": [
        {
          "internalType": "address",
          "name": "spender",
          "type": "address"
        },
        {
          "internalType": "uint256",
          "name": "subtractedValue",
          "type": "uint256"
        }
      ],
      "name": "decreaseAllowance",
      "outputs": [
        {
          "internalType": "bool",
          "name": "",
          "type": "bool"
        }
      ],
      "stateMutability": "nonpayable",
      "type": "function"
    },
    {
      "inputs": [
        {
          "internalType": "address",
          "name": "_customer",
          "type": "address"
        }
      ],
      "name": "fetchTransactions",
      "outputs": [
        {
          "components": [
            {
              "internalType": "uint256",
              "name": "transactionId",
              "type": "uint256"
            },
            {
              "internalType": "address",
              "name": "customer",
              "type": "address"
            },
            {
              "internalType": "uint256",
              "name": "amount",
              "type": "uint256"
            },
            {
              "internalType": "uint256",
              "name": "currAmount",
              "type": "uint256"
            },
            {
              "internalType": "uint256",
              "name": "mintDate",
              "type": "uint256"
            },
            {
              "internalType": "bool",
              "name": "isCredit",
              "type": "bool"
            },
            {
              "internalType": "string",
              "name": "detail",
              "type": "string"
            }
          ],
          "internalType": "struct LoyaltyToken.transaction[]",
          "name": "",
          "type": "tuple[]"
        }
      ],
      "stateMutability": "view",
      "type": "function"
    },
    {
      "inputs": [
        {
          "internalType": "bytes32",
          "name": "role",
          "type": "bytes32"
        }
      ],
      "name": "getRoleAdmin",
      "outputs": [
        {
          "internalType": "bytes32",
          "name": "",
          "type": "bytes32"
        }
      ],
      "stateMutability": "view",
      "type": "function"
    },
    {
      "inputs": [
        {
          "internalType": "bytes32",
          "name": "role",
          "type": "bytes32"
        },
        {
          "internalType": "address",
          "name": "account",
          "type": "address"
        }
      ],
      "name": "grantRole",
      "outputs": [],
      "stateMutability": "nonpayable",
      "type": "function"
    },
    {
      "inputs": [
        {
          "internalType": "bytes32",
          "name": "role",
          "type": "bytes32"
        },
        {
          "internalType": "address",
          "name": "account",
          "type": "address"
        }
      ],
      "name": "hasRole",
      "outputs": [
        {
          "internalType": "bool",
          "name": "",
          "type": "bool"
        }
      ],
      "stateMutability": "view",
      "type": "function"
    },
    {
      "inputs": [
        {
          "internalType": "address",
          "name": "spender",
          "type": "address"
        },
        {
          "internalType": "uint256",
          "name": "addedValue",
          "type": "uint256"
        }
      ],
      "name": "increaseAllowance",
      "outputs": [
        {
          "internalType": "bool",
          "name": "",
          "type": "bool"
        }
      ],
      "stateMutability": "nonpayable",
      "type": "function"
    },
    {
      "inputs": [
        {
          "internalType": "uint256",
          "name": "amount",
          "type": "uint256"
        }
      ],
      "name": "mint",
      "outputs": [
        {
          "internalType": "bool",
          "name": "",
          "type": "bool"
        }
      ],
      "stateMutability": "nonpayable",
      "type": "function"
    },
    {
      "inputs": [
        {
          "internalType": "address",
          "name": "to",
          "type": "address"
        },
        {
          "internalType": "uint256",
          "name": "amount",
          "type": "uint256"
        }
      ],
      "name": "mintTo",
      "outputs": [
        {
          "internalType": "bool",
          "name": "",
          "type": "bool"
        }
      ],
      "stateMutability": "nonpayable",
      "type": "function"
    },
    {
      "inputs": [],
      "name": "name",
      "outputs": [
        {
          "internalType": "string",
          "name": "",
          "type": "string"
        }
      ],
      "stateMutability": "view",
      "type": "function"
    },
    {
      "inputs": [
        {
          "internalType": "uint256",
          "name": "amount",
          "type": "uint256"
        }
      ],
      "name": "redeemTokens",
      "outputs": [
        {
          "internalType": "bool",
          "name": "",
          "type": "bool"
        }
      ],
      "stateMutability": "nonpayable",
      "type": "function"
    },
    {
      "inputs": [
        {
          "internalType": "address",
          "name": "_from",
          "type": "address"
        }
      ],
      "name": "removeAdmin",
      "outputs": [],
      "stateMutability": "nonpayable",
      "type": "function"
    },
    {
      "inputs": [
        {
          "internalType": "address",
          "name": "_from",
          "type": "address"
        }
      ],
      "name": "removeSeller",
      "outputs": [],
      "stateMutability": "nonpayable",
      "type": "function"
    },
    {
      "inputs": [
        {
          "internalType": "bytes32",
          "name": "role",
          "type": "bytes32"
        },
        {
          "internalType": "address",
          "name": "account",
          "type": "address"
        }
      ],
      "name": "renounceRole",
      "outputs": [],
      "stateMutability": "nonpayable",
      "type": "function"
    },
    {
      "inputs": [
        {
          "internalType": "bytes32",
          "name": "role",
          "type": "bytes32"
        },
        {
          "internalType": "address",
          "name": "account",
          "type": "address"
        }
      ],
      "name": "revokeRole",
      "outputs": [],
      "stateMutability": "nonpayable",
      "type": "function"
    },
    {
      "inputs": [
        {
          "internalType": "bytes4",
          "name": "interfaceId",
          "type": "bytes4"
        }
      ],
      "name": "supportsInterface",
      "outputs": [
        {
          "internalType": "bool",
          "name": "",
          "type": "bool"
        }
      ],
      "stateMutability": "view",
      "type": "function"
    },
    {
      "inputs": [],
      "name": "symbol",
      "outputs": [
        {
          "internalType": "string",
          "name": "",
          "type": "string"
        }
      ],
      "stateMutability": "view",
      "type": "function"
    },
    {
      "inputs": [],
      "name": "totalSupply",
      "outputs": [
        {
          "internalType": "uint256",
          "name": "",
          "type": "uint256"
        }
      ],
      "stateMutability": "view",
      "type": "function"
    },
    {
      "inputs": [
        {
          "internalType": "address",
          "name": "to",
          "type": "address"
        },
        {
          "internalType": "uint256",
          "name": "amount",
          "type": "uint256"
        }
      ],
      "name": "transfer",
      "outputs": [
        {
          "internalType": "bool",
          "name": "",
          "type": "bool"
        }
      ],
      "stateMutability": "nonpayable",
      "type": "function"
    },
    {
      "inputs": [
        {
          "internalType": "address",
          "name": "from",
          "type": "address"
        },
        {
          "internalType": "address",
          "name": "to",
          "type": "address"
        },
        {
          "internalType": "uint256",
          "name": "amount",
          "type": "uint256"
        }
      ],
      "name": "transferFrom",
      "outputs": [
        {
          "internalType": "bool",
          "name": "",
          "type": "bool"
        }
      ],
      "stateMutability": "nonpayable",
      "type": "function"
    },
    {
      "inputs": [
        {
          "internalType": "uint256",
          "name": "transactionId",
          "type": "uint256"
        }
      ],
      "name": "validateTokens",
      "outputs": [
        {
          "internalType": "bool",
          "name": "",
          "type": "bool"
        }
      ],
      "stateMutability": "nonpayable",
      "type": "function"
    }
  ],
  "bytecode": "0x60806040523480156200001157600080fd5b506040518060400160405280600e81526020016d4c6f79616c747920546f6b656e7360901b81525060405180604001604052806002815260200161444560f01b815250816003908162000065919062000307565b50600462000074828262000307565b5050600780546001600160a01b031916339081179091556101f4600855620000c19150620000a0601290565b620000ad90600a620004e6565b620000bb906103e8620004fe565b620000d4565b620000ce6000336200019b565b6200052e565b6001600160a01b0382166200012f5760405162461bcd60e51b815260206004820152601f60248201527f45524332303a206d696e7420746f20746865207a65726f206164647265737300604482015260640160405180910390fd5b806002600082825462000143919062000518565b90915550506001600160a01b038216600081815260208181526040808320805486019055518481527fddf252ad1be2c89b69c2b068fc378daa952ba7f163c4a11628f55a4df523b3ef910160405180910390a35b5050565b620001978282620001ac565b505050565b620001b8828262000236565b620001975760008281526005602090815260408083206001600160a01b03851684529091529020805460ff19166001179055620001f23390565b6001600160a01b0316816001600160a01b0316837f2f8788117e7eff1d82e926ec794901d17c78024a50270940304540a733656f0d60405160405180910390a45050565b60008281526005602090815260408083206001600160a01b038516845290915290205460ff165b92915050565b634e487b7160e01b600052604160045260246000fd5b600181811c908216806200028e57607f821691505b602082108103620002af57634e487b7160e01b600052602260045260246000fd5b50919050565b601f821115620001a757600081815260208120601f850160051c81016020861015620002de5750805b601f850160051c820191505b81811015620002ff57828155600101620002ea565b505050505050565b81516001600160401b0381111562000323576200032362000263565b6200033b8162000334845462000279565b84620002b5565b602080601f8311600181146200037357600084156200035a5750858301515b600019600386901b1c1916600185901b178555620002ff565b600085815260208120601f198616915b82811015620003a45788860151825594840194600190910190840162000383565b5085821015620003c35787850151600019600388901b60f8161c191681555b5050505050600190811b01905550565b634e487b7160e01b600052601160045260246000fd5b600181815b808511156200042a5781600019048211156200040e576200040e620003d3565b808516156200041c57918102915b93841c9390800290620003ee565b509250929050565b60008262000443575060016200025d565b8162000452575060006200025d565b81600181146200046b5760028114620004765762000496565b60019150506200025d565b60ff8411156200048a576200048a620003d3565b50506001821b6200025d565b5060208310610133831016604e8410600b8410161715620004bb575081810a6200025d565b620004c78383620003e9565b8060001904821115620004de57620004de620003d3565b029392505050565b6000620004f760ff84168362000432565b9392505050565b80820281158282048414176200025d576200025d620003d3565b808201808211156200025d576200025d620003d3565b6129eb806200053e6000396000f3fe608060405234801561001057600080fd5b506004361061020b5760003560e01c806370a082311161012a578063a457c2d7116100bd578063bc7ff2741161008c578063d547741f11610071578063d547741f146104c2578063dbe4613d146104d5578063dd62ed3e146104fc57600080fd5b8063bc7ff2741461049c578063d1df306c146104af57600080fd5b8063a457c2d714610443578063a6e158f814610456578063a9059cbb14610469578063ba9dfc611461047c57600080fd5b806391d14854116100f957806391d14854146103e757806395d89b4114610420578063a0712d6814610428578063a217fddf1461043b57600080fd5b806370a082311461037157806375b238fc1461039a57806379cc6790146103c15780637cb9cf54146103d457600080fd5b80632f2ff15d116101a25780633da7d2ed116101715780633da7d2ed1461031857806342966c681461032b578063449a52f81461033e578063556849ea1461035157600080fd5b80632f2ff15d146102d0578063313ce567146102e357806336568abe146102f2578063395093511461030557600080fd5b80631785f53c116101de5780631785f53c1461027357806318160ddd1461028857806323b872dd1461029a578063248a9ca3146102ad57600080fd5b806301ffc9a71461021057806306fdde0314610238578063095ea7b31461024d5780631141848a14610260575b600080fd5b61022361021e3660046123e5565b610535565b60405190151581526020015b60405180910390f35b6102406105ce565b60405161022f9190612477565b61022361025b3660046124a6565b610660565b61022361026e3660046124d0565b610678565b6102866102813660046124e9565b610978565b005b6002545b60405190815260200161022f565b6102236102a8366004612504565b610abd565b61028c6102bb3660046124d0565b60009081526005602052604090206001015490565b6102866102de366004612540565b610ae1565b6040516012815260200161022f565b610286610300366004612540565b610b0b565b6102236103133660046124a6565b610b97565b6102866103263660046124e9565b610bd6565b6102866103393660046124d0565b610c91565b61022361034c3660046124a6565b610c9b565b61028c61035f3660046124e9565b600a6020526000908152604090205481565b61028c61037f3660046124e9565b6001600160a01b031660009081526020819052604090205490565b61028c7fa49807205ce4d355092ef5a8a18f56e8913cf4a201fbe287825b095693c2177581565b6102866103cf3660046124a6565b61100b565b6102866103e23660046124e9565b611020565b6102236103f5366004612540565b60009182526005602090815260408084206001600160a01b0393909316845291905290205460ff1690565b610240611188565b6102236104363660046124d0565b611197565b61028c600081565b6102236104513660046124a6565b611262565b6102236104643660046124d0565b61130c565b6102236104773660046124a6565b611580565b61048f61048a3660046124e9565b61158e565b60405161022f919061256c565b6102866104aa3660046124e9565b6117fc565b6102236104bd3660046124a6565b6118dd565b6102866104d0366004612540565b611a23565b61028c7f43f25613eb2f15fb17222a5d424ca2655743e71265d98e4b93c05e5fb589ecde81565b61028c61050a366004612620565b6001600160a01b03918216600090815260016020908152604080832093909416825291909152205490565b60007fffffffff0000000000000000000000000000000000000000000000000000000082167f7965db0b0000000000000000000000000000000000000000000000000000000014806105c857507f01ffc9a7000000000000000000000000000000000000000000000000000000007fffffffff000000000000000000000000000000000000000000000000000000008316145b92915050565b6060600380546105dd9061264a565b80601f01602080910402602001604051908101604052809291908181526020018280546106099061264a565b80156106565780601f1061062b57610100808354040283529160200191610656565b820191906000526020600020905b81548152906001019060200180831161063957829003601f168201915b5050505050905090565b60003361066e818585611a48565b5060019392505050565b60008181526009602052604081206005015460ff166106de5760405162461bcd60e51b815260206004820152601860248201527f4f6e6c7920666f7220437265646974656420546f6b656e73000000000000000060448201526064015b60405180910390fd5b600082815260096020526040902060048101546001820154600283015460039093015460085442946001600160a01b0390931692919061071e908561269a565b8511801561072c5750600081115b1561096b57600061073d84846118dd565b9050801561091557610753600680546001019055565b600061075e60065490565b6001600160a01b0386166000908152600a602052604081208054929350859290919061078b9084906126ad565b90915550506040805160e0810182528281526001600160a01b0387811660208084019182528385018981526060850189815260006080870181815260a088018281528951808b018b52600e81527f546f6b656e7320457870697265640000000000000000000000000000000000008188015260c08a019081528b845260099096529890912087518155945160018601805473ffffffffffffffffffffffffffffffffffffffff191691909716179095559051600284015551600383015591516004820155925160058401805460ff19169115159190911790555190919060068201906108779082612724565b5050604080518381526001600160a01b03881660208201529081018690526060810185905260006080820181905260a082015260e060c08201819052600e908201527f546f6b656e7320457870697265640000000000000000000000000000000000006101008201527f0e0f276cc633ffe267793e0cd80b6e766490d5913bc83a7664b6d2d50972a43291506101200160405180910390a15061095d565b60405162461bcd60e51b815260206004820152601160248201527f546f6b656e73206e6f74204275726e656400000000000000000000000000000060448201526064016106d5565b506000979650505050505050565b5060019695505050505050565b6001600160a01b03811660009081527fd8ef4509105c3edb0b04658b4528edc5ddd30ea5a81e623a2623c88db1eb54b6602052604090205460ff166109ff5760405162461bcd60e51b815260206004820152601b60248201527f41646d696e2072696768747320646f65736e277420657869737473000000000060448201526064016106d5565b3360009081527f05b8ccbb9d4d8fb16ea74ce3c29a41f1b461fbdaff4714a0d9a8eb05499746bc602052604090205460ff16610a905760405162461bcd60e51b815260206004820152602a60248201527f4f6e6c792044656661756c742041646d696e2063616e207265766f6b652041646044820152696d696e2052696768747360b01b60648201526084016106d5565b610aba7fa49807205ce4d355092ef5a8a18f56e8913cf4a201fbe287825b095693c2177582611ba0565b50565b600033610acb858285611c23565b610ad6858585611cb5565b506001949350505050565b600082815260056020526040902060010154610afc81611ea2565b610b068383611eac565b505050565b6001600160a01b0381163314610b895760405162461bcd60e51b815260206004820152602f60248201527f416363657373436f6e74726f6c3a2063616e206f6e6c792072656e6f756e636560448201527f20726f6c657320666f722073656c66000000000000000000000000000000000060648201526084016106d5565b610b938282611ba0565b5050565b3360008181526001602090815260408083206001600160a01b038716845290915281205490919061066e9082908690610bd190879061269a565b611a48565b3360009081527f05b8ccbb9d4d8fb16ea74ce3c29a41f1b461fbdaff4714a0d9a8eb05499746bc602052604090205460ff16610c675760405162461bcd60e51b815260206004820152602a60248201527f4f6e6c792044656661756c742041646d696e2063616e2061737369676e2041646044820152696d696e2052696768747360b01b60648201526084016106d5565b610aba7fa49807205ce4d355092ef5a8a18f56e8913cf4a201fbe287825b095693c2177582611eac565b610aba3382611f4e565b3360009081527f9adf02c4c7cfbfab2a0872ace1bf79ea4d72ff11554aea838928a0dcdeb1e5a0602052604081205460ff1680610d0657503360009081527fd8ef4509105c3edb0b04658b4528edc5ddd30ea5a81e623a2623c88db1eb54b6602052604090205460ff165b80610d3f57503360009081527f05b8ccbb9d4d8fb16ea74ce3c29a41f1b461fbdaff4714a0d9a8eb05499746bc602052604090205460ff165b610db15760405162461bcd60e51b815260206004820152602860248201527f596f7520646f6e27742068617665207468652072696768747320746f206d696e60448201527f7420546f6b656e7300000000000000000000000000000000000000000000000060648201526084016106d5565b6001600160a01b038316610e2d5760405162461bcd60e51b815260206004820152602660248201527f43616e6e6f74207472616e7366657220746f6b656e7320746f207a65726f206160448201527f646472657373000000000000000000000000000000000000000000000000000060648201526084016106d5565b610e3b600680546001019055565b6000610e4660065490565b9050610e5284846120b7565b6001600160a01b0384166000908152600a602052604081208054859290610e7a90849061269a565b90915550506040805160e0810182528281526001600160a01b038681166020808401918252838501888152606085018981524260808701818152600160a089018181528a51808c018c52601b81527f546f6b656e20526563696576656420666f7220507572636861736500000000008189015260c08b0190815260008d815260099098529a909620895181559651908701805473ffffffffffffffffffffffffffffffffffffffff1916919098161790965591516002850155516003840155925160048301555160058201805460ff191691151591909117905592519092906006820190610f689082612724565b5050604080518481526001600160a01b03881660208201529081018690526060810186905260808101839052600160a082015260e060c08201819052601c908201527f546f6b656e7320526563696576656420666f72205075726368617365000000006101008201527f0e0f276cc633ffe267793e0cd80b6e766490d5913bc83a7664b6d2d50972a43291506101200160405180910390a1506001949350505050565b611016823383611c23565b610b938282611f4e565b3360009081527fd8ef4509105c3edb0b04658b4528edc5ddd30ea5a81e623a2623c88db1eb54b6602052604090205460ff168061108b57503360009081527f05b8ccbb9d4d8fb16ea74ce3c29a41f1b461fbdaff4714a0d9a8eb05499746bc602052604090205460ff165b6110d75760405162461bcd60e51b815260206004820152601c60248201527f596f7520646f6e277420686176652061646d696e20726967687473210000000060448201526064016106d5565b6001600160a01b03811660009081527f9adf02c4c7cfbfab2a0872ace1bf79ea4d72ff11554aea838928a0dcdeb1e5a0602052604090205460ff1661115e5760405162461bcd60e51b815260206004820152601560248201527f53656c6c657220646f65736e277420657869737473000000000000000000000060448201526064016106d5565b610aba7f43f25613eb2f15fb17222a5d424ca2655743e71265d98e4b93c05e5fb589ecde82611ba0565b6060600480546105dd9061264a565b3360009081527f05b8ccbb9d4d8fb16ea74ce3c29a41f1b461fbdaff4714a0d9a8eb05499746bc602052604081205460ff1661123b5760405162461bcd60e51b815260206004820152602660248201527f4f6e6c792044656661756c742041646d696e2063616e2063726561746520612060448201527f737570706c79000000000000000000000000000000000000000000000000000060648201526084016106d5565b61125a3361124b6012600a6128c8565b61125590856128d7565b6120b7565b506001919050565b3360008181526001602090815260408083206001600160a01b0387168452909152812054909190838110156112ff5760405162461bcd60e51b815260206004820152602560248201527f45524332303a2064656372656173656420616c6c6f77616e63652062656c6f7760448201527f207a65726f00000000000000000000000000000000000000000000000000000060648201526084016106d5565b610ad68286868403611a48565b336000908152600a6020526040812054826113695760405162461bcd60e51b815260206004820152601860248201527f546f6b656e732063616e2774206265206e65676174697665000000000000000060448201526064016106d5565b828110156113b95760405162461bcd60e51b815260206004820152601260248201527f4e6f7420656e6f75676820546f6b656e7321000000000000000000000000000060448201526064016106d5565b6113c33384611f4e565b6113d1600680546001019055565b60006113dc60065490565b6040805160e0810182528281523360208083019182528284018981526060840188815260006080860181815260a087018281528851808a018a52600f81527f546f6b656e732052656465656d656400000000000000000000000000000000008188015260c089019081528a845260099096529790912086518155945160018601805473ffffffffffffffffffffffffffffffffffffffff19166001600160a01b0390921691909117905591516002850155516003840155516004830155925160058201805460ff191691151591909117905591519293509160068201906114c39082612724565b5050604080518381523360208201529081018690526060810184905260006080820181905260a082015260e060c08201819052600f908201527f546f6b656e732052656465656d656400000000000000000000000000000000006101008201527f0e0f276cc633ffe267793e0cd80b6e766490d5913bc83a7664b6d2d50972a43291506101200160405180910390a1336000908152600a6020526040812080548692906115719084906126ad565b90915550600195945050505050565b60003361066e818585611cb5565b6060600061159b60065490565b9050600060015b8281116115ed576000818152600960205260409020600101546001600160a01b038087169116036115db57816115d7816128ee565b9250505b806115e5816128ee565b9150506115a2565b5060008167ffffffffffffffff811115611609576116096126c0565b60405190808252806020026020018201604052801561168557816020015b6116726040518060e001604052806000815260200160006001600160a01b03168152602001600081526020016000815260200160008152602001600015158152602001606081525090565b8152602001906001900390816116275790505b509050600060015b8481116117f1576000818152600960205260409020600101546001600160a01b038089169116036117df57600081815260096020908152604091829020825160e0810184528154815260018201546001600160a01b0316928101929092526002810154928201929092526003820154606082015260048201546080820152600582015460ff16151560a0820152600682018054839160c08401916117309061264a565b80601f016020809104026020016040519081016040528092919081815260200182805461175c9061264a565b80156117a95780601f1061177e576101008083540402835291602001916117a9565b820191906000526020600020905b81548152906001019060200180831161178c57829003601f168201915b5050505050815250508484815181106117c4576117c4612907565b602002602001018190525082806117da906128ee565b935050505b806117e9816128ee565b91505061168d565b509095945050505050565b3360009081527fd8ef4509105c3edb0b04658b4528edc5ddd30ea5a81e623a2623c88db1eb54b6602052604090205460ff168061186757503360009081527f05b8ccbb9d4d8fb16ea74ce3c29a41f1b461fbdaff4714a0d9a8eb05499746bc602052604090205460ff165b6118b35760405162461bcd60e51b815260206004820152601c60248201527f596f7520646f6e277420686176652061646d696e20726967687473210000000060448201526064016106d5565b610aba7f43f25613eb2f15fb17222a5d424ca2655743e71265d98e4b93c05e5fb589ecde82611eac565b3360009081527fd8ef4509105c3edb0b04658b4528edc5ddd30ea5a81e623a2623c88db1eb54b6602052604081205460ff168061194857503360009081527f05b8ccbb9d4d8fb16ea74ce3c29a41f1b461fbdaff4714a0d9a8eb05499746bc602052604090205460ff165b6119945760405162461bcd60e51b815260206004820152601c60248201527f596f7520646f6e277420686176652061646d696e20726967687473210000000060448201526064016106d5565b6001600160a01b038316611a105760405162461bcd60e51b815260206004820152602860248201527f43616e6e6f74206275726e20746f6b656e732066726f6d20746865207a65726f60448201527f206164647265737300000000000000000000000000000000000000000000000060648201526084016106d5565b611a1a8383611f4e565b50600192915050565b600082815260056020526040902060010154611a3e81611ea2565b610b068383611ba0565b6001600160a01b038316611ac35760405162461bcd60e51b8152602060048201526024808201527f45524332303a20617070726f76652066726f6d20746865207a65726f2061646460448201527f726573730000000000000000000000000000000000000000000000000000000060648201526084016106d5565b6001600160a01b038216611b3f5760405162461bcd60e51b815260206004820152602260248201527f45524332303a20617070726f766520746f20746865207a65726f20616464726560448201527f737300000000000000000000000000000000000000000000000000000000000060648201526084016106d5565b6001600160a01b0383811660008181526001602090815260408083209487168084529482529182902085905590518481527f8c5be1e5ebec7d5bd14f71427d1e84f3dd0314c0f7b2291e5b200ac8c7c3b925910160405180910390a3505050565b60008281526005602090815260408083206001600160a01b038516845290915290205460ff1615610b935760008281526005602090815260408083206001600160a01b0385168085529252808320805460ff1916905551339285917ff6391f5c32d9c69d2a47ea670b442974b53935d1edc7fd64eb21e047a839171b9190a45050565b6001600160a01b038381166000908152600160209081526040808320938616835292905220546000198114611caf5781811015611ca25760405162461bcd60e51b815260206004820152601d60248201527f45524332303a20696e73756666696369656e7420616c6c6f77616e636500000060448201526064016106d5565b611caf8484848403611a48565b50505050565b6001600160a01b038316611d315760405162461bcd60e51b815260206004820152602560248201527f45524332303a207472616e736665722066726f6d20746865207a65726f20616460448201527f647265737300000000000000000000000000000000000000000000000000000060648201526084016106d5565b6001600160a01b038216611dad5760405162461bcd60e51b815260206004820152602360248201527f45524332303a207472616e7366657220746f20746865207a65726f206164647260448201527f657373000000000000000000000000000000000000000000000000000000000060648201526084016106d5565b6001600160a01b03831660009081526020819052604090205481811015611e3c5760405162461bcd60e51b815260206004820152602660248201527f45524332303a207472616e7366657220616d6f756e742065786365656473206260448201527f616c616e6365000000000000000000000000000000000000000000000000000060648201526084016106d5565b6001600160a01b03848116600081815260208181526040808320878703905593871680835291849020805487019055925185815290927fddf252ad1be2c89b69c2b068fc378daa952ba7f163c4a11628f55a4df523b3ef910160405180910390a3611caf565b610aba8133612176565b60008281526005602090815260408083206001600160a01b038516845290915290205460ff16610b935760008281526005602090815260408083206001600160a01b03851684529091529020805460ff19166001179055611f0a3390565b6001600160a01b0316816001600160a01b0316837f2f8788117e7eff1d82e926ec794901d17c78024a50270940304540a733656f0d60405160405180910390a45050565b6001600160a01b038216611fca5760405162461bcd60e51b815260206004820152602160248201527f45524332303a206275726e2066726f6d20746865207a65726f2061646472657360448201527f730000000000000000000000000000000000000000000000000000000000000060648201526084016106d5565b6001600160a01b038216600090815260208190526040902054818110156120595760405162461bcd60e51b815260206004820152602260248201527f45524332303a206275726e20616d6f756e7420657863656564732062616c616e60448201527f636500000000000000000000000000000000000000000000000000000000000060648201526084016106d5565b6001600160a01b0383166000818152602081815260408083208686039055600280548790039055518581529192917fddf252ad1be2c89b69c2b068fc378daa952ba7f163c4a11628f55a4df523b3ef910160405180910390a3505050565b6001600160a01b03821661210d5760405162461bcd60e51b815260206004820152601f60248201527f45524332303a206d696e7420746f20746865207a65726f20616464726573730060448201526064016106d5565b806002600082825461211f919061269a565b90915550506001600160a01b038216600081815260208181526040808320805486019055518481527fddf252ad1be2c89b69c2b068fc378daa952ba7f163c4a11628f55a4df523b3ef910160405180910390a35050565b60008281526005602090815260408083206001600160a01b038516845290915290205460ff16610b93576121a9816121eb565b6121b48360206121fd565b6040516020016121c592919061291d565b60408051601f198184030181529082905262461bcd60e51b82526106d591600401612477565b60606105c86001600160a01b03831660145b6060600061220c8360026128d7565b61221790600261269a565b67ffffffffffffffff81111561222f5761222f6126c0565b6040519080825280601f01601f191660200182016040528015612259576020820181803683370190505b5090507f30000000000000000000000000000000000000000000000000000000000000008160008151811061229057612290612907565b60200101906001600160f81b031916908160001a9053507f7800000000000000000000000000000000000000000000000000000000000000816001815181106122db576122db612907565b60200101906001600160f81b031916908160001a90535060006122ff8460026128d7565b61230a90600161269a565b90505b600181111561238f577f303132333435363738396162636465660000000000000000000000000000000085600f166010811061234b5761234b612907565b1a60f81b82828151811061236157612361612907565b60200101906001600160f81b031916908160001a90535060049490941c936123888161299e565b905061230d565b5083156123de5760405162461bcd60e51b815260206004820181905260248201527f537472696e67733a20686578206c656e67746820696e73756666696369656e7460448201526064016106d5565b9392505050565b6000602082840312156123f757600080fd5b81357fffffffff00000000000000000000000000000000000000000000000000000000811681146123de57600080fd5b60005b8381101561244257818101518382015260200161242a565b50506000910152565b60008151808452612463816020860160208601612427565b601f01601f19169290920160200192915050565b6020815260006123de602083018461244b565b80356001600160a01b03811681146124a157600080fd5b919050565b600080604083850312156124b957600080fd5b6124c28361248a565b946020939093013593505050565b6000602082840312156124e257600080fd5b5035919050565b6000602082840312156124fb57600080fd5b6123de8261248a565b60008060006060848603121561251957600080fd5b6125228461248a565b92506125306020850161248a565b9150604084013590509250925092565b6000806040838503121561255357600080fd5b823591506125636020840161248a565b90509250929050565b60006020808301818452808551808352604092508286019150828160051b87010184880160005b8381101561261257888303603f19018552815180518452878101516001600160a01b0316888501528681015187850152606080820151908501526080808201519085015260a08082015115159085015260c09081015160e0918501829052906125fe8186018361244b565b968901969450505090860190600101612593565b509098975050505050505050565b6000806040838503121561263357600080fd5b61263c8361248a565b91506125636020840161248a565b600181811c9082168061265e57607f821691505b60208210810361267e57634e487b7160e01b600052602260045260246000fd5b50919050565b634e487b7160e01b600052601160045260246000fd5b808201808211156105c8576105c8612684565b818103818111156105c8576105c8612684565b634e487b7160e01b600052604160045260246000fd5b601f821115610b0657600081815260208120601f850160051c810160208610156126fd5750805b601f850160051c820191505b8181101561271c57828155600101612709565b505050505050565b815167ffffffffffffffff81111561273e5761273e6126c0565b6127528161274c845461264a565b846126d6565b602080601f831160018114612787576000841561276f5750858301515b600019600386901b1c1916600185901b17855561271c565b600085815260208120601f198616915b828110156127b657888601518255948401946001909101908401612797565b50858210156127d45787850151600019600388901b60f8161c191681555b5050505050600190811b01905550565b600181815b8085111561281f57816000190482111561280557612805612684565b8085161561281257918102915b93841c93908002906127e9565b509250929050565b600082612836575060016105c8565b81612843575060006105c8565b816001811461285957600281146128635761287f565b60019150506105c8565b60ff84111561287457612874612684565b50506001821b6105c8565b5060208310610133831016604e8410600b84101617156128a2575081810a6105c8565b6128ac83836127e4565b80600019048211156128c0576128c0612684565b029392505050565b60006123de60ff841683612827565b80820281158282048414176105c8576105c8612684565b60006001820161290057612900612684565b5060010190565b634e487b7160e01b600052603260045260246000fd5b7f416363657373436f6e74726f6c3a206163636f756e7420000000000000000000815260008351612955816017850160208801612427565b7f206973206d697373696e6720726f6c65200000000000000000000000000000006017918401918201528351612992816028840160208801612427565b01602801949350505050565b6000816129ad576129ad612684565b50600019019056fea2646970667358221220193b7ce9a77488f8c7c1ba7ab06628156bf17682f9a46d94de6994816688666464736f6c63430008130033",
  "linkReferences": {},
  "deployedLinkReferences": {}
}