{
  "_format": "hh-sol-artifact-1",
  "contractName": "LoyaltyToken",
  "sourceName": "contracts/LoyaltyToken.sol",
  "abi": [
    {
      "inputs": [],
      "stateMutability": "nonpayable",
      "type": "constructor"
    },
    {
      "anonymous": false,
      "inputs": [
        {
          "indexed": true,
          "internalType": "address",
          "name": "owner",
          "type": "address"
        },
        {
          "indexed": true,
          "internalType": "address",
          "name": "spender",
          "type": "address"
        },
        {
          "indexed": false,
          "internalType": "uint256",
          "name": "value",
          "type": "uint256"
        }
      ],
      "name": "Approval",
      "type": "event"
    },
    {
      "anonymous": false,
      "inputs": [
        {
          "indexed": true,
          "internalType": "bytes32",
          "name": "role",
          "type": "bytes32"
        },
        {
          "indexed": true,
          "internalType": "bytes32",
          "name": "previousAdminRole",
          "type": "bytes32"
        },
        {
          "indexed": true,
          "internalType": "bytes32",
          "name": "newAdminRole",
          "type": "bytes32"
        }
      ],
      "name": "RoleAdminChanged",
      "type": "event"
    },
    {
      "anonymous": false,
      "inputs": [
        {
          "indexed": true,
          "internalType": "bytes32",
          "name": "role",
          "type": "bytes32"
        },
        {
          "indexed": true,
          "internalType": "address",
          "name": "account",
          "type": "address"
        },
        {
          "indexed": true,
          "internalType": "address",
          "name": "sender",
          "type": "address"
        }
      ],
      "name": "RoleGranted",
      "type": "event"
    },
    {
      "anonymous": false,
      "inputs": [
        {
          "indexed": true,
          "internalType": "bytes32",
          "name": "role",
          "type": "bytes32"
        },
        {
          "indexed": true,
          "internalType": "address",
          "name": "account",
          "type": "address"
        },
        {
          "indexed": true,
          "internalType": "address",
          "name": "sender",
          "type": "address"
        }
      ],
      "name": "RoleRevoked",
      "type": "event"
    },
    {
      "anonymous": false,
      "inputs": [
        {
          "indexed": true,
          "internalType": "address",
          "name": "from",
          "type": "address"
        },
        {
          "indexed": true,
          "internalType": "address",
          "name": "to",
          "type": "address"
        },
        {
          "indexed": false,
          "internalType": "uint256",
          "name": "value",
          "type": "uint256"
        }
      ],
      "name": "Transfer",
      "type": "event"
    },
    {
      "anonymous": false,
      "inputs": [
        {
          "indexed": false,
          "internalType": "uint256",
          "name": "totalAmount",
          "type": "uint256"
        },
        {
          "components": [
            {
              "internalType": "uint256",
              "name": "transactionId",
              "type": "uint256"
            },
            {
              "internalType": "address",
              "name": "customer",
              "type": "address"
            },
            {
              "internalType": "uint256",
              "name": "amount",
              "type": "uint256"
            },
            {
              "internalType": "uint256",
              "name": "validTill",
              "type": "uint256"
            },
            {
              "internalType": "bool",
              "name": "isCredit",
              "type": "bool"
            },
            {
              "internalType": "string",
              "name": "detail",
              "type": "string"
            }
          ],
          "indexed": false,
          "internalType": "struct LoyaltyToken.transaction[]",
          "name": "",
          "type": "tuple[]"
        }
      ],
      "name": "fetchAll",
      "type": "event"
    },
    {
      "anonymous": false,
      "inputs": [
        {
          "indexed": false,
          "internalType": "uint256",
          "name": "transactionId",
          "type": "uint256"
        },
        {
          "indexed": false,
          "internalType": "address",
          "name": "customer",
          "type": "address"
        },
        {
          "indexed": false,
          "internalType": "uint256",
          "name": "amount",
          "type": "uint256"
        },
        {
          "indexed": false,
          "internalType": "uint256",
          "name": "validTill",
          "type": "uint256"
        },
        {
          "indexed": false,
          "internalType": "bool",
          "name": "isCredit",
          "type": "bool"
        },
        {
          "indexed": false,
          "internalType": "string",
          "name": "detail",
          "type": "string"
        }
      ],
      "name": "tokenMinted",
      "type": "event"
    },
    {
      "inputs": [],
      "name": "ADMIN_ROLE",
      "outputs": [
        {
          "internalType": "bytes32",
          "name": "",
          "type": "bytes32"
        }
      ],
      "stateMutability": "view",
      "type": "function"
    },
    {
      "inputs": [],
      "name": "DEFAULT_ADMIN_ROLE",
      "outputs": [
        {
          "internalType": "bytes32",
          "name": "",
          "type": "bytes32"
        }
      ],
      "stateMutability": "view",
      "type": "function"
    },
    {
      "inputs": [],
      "name": "SELLER_ROLE",
      "outputs": [
        {
          "internalType": "bytes32",
          "name": "",
          "type": "bytes32"
        }
      ],
      "stateMutability": "view",
      "type": "function"
    },
    {
      "inputs": [
        {
          "internalType": "address",
          "name": "owner",
          "type": "address"
        },
        {
          "internalType": "address",
          "name": "spender",
          "type": "address"
        }
      ],
      "name": "allowance",
      "outputs": [
        {
          "internalType": "uint256",
          "name": "",
          "type": "uint256"
        }
      ],
      "stateMutability": "view",
      "type": "function"
    },
    {
      "inputs": [
        {
          "internalType": "address",
          "name": "spender",
          "type": "address"
        },
        {
          "internalType": "uint256",
          "name": "amount",
          "type": "uint256"
        }
      ],
      "name": "approve",
      "outputs": [
        {
          "internalType": "bool",
          "name": "",
          "type": "bool"
        }
      ],
      "stateMutability": "nonpayable",
      "type": "function"
    },
    {
      "inputs": [
        {
          "internalType": "address",
          "name": "_to",
          "type": "address"
        }
      ],
      "name": "assignAdmin",
      "outputs": [],
      "stateMutability": "nonpayable",
      "type": "function"
    },
    {
      "inputs": [
        {
          "internalType": "address",
          "name": "_to",
          "type": "address"
        }
      ],
      "name": "assignSeller",
      "outputs": [],
      "stateMutability": "nonpayable",
      "type": "function"
    },
    {
      "inputs": [
        {
          "internalType": "address",
          "name": "account",
          "type": "address"
        }
      ],
      "name": "balanceOf",
      "outputs": [
        {
          "internalType": "uint256",
          "name": "",
          "type": "uint256"
        }
      ],
      "stateMutability": "view",
      "type": "function"
    },
    {
      "inputs": [
        {
          "internalType": "uint256",
          "name": "amount",
          "type": "uint256"
        }
      ],
      "name": "burn",
      "outputs": [],
      "stateMutability": "nonpayable",
      "type": "function"
    },
    {
      "inputs": [
        {
          "internalType": "address",
          "name": "account",
          "type": "address"
        },
        {
          "internalType": "uint256",
          "name": "amount",
          "type": "uint256"
        }
      ],
      "name": "burnFrom",
      "outputs": [],
      "stateMutability": "nonpayable",
      "type": "function"
    },
    {
      "inputs": [
        {
          "internalType": "address",
          "name": "from",
          "type": "address"
        },
        {
          "internalType": "uint256",
          "name": "amount",
          "type": "uint256"
        }
      ],
      "name": "burnToken",
      "outputs": [
        {
          "internalType": "bool",
          "name": "",
          "type": "bool"
        }
      ],
      "stateMutability": "nonpayable",
      "type": "function"
    },
    {
      "inputs": [],
      "name": "decimals",
      "outputs": [
        {
          "internalType": "uint8",
          "name": "",
          "type": "uint8"
        }
      ],
      "stateMutability": "view",
      "type": "function"
    },
    {
      "inputs": [
        {
          "internalType": "address",
          "name": "spender",
          "type": "address"
        },
        {
          "internalType": "uint256",
          "name": "subtractedValue",
          "type": "uint256"
        }
      ],
      "name": "decreaseAllowance",
      "outputs": [
        {
          "internalType": "bool",
          "name": "",
          "type": "bool"
        }
      ],
      "stateMutability": "nonpayable",
      "type": "function"
    },
    {
      "inputs": [
        {
          "internalType": "address",
          "name": "_customer",
          "type": "address"
        }
      ],
      "name": "fetchTransactions",
      "outputs": [
        {
          "components": [
            {
              "internalType": "uint256",
              "name": "transactionId",
              "type": "uint256"
            },
            {
              "internalType": "address",
              "name": "customer",
              "type": "address"
            },
            {
              "internalType": "uint256",
              "name": "amount",
              "type": "uint256"
            },
            {
              "internalType": "uint256",
              "name": "validTill",
              "type": "uint256"
            },
            {
              "internalType": "bool",
              "name": "isCredit",
              "type": "bool"
            },
            {
              "internalType": "string",
              "name": "detail",
              "type": "string"
            }
          ],
          "internalType": "struct LoyaltyToken.transaction[]",
          "name": "",
          "type": "tuple[]"
        }
      ],
      "stateMutability": "view",
      "type": "function"
    },
    {
      "inputs": [
        {
          "internalType": "address",
          "name": "_customer",
          "type": "address"
        }
      ],
      "name": "fetchValidTransactions",
      "outputs": [
        {
          "internalType": "uint256",
          "name": "",
          "type": "uint256"
        }
      ],
      "stateMutability": "nonpayable",
      "type": "function"
    },
    {
      "inputs": [
        {
          "internalType": "bytes32",
          "name": "role",
          "type": "bytes32"
        }
      ],
      "name": "getRoleAdmin",
      "outputs": [
        {
          "internalType": "bytes32",
          "name": "",
          "type": "bytes32"
        }
      ],
      "stateMutability": "view",
      "type": "function"
    },
    {
      "inputs": [
        {
          "internalType": "bytes32",
          "name": "role",
          "type": "bytes32"
        },
        {
          "internalType": "address",
          "name": "account",
          "type": "address"
        }
      ],
      "name": "grantRole",
      "outputs": [],
      "stateMutability": "nonpayable",
      "type": "function"
    },
    {
      "inputs": [
        {
          "internalType": "bytes32",
          "name": "role",
          "type": "bytes32"
        },
        {
          "internalType": "address",
          "name": "account",
          "type": "address"
        }
      ],
      "name": "hasRole",
      "outputs": [
        {
          "internalType": "bool",
          "name": "",
          "type": "bool"
        }
      ],
      "stateMutability": "view",
      "type": "function"
    },
    {
      "inputs": [
        {
          "internalType": "address",
          "name": "spender",
          "type": "address"
        },
        {
          "internalType": "uint256",
          "name": "addedValue",
          "type": "uint256"
        }
      ],
      "name": "increaseAllowance",
      "outputs": [
        {
          "internalType": "bool",
          "name": "",
          "type": "bool"
        }
      ],
      "stateMutability": "nonpayable",
      "type": "function"
    },
    {
      "inputs": [
        {
          "internalType": "uint256",
          "name": "amount",
          "type": "uint256"
        }
      ],
      "name": "mint",
      "outputs": [
        {
          "internalType": "bool",
          "name": "",
          "type": "bool"
        }
      ],
      "stateMutability": "nonpayable",
      "type": "function"
    },
    {
      "inputs": [
        {
          "internalType": "address",
          "name": "to",
          "type": "address"
        },
        {
          "internalType": "uint256",
          "name": "amount",
          "type": "uint256"
        }
      ],
      "name": "mintTo",
      "outputs": [
        {
          "internalType": "bool",
          "name": "",
          "type": "bool"
        }
      ],
      "stateMutability": "nonpayable",
      "type": "function"
    },
    {
      "inputs": [],
      "name": "name",
      "outputs": [
        {
          "internalType": "string",
          "name": "",
          "type": "string"
        }
      ],
      "stateMutability": "view",
      "type": "function"
    },
    {
      "inputs": [
        {
          "internalType": "uint256",
          "name": "amount",
          "type": "uint256"
        }
      ],
      "name": "redeemTokens",
      "outputs": [
        {
          "internalType": "bool",
          "name": "",
          "type": "bool"
        }
      ],
      "stateMutability": "nonpayable",
      "type": "function"
    },
    {
      "inputs": [
        {
          "internalType": "address",
          "name": "_from",
          "type": "address"
        }
      ],
      "name": "removeAdmin",
      "outputs": [],
      "stateMutability": "nonpayable",
      "type": "function"
    },
    {
      "inputs": [
        {
          "internalType": "address",
          "name": "_from",
          "type": "address"
        }
      ],
      "name": "removeSeller",
      "outputs": [],
      "stateMutability": "nonpayable",
      "type": "function"
    },
    {
      "inputs": [
        {
          "internalType": "bytes32",
          "name": "role",
          "type": "bytes32"
        },
        {
          "internalType": "address",
          "name": "account",
          "type": "address"
        }
      ],
      "name": "renounceRole",
      "outputs": [],
      "stateMutability": "nonpayable",
      "type": "function"
    },
    {
      "inputs": [
        {
          "internalType": "bytes32",
          "name": "role",
          "type": "bytes32"
        },
        {
          "internalType": "address",
          "name": "account",
          "type": "address"
        }
      ],
      "name": "revokeRole",
      "outputs": [],
      "stateMutability": "nonpayable",
      "type": "function"
    },
    {
      "inputs": [
        {
          "internalType": "bytes4",
          "name": "interfaceId",
          "type": "bytes4"
        }
      ],
      "name": "supportsInterface",
      "outputs": [
        {
          "internalType": "bool",
          "name": "",
          "type": "bool"
        }
      ],
      "stateMutability": "view",
      "type": "function"
    },
    {
      "inputs": [],
      "name": "symbol",
      "outputs": [
        {
          "internalType": "string",
          "name": "",
          "type": "string"
        }
      ],
      "stateMutability": "view",
      "type": "function"
    },
    {
      "inputs": [],
      "name": "totalSupply",
      "outputs": [
        {
          "internalType": "uint256",
          "name": "",
          "type": "uint256"
        }
      ],
      "stateMutability": "view",
      "type": "function"
    },
    {
      "inputs": [
        {
          "internalType": "address",
          "name": "to",
          "type": "address"
        },
        {
          "internalType": "uint256",
          "name": "amount",
          "type": "uint256"
        }
      ],
      "name": "transfer",
      "outputs": [
        {
          "internalType": "bool",
          "name": "",
          "type": "bool"
        }
      ],
      "stateMutability": "nonpayable",
      "type": "function"
    },
    {
      "inputs": [
        {
          "internalType": "address",
          "name": "from",
          "type": "address"
        },
        {
          "internalType": "address",
          "name": "to",
          "type": "address"
        },
        {
          "internalType": "uint256",
          "name": "amount",
          "type": "uint256"
        }
      ],
      "name": "transferFrom",
      "outputs": [
        {
          "internalType": "bool",
          "name": "",
          "type": "bool"
        }
      ],
      "stateMutability": "nonpayable",
      "type": "function"
    },
    {
      "inputs": [
        {
          "internalType": "uint256",
          "name": "transactionId",
          "type": "uint256"
        }
      ],
      "name": "validateTokens",
      "outputs": [
        {
          "internalType": "bool",
          "name": "",
          "type": "bool"
        }
      ],
      "stateMutability": "nonpayable",
      "type": "function"
    }
  ],
  "bytecode": "0x60806040523480156200001157600080fd5b506040518060400160405280600e81526020016d4c6f79616c747920546f6b656e7360901b81525060405180604001604052806002815260200161444560f01b815250816003908162000065919062000307565b50600462000074828262000307565b5050600780546001600160a01b031916339081179091556101f4600855620000c19150620000a0601290565b620000ad90600a620004e6565b620000bb906103e8620004fe565b620000d4565b620000ce6000336200019b565b6200052e565b6001600160a01b0382166200012f5760405162461bcd60e51b815260206004820152601f60248201527f45524332303a206d696e7420746f20746865207a65726f206164647265737300604482015260640160405180910390fd5b806002600082825462000143919062000518565b90915550506001600160a01b038216600081815260208181526040808320805486019055518481527fddf252ad1be2c89b69c2b068fc378daa952ba7f163c4a11628f55a4df523b3ef910160405180910390a35b5050565b620001978282620001ac565b505050565b620001b8828262000236565b620001975760008281526005602090815260408083206001600160a01b03851684529091529020805460ff19166001179055620001f23390565b6001600160a01b0316816001600160a01b0316837f2f8788117e7eff1d82e926ec794901d17c78024a50270940304540a733656f0d60405160405180910390a45050565b60008281526005602090815260408083206001600160a01b038516845290915290205460ff165b92915050565b634e487b7160e01b600052604160045260246000fd5b600181811c908216806200028e57607f821691505b602082108103620002af57634e487b7160e01b600052602260045260246000fd5b50919050565b601f821115620001a757600081815260208120601f850160051c81016020861015620002de5750805b601f850160051c820191505b81811015620002ff57828155600101620002ea565b505050505050565b81516001600160401b0381111562000323576200032362000263565b6200033b8162000334845462000279565b84620002b5565b602080601f8311600181146200037357600084156200035a5750858301515b600019600386901b1c1916600185901b178555620002ff565b600085815260208120601f198616915b82811015620003a45788860151825594840194600190910190840162000383565b5085821015620003c35787850151600019600388901b60f8161c191681555b5050505050600190811b01905550565b634e487b7160e01b600052601160045260246000fd5b600181815b808511156200042a5781600019048211156200040e576200040e620003d3565b808516156200041c57918102915b93841c9390800290620003ee565b509250929050565b60008262000443575060016200025d565b8162000452575060006200025d565b81600181146200046b5760028114620004765762000496565b60019150506200025d565b60ff8411156200048a576200048a620003d3565b50506001821b6200025d565b5060208310610133831016604e8410600b8410161715620004bb575081810a6200025d565b620004c78383620003e9565b8060001904821115620004de57620004de620003d3565b029392505050565b6000620004f760ff84168362000432565b9392505050565b80820281158282048414176200025d576200025d620003d3565b808201808211156200025d576200025d620003d3565b612ae7806200053e6000396000f3fe608060405234801561001057600080fd5b506004361061020b5760003560e01c806370a082311161012a578063a457c2d7116100bd578063bc7ff2741161008c578063d547741f11610071578063d547741f146104b9578063dbe4613d146104cc578063dd62ed3e146104f357600080fd5b8063bc7ff27414610493578063d1df306c146104a657600080fd5b8063a457c2d71461043a578063a6e158f81461044d578063a9059cbb14610460578063ba9dfc611461047357600080fd5b806391d14854116100f957806391d14854146103de57806395d89b4114610417578063a0712d681461041f578063a217fddf1461043257600080fd5b806370a082311461036857806375b238fc1461039157806379cc6790146103b85780637cb9cf54146103cb57600080fd5b8063248a9ca3116101a25780633950935111610171578063395093511461031c5780633da7d2ed1461032f57806342966c6814610342578063449a52f81461035557600080fd5b8063248a9ca3146102c45780632f2ff15d146102e7578063313ce567146102fa57806336568abe1461030957600080fd5b80631141848a116101de5780631141848a146102815780631785f53c1461029457806318160ddd146102a957806323b872dd146102b157600080fd5b806301ffc9a71461021057806306fdde0314610238578063095ea7b31461024d5780631126373a14610260575b600080fd5b61022361021e3660046124c3565b61052c565b60405190151581526020015b60405180910390f35b6102406105c5565b60405161022f9190612555565b61022361025b366004612584565b610657565b61027361026e3660046125ae565b61066f565b60405190815260200161022f565b61022361028f3660046125c9565b6108ad565b6102a76102a23660046125ae565b610928565b005b600254610273565b6102236102bf3660046125e2565b610a72565b6102736102d23660046125c9565b60009081526005602052604090206001015490565b6102a76102f536600461261e565b610a96565b6040516012815260200161022f565b6102a761031736600461261e565b610ac0565b61022361032a366004612584565b610b4c565b6102a761033d3660046125ae565b610b8b565b6102a76103503660046125c9565b610c46565b610223610363366004612584565b610c50565b6102736103763660046125ae565b6001600160a01b031660009081526020819052604090205490565b6102737fa49807205ce4d355092ef5a8a18f56e8913cf4a201fbe287825b095693c2177581565b6102a76103c6366004612584565b610faf565b6102a76103d93660046125ae565b610fc4565b6102236103ec36600461261e565b60009182526005602090815260408084206001600160a01b0393909316845291905290205460ff1690565b61024061112c565b61022361042d3660046125c9565b61113b565b610273600081565b610223610448366004612584565b611206565b61022361045b3660046125c9565b6112b0565b61022361046e366004612584565b6114eb565b6104866104813660046125ae565b6114f9565b60405161022f91906126e8565b6102a76104a13660046125ae565b611756565b6102236104b4366004612584565b611837565b6102a76104c736600461261e565b611b01565b6102737f43f25613eb2f15fb17222a5d424ca2655743e71265d98e4b93c05e5fb589ecde81565b6102736105013660046126fb565b6001600160a01b03918216600090815260016020908152604080832093909416825291909152205490565b60007fffffffff0000000000000000000000000000000000000000000000000000000082167f7965db0b0000000000000000000000000000000000000000000000000000000014806105bf57507f01ffc9a7000000000000000000000000000000000000000000000000000000007fffffffff000000000000000000000000000000000000000000000000000000008316145b92915050565b6060600380546105d490612725565b80601f016020809104026020016040519081016040528092919081815260200182805461060090612725565b801561064d5780601f106106225761010080835404028352916020019161064d565b820191906000526020600020905b81548152906001019060200180831161063057829003601f168201915b5050505050905090565b600033610665818585611b26565b5060019392505050565b60008061067b836114f9565b905060008060005b83518110156106d7576106b28482815181106106a1576106a161275f565b6020026020010151600001516108ad565b156106c557826106c18161278b565b9350505b806106cf8161278b565b915050610683565b5060008267ffffffffffffffff8111156106f3576106f36127a4565b60405190808252806020026020018201604052801561076857816020015b6107556040518060c001604052806000815260200160006001600160a01b031681526020016000815260200160008152602001600015158152602001606081525090565b8152602001906001900390816107115790505b5090506000805b85518110156108685761078d8682815181106106a1576106a161275f565b15610856578581815181106107a4576107a461275f565b60200260200101518383815181106107be576107be61275f565b602002602001018190525081806107d49061278b565b9250508282815181106107e9576107e961275f565b6020026020010151608001511561082a5782828151811061080c5761080c61275f565b6020026020010151604001518461082391906127ba565b9350610856565b82828151811061083c5761083c61275f565b6020026020010151604001518461085391906127cd565b93505b806108608161278b565b91505061076f565b507f235e47e3245eb2e122e3cfd0ced22bf37fbfac020ee9f6ba67afbdfc9f978757838360405161089a9291906127e0565b60405180910390a1509095945050505050565b60008181526009602052604081206003015442908082111561066557600084815260096020526040902060018101546002909101546108f5916001600160a01b031690611837565b505050600091825250600960205260408120600101805473ffffffffffffffffffffffffffffffffffffffff1916905590565b6001600160a01b03811660009081527fd8ef4509105c3edb0b04658b4528edc5ddd30ea5a81e623a2623c88db1eb54b6602052604090205460ff166109b45760405162461bcd60e51b815260206004820152601b60248201527f41646d696e2072696768747320646f65736e277420657869737473000000000060448201526064015b60405180910390fd5b3360009081527f05b8ccbb9d4d8fb16ea74ce3c29a41f1b461fbdaff4714a0d9a8eb05499746bc602052604090205460ff16610a455760405162461bcd60e51b815260206004820152602a60248201527f4f6e6c792044656661756c742041646d696e2063616e207265766f6b652041646044820152696d696e2052696768747360b01b60648201526084016109ab565b610a6f7fa49807205ce4d355092ef5a8a18f56e8913cf4a201fbe287825b095693c2177582611c7e565b50565b600033610a80858285611d01565b610a8b858585611d93565b506001949350505050565b600082815260056020526040902060010154610ab181611f80565b610abb8383611f8a565b505050565b6001600160a01b0381163314610b3e5760405162461bcd60e51b815260206004820152602f60248201527f416363657373436f6e74726f6c3a2063616e206f6e6c792072656e6f756e636560448201527f20726f6c657320666f722073656c66000000000000000000000000000000000060648201526084016109ab565b610b488282611c7e565b5050565b3360008181526001602090815260408083206001600160a01b03871684529091528120549091906106659082908690610b869087906127ba565b611b26565b3360009081527f05b8ccbb9d4d8fb16ea74ce3c29a41f1b461fbdaff4714a0d9a8eb05499746bc602052604090205460ff16610c1c5760405162461bcd60e51b815260206004820152602a60248201527f4f6e6c792044656661756c742041646d696e2063616e2061737369676e2041646044820152696d696e2052696768747360b01b60648201526084016109ab565b610a6f7fa49807205ce4d355092ef5a8a18f56e8913cf4a201fbe287825b095693c2177582611f8a565b610a6f338261202c565b3360009081527f9adf02c4c7cfbfab2a0872ace1bf79ea4d72ff11554aea838928a0dcdeb1e5a0602052604081205460ff1680610cbb57503360009081527fd8ef4509105c3edb0b04658b4528edc5ddd30ea5a81e623a2623c88db1eb54b6602052604090205460ff165b80610cf457503360009081527f05b8ccbb9d4d8fb16ea74ce3c29a41f1b461fbdaff4714a0d9a8eb05499746bc602052604090205460ff165b610d665760405162461bcd60e51b815260206004820152602860248201527f596f7520646f6e27742068617665207468652072696768747320746f206d696e60448201527f7420546f6b656e7300000000000000000000000000000000000000000000000060648201526084016109ab565b6001600160a01b038316610de25760405162461bcd60e51b815260206004820152602660248201527f43616e6e6f74207472616e7366657220746f6b656e7320746f207a65726f206160448201527f646472657373000000000000000000000000000000000000000000000000000060648201526084016109ab565b610df0600680546001019055565b6000610dfb60065490565b9050610e078484612195565b60004290506040518060c00160405280838152602001866001600160a01b0316815260200185815260200160085483610e4091906127ba565b815260016020808301829052604080518082018252601b81527f546f6b656e20526563696576656420666f72205075726368617365000000000081840152938101939093526000868152600982528390208451815590840151918101805473ffffffffffffffffffffffffffffffffffffffff19166001600160a01b039093169290921790915590820151600282015560608201516003820155608082015160048201805460ff191691151591909117905560a08201516005820190610f06908261284f565b509050507fb6233563c29c51f8f3c90bb4859ac22012a5610d5a26497513ac931e65a9d9e282868660085485610f3c91906127ba565b604080519485526001600160a01b0390931660208501529183015260608201526001608082015260c060a08201819052601c908201527f546f6b656e7320526563696576656420666f722050757263686173650000000060e08201526101000160405180910390a1506001949350505050565b610fba823383611d01565b610b48828261202c565b3360009081527fd8ef4509105c3edb0b04658b4528edc5ddd30ea5a81e623a2623c88db1eb54b6602052604090205460ff168061102f57503360009081527f05b8ccbb9d4d8fb16ea74ce3c29a41f1b461fbdaff4714a0d9a8eb05499746bc602052604090205460ff165b61107b5760405162461bcd60e51b815260206004820152601c60248201527f596f7520646f6e277420686176652061646d696e20726967687473210000000060448201526064016109ab565b6001600160a01b03811660009081527f9adf02c4c7cfbfab2a0872ace1bf79ea4d72ff11554aea838928a0dcdeb1e5a0602052604090205460ff166111025760405162461bcd60e51b815260206004820152601560248201527f53656c6c657220646f65736e277420657869737473000000000000000000000060448201526064016109ab565b610a6f7f43f25613eb2f15fb17222a5d424ca2655743e71265d98e4b93c05e5fb589ecde82611c7e565b6060600480546105d490612725565b3360009081527f05b8ccbb9d4d8fb16ea74ce3c29a41f1b461fbdaff4714a0d9a8eb05499746bc602052604081205460ff166111df5760405162461bcd60e51b815260206004820152602660248201527f4f6e6c792044656661756c742041646d696e2063616e2063726561746520612060448201527f737570706c79000000000000000000000000000000000000000000000000000060648201526084016109ab565b6111fe336111ef6012600a6129f3565b6111f99085612a02565b612195565b506001919050565b3360008181526001602090815260408083206001600160a01b0387168452909152812054909190838110156112a35760405162461bcd60e51b815260206004820152602560248201527f45524332303a2064656372656173656420616c6c6f77616e63652062656c6f7760448201527f207a65726f00000000000000000000000000000000000000000000000000000060648201526084016109ab565b610a8b8286868403611b26565b6000806112bc3361066f565b90506000831161130e5760405162461bcd60e51b815260206004820152601860248201527f546f6b656e732063616e2774206265206e65676174697665000000000000000060448201526064016109ab565b82811161135d5760405162461bcd60e51b815260206004820152601260248201527f4e6f7420656e6f75676820546f6b656e7321000000000000000000000000000060448201526064016109ab565b611367338461202c565b611375600680546001019055565b600061138060065490565b6040805160c0810182528281523360208083019182528284018981526000606085018181526080860182815287518089018952600f81527f546f6b656e732052656465656d656400000000000000000000000000000000008187015260a0880190815289845260099095529690912085518155935160018501805473ffffffffffffffffffffffffffffffffffffffff19166001600160a01b0390921691909117905590516002840155516003830155925160048201805460ff1916911515919091179055915192935091600582019061145a908261284f565b505060408051838152336020820152908101869052600060608201819052608082015260c060a08201819052600f908201527f546f6b656e732052656465656d6564000000000000000000000000000000000060e08201527fb6233563c29c51f8f3c90bb4859ac22012a5610d5a26497513ac931e65a9d9e291506101000160405180910390a15060019392505050565b600033610665818585611d93565b6060600061150660065490565b9050600060015b828111611558576000818152600960205260409020600101546001600160a01b0380871691160361154657816115428161278b565b9250505b806115508161278b565b91505061150d565b5060008167ffffffffffffffff811115611574576115746127a4565b6040519080825280602002602001820160405280156115e957816020015b6115d66040518060c001604052806000815260200160006001600160a01b031681526020016000815260200160008152602001600015158152602001606081525090565b8152602001906001900390816115925790505b509050600060015b84811161174b576000818152600960205260409020600101546001600160a01b0380891691160361173957600081815260096020908152604091829020825160c0810184528154815260018201546001600160a01b03169281019290925260028101549282019290925260038201546060820152600482015460ff1615156080820152600582018054839160a084019161168a90612725565b80601f01602080910402602001604051908101604052809291908181526020018280546116b690612725565b80156117035780601f106116d857610100808354040283529160200191611703565b820191906000526020600020905b8154815290600101906020018083116116e657829003601f168201915b50505050508152505084848151811061171e5761171e61275f565b602002602001018190525082806117349061278b565b935050505b806117438161278b565b9150506115f1565b509095945050505050565b3360009081527fd8ef4509105c3edb0b04658b4528edc5ddd30ea5a81e623a2623c88db1eb54b6602052604090205460ff16806117c157503360009081527f05b8ccbb9d4d8fb16ea74ce3c29a41f1b461fbdaff4714a0d9a8eb05499746bc602052604090205460ff165b61180d5760405162461bcd60e51b815260206004820152601c60248201527f596f7520646f6e277420686176652061646d696e20726967687473210000000060448201526064016109ab565b610a6f7f43f25613eb2f15fb17222a5d424ca2655743e71265d98e4b93c05e5fb589ecde82611f8a565b3360009081527fd8ef4509105c3edb0b04658b4528edc5ddd30ea5a81e623a2623c88db1eb54b6602052604081205460ff16806118a257503360009081527f05b8ccbb9d4d8fb16ea74ce3c29a41f1b461fbdaff4714a0d9a8eb05499746bc602052604090205460ff165b6118ee5760405162461bcd60e51b815260206004820152601c60248201527f596f7520646f6e277420686176652061646d696e20726967687473210000000060448201526064016109ab565b6001600160a01b03831661196a5760405162461bcd60e51b815260206004820152602860248201527f43616e6e6f74206275726e20746f6b656e732066726f6d20746865207a65726f60448201527f206164647265737300000000000000000000000000000000000000000000000060648201526084016109ab565b611974838361202c565b611982600680546001019055565b600061198d60065490565b6040805160c0810182528281526001600160a01b038781166020808401918252838501898152600060608601818152608087018281528851808a018a52600e81527f546f6b656e7320457870697265640000000000000000000000000000000000008187015260a089019081528a845260099095529790912086518155935160018501805473ffffffffffffffffffffffffffffffffffffffff1916919096161790945551600283015591516003820155925160048401805460ff191691151591909117905551929350916005820190611a67908261284f565b5050604080518381526001600160a01b0387166020820152908101859052600060608201819052608082015260c060a08201819052600e908201527f546f6b656e73204578706972656400000000000000000000000000000000000060e08201527fb6233563c29c51f8f3c90bb4859ac22012a5610d5a26497513ac931e65a9d9e291506101000160405180910390a15060019392505050565b600082815260056020526040902060010154611b1c81611f80565b610abb8383611c7e565b6001600160a01b038316611ba15760405162461bcd60e51b8152602060048201526024808201527f45524332303a20617070726f76652066726f6d20746865207a65726f2061646460448201527f726573730000000000000000000000000000000000000000000000000000000060648201526084016109ab565b6001600160a01b038216611c1d5760405162461bcd60e51b815260206004820152602260248201527f45524332303a20617070726f766520746f20746865207a65726f20616464726560448201527f737300000000000000000000000000000000000000000000000000000000000060648201526084016109ab565b6001600160a01b0383811660008181526001602090815260408083209487168084529482529182902085905590518481527f8c5be1e5ebec7d5bd14f71427d1e84f3dd0314c0f7b2291e5b200ac8c7c3b925910160405180910390a3505050565b60008281526005602090815260408083206001600160a01b038516845290915290205460ff1615610b485760008281526005602090815260408083206001600160a01b0385168085529252808320805460ff1916905551339285917ff6391f5c32d9c69d2a47ea670b442974b53935d1edc7fd64eb21e047a839171b9190a45050565b6001600160a01b038381166000908152600160209081526040808320938616835292905220546000198114611d8d5781811015611d805760405162461bcd60e51b815260206004820152601d60248201527f45524332303a20696e73756666696369656e7420616c6c6f77616e636500000060448201526064016109ab565b611d8d8484848403611b26565b50505050565b6001600160a01b038316611e0f5760405162461bcd60e51b815260206004820152602560248201527f45524332303a207472616e736665722066726f6d20746865207a65726f20616460448201527f647265737300000000000000000000000000000000000000000000000000000060648201526084016109ab565b6001600160a01b038216611e8b5760405162461bcd60e51b815260206004820152602360248201527f45524332303a207472616e7366657220746f20746865207a65726f206164647260448201527f657373000000000000000000000000000000000000000000000000000000000060648201526084016109ab565b6001600160a01b03831660009081526020819052604090205481811015611f1a5760405162461bcd60e51b815260206004820152602660248201527f45524332303a207472616e7366657220616d6f756e742065786365656473206260448201527f616c616e6365000000000000000000000000000000000000000000000000000060648201526084016109ab565b6001600160a01b03848116600081815260208181526040808320878703905593871680835291849020805487019055925185815290927fddf252ad1be2c89b69c2b068fc378daa952ba7f163c4a11628f55a4df523b3ef910160405180910390a3611d8d565b610a6f8133612254565b60008281526005602090815260408083206001600160a01b038516845290915290205460ff16610b485760008281526005602090815260408083206001600160a01b03851684529091529020805460ff19166001179055611fe83390565b6001600160a01b0316816001600160a01b0316837f2f8788117e7eff1d82e926ec794901d17c78024a50270940304540a733656f0d60405160405180910390a45050565b6001600160a01b0382166120a85760405162461bcd60e51b815260206004820152602160248201527f45524332303a206275726e2066726f6d20746865207a65726f2061646472657360448201527f730000000000000000000000000000000000000000000000000000000000000060648201526084016109ab565b6001600160a01b038216600090815260208190526040902054818110156121375760405162461bcd60e51b815260206004820152602260248201527f45524332303a206275726e20616d6f756e7420657863656564732062616c616e60448201527f636500000000000000000000000000000000000000000000000000000000000060648201526084016109ab565b6001600160a01b0383166000818152602081815260408083208686039055600280548790039055518581529192917fddf252ad1be2c89b69c2b068fc378daa952ba7f163c4a11628f55a4df523b3ef910160405180910390a3505050565b6001600160a01b0382166121eb5760405162461bcd60e51b815260206004820152601f60248201527f45524332303a206d696e7420746f20746865207a65726f20616464726573730060448201526064016109ab565b80600260008282546121fd91906127ba565b90915550506001600160a01b038216600081815260208181526040808320805486019055518481527fddf252ad1be2c89b69c2b068fc378daa952ba7f163c4a11628f55a4df523b3ef910160405180910390a35050565b60008281526005602090815260408083206001600160a01b038516845290915290205460ff16610b4857612287816122c9565b6122928360206122db565b6040516020016122a3929190612a19565b60408051601f198184030181529082905262461bcd60e51b82526109ab91600401612555565b60606105bf6001600160a01b03831660145b606060006122ea836002612a02565b6122f59060026127ba565b67ffffffffffffffff81111561230d5761230d6127a4565b6040519080825280601f01601f191660200182016040528015612337576020820181803683370190505b5090507f30000000000000000000000000000000000000000000000000000000000000008160008151811061236e5761236e61275f565b60200101906001600160f81b031916908160001a9053507f7800000000000000000000000000000000000000000000000000000000000000816001815181106123b9576123b961275f565b60200101906001600160f81b031916908160001a90535060006123dd846002612a02565b6123e89060016127ba565b90505b600181111561246d577f303132333435363738396162636465660000000000000000000000000000000085600f16601081106124295761242961275f565b1a60f81b82828151811061243f5761243f61275f565b60200101906001600160f81b031916908160001a90535060049490941c9361246681612a9a565b90506123eb565b5083156124bc5760405162461bcd60e51b815260206004820181905260248201527f537472696e67733a20686578206c656e67746820696e73756666696369656e7460448201526064016109ab565b9392505050565b6000602082840312156124d557600080fd5b81357fffffffff00000000000000000000000000000000000000000000000000000000811681146124bc57600080fd5b60005b83811015612520578181015183820152602001612508565b50506000910152565b60008151808452612541816020860160208601612505565b601f01601f19169290920160200192915050565b6020815260006124bc6020830184612529565b80356001600160a01b038116811461257f57600080fd5b919050565b6000806040838503121561259757600080fd5b6125a083612568565b946020939093013593505050565b6000602082840312156125c057600080fd5b6124bc82612568565b6000602082840312156125db57600080fd5b5035919050565b6000806000606084860312156125f757600080fd5b61260084612568565b925061260e60208501612568565b9150604084013590509250925092565b6000806040838503121561263157600080fd5b8235915061264160208401612568565b90509250929050565b600081518084526020808501808196508360051b8101915082860160005b858110156126db578284038952815180518552858101516001600160a01b031686860152604080820151908601526060808201519086015260808082015115159086015260a09081015160c0918601829052906126c781870183612529565b9a87019a9550505090840190600101612668565b5091979650505050505050565b6020815260006124bc602083018461264a565b6000806040838503121561270e57600080fd5b61271783612568565b915061264160208401612568565b600181811c9082168061273957607f821691505b60208210810361275957634e487b7160e01b600052602260045260246000fd5b50919050565b634e487b7160e01b600052603260045260246000fd5b634e487b7160e01b600052601160045260246000fd5b60006001820161279d5761279d612775565b5060010190565b634e487b7160e01b600052604160045260246000fd5b808201808211156105bf576105bf612775565b818103818111156105bf576105bf612775565b8281526040602082015260006127f9604083018461264a565b949350505050565b601f821115610abb57600081815260208120601f850160051c810160208610156128285750805b601f850160051c820191505b8181101561284757828155600101612834565b505050505050565b815167ffffffffffffffff811115612869576128696127a4565b61287d816128778454612725565b84612801565b602080601f8311600181146128b2576000841561289a5750858301515b600019600386901b1c1916600185901b178555612847565b600085815260208120601f198616915b828110156128e1578886015182559484019460019091019084016128c2565b50858210156128ff5787850151600019600388901b60f8161c191681555b5050505050600190811b01905550565b600181815b8085111561294a57816000190482111561293057612930612775565b8085161561293d57918102915b93841c9390800290612914565b509250929050565b600082612961575060016105bf565b8161296e575060006105bf565b8160018114612984576002811461298e576129aa565b60019150506105bf565b60ff84111561299f5761299f612775565b50506001821b6105bf565b5060208310610133831016604e8410600b84101617156129cd575081810a6105bf565b6129d7838361290f565b80600019048211156129eb576129eb612775565b029392505050565b60006124bc60ff841683612952565b80820281158282048414176105bf576105bf612775565b7f416363657373436f6e74726f6c3a206163636f756e7420000000000000000000815260008351612a51816017850160208801612505565b7f206973206d697373696e6720726f6c65200000000000000000000000000000006017918401918201528351612a8e816028840160208801612505565b01602801949350505050565b600081612aa957612aa9612775565b50600019019056fea2646970667358221220f9bcb21bcdd8330209538867d3d8f67be4b261d3d24a144c03a7b7a6f330da3364736f6c63430008130033",
  "linkReferences": {},
  "deployedLinkReferences": {}
}