{
  "_format": "hh-sol-artifact-1",
  "contractName": "LoyaltyToken",
  "sourceName": "contracts/LoyaltyToken.sol",
  "abi": [
    {
      "inputs": [],
      "stateMutability": "nonpayable",
      "type": "constructor"
    },
    {
      "anonymous": false,
      "inputs": [
        {
          "indexed": true,
          "internalType": "address",
          "name": "owner",
          "type": "address"
        },
        {
          "indexed": true,
          "internalType": "address",
          "name": "spender",
          "type": "address"
        },
        {
          "indexed": false,
          "internalType": "uint256",
          "name": "value",
          "type": "uint256"
        }
      ],
      "name": "Approval",
      "type": "event"
    },
    {
      "anonymous": false,
      "inputs": [
        {
          "indexed": true,
          "internalType": "bytes32",
          "name": "role",
          "type": "bytes32"
        },
        {
          "indexed": true,
          "internalType": "bytes32",
          "name": "previousAdminRole",
          "type": "bytes32"
        },
        {
          "indexed": true,
          "internalType": "bytes32",
          "name": "newAdminRole",
          "type": "bytes32"
        }
      ],
      "name": "RoleAdminChanged",
      "type": "event"
    },
    {
      "anonymous": false,
      "inputs": [
        {
          "indexed": true,
          "internalType": "bytes32",
          "name": "role",
          "type": "bytes32"
        },
        {
          "indexed": true,
          "internalType": "address",
          "name": "account",
          "type": "address"
        },
        {
          "indexed": true,
          "internalType": "address",
          "name": "sender",
          "type": "address"
        }
      ],
      "name": "RoleGranted",
      "type": "event"
    },
    {
      "anonymous": false,
      "inputs": [
        {
          "indexed": true,
          "internalType": "bytes32",
          "name": "role",
          "type": "bytes32"
        },
        {
          "indexed": true,
          "internalType": "address",
          "name": "account",
          "type": "address"
        },
        {
          "indexed": true,
          "internalType": "address",
          "name": "sender",
          "type": "address"
        }
      ],
      "name": "RoleRevoked",
      "type": "event"
    },
    {
      "anonymous": false,
      "inputs": [
        {
          "indexed": true,
          "internalType": "address",
          "name": "from",
          "type": "address"
        },
        {
          "indexed": true,
          "internalType": "address",
          "name": "to",
          "type": "address"
        },
        {
          "indexed": false,
          "internalType": "uint256",
          "name": "value",
          "type": "uint256"
        }
      ],
      "name": "Transfer",
      "type": "event"
    },
    {
      "anonymous": false,
      "inputs": [
        {
          "indexed": false,
          "internalType": "uint256",
          "name": "totalAmount",
          "type": "uint256"
        },
        {
          "components": [
            {
              "internalType": "uint256",
              "name": "transactionId",
              "type": "uint256"
            },
            {
              "internalType": "address",
              "name": "customer",
              "type": "address"
            },
            {
              "internalType": "uint256",
              "name": "amount",
              "type": "uint256"
            },
            {
              "internalType": "uint256",
              "name": "currAmount",
              "type": "uint256"
            },
            {
              "internalType": "uint256",
              "name": "mintDate",
              "type": "uint256"
            },
            {
              "internalType": "bool",
              "name": "isCredit",
              "type": "bool"
            },
            {
              "internalType": "string",
              "name": "detail",
              "type": "string"
            }
          ],
          "indexed": false,
          "internalType": "struct LoyaltyToken.transaction[]",
          "name": "",
          "type": "tuple[]"
        }
      ],
      "name": "fetchAll",
      "type": "event"
    },
    {
      "anonymous": false,
      "inputs": [
        {
          "indexed": false,
          "internalType": "uint256",
          "name": "transactionId",
          "type": "uint256"
        },
        {
          "indexed": false,
          "internalType": "address",
          "name": "customer",
          "type": "address"
        },
        {
          "indexed": false,
          "internalType": "uint256",
          "name": "amount",
          "type": "uint256"
        },
        {
          "indexed": false,
          "internalType": "uint256",
          "name": "currAmount",
          "type": "uint256"
        },
        {
          "indexed": false,
          "internalType": "uint256",
          "name": "mintDate",
          "type": "uint256"
        },
        {
          "indexed": false,
          "internalType": "bool",
          "name": "isCredit",
          "type": "bool"
        },
        {
          "indexed": false,
          "internalType": "string",
          "name": "detail",
          "type": "string"
        }
      ],
      "name": "tokenMinted",
      "type": "event"
    },
    {
      "inputs": [],
      "name": "ADMIN_ROLE",
      "outputs": [
        {
          "internalType": "bytes32",
          "name": "",
          "type": "bytes32"
        }
      ],
      "stateMutability": "view",
      "type": "function"
    },
    {
      "inputs": [],
      "name": "DEFAULT_ADMIN_ROLE",
      "outputs": [
        {
          "internalType": "bytes32",
          "name": "",
          "type": "bytes32"
        }
      ],
      "stateMutability": "view",
      "type": "function"
    },
    {
      "inputs": [],
      "name": "SELLER_ROLE",
      "outputs": [
        {
          "internalType": "bytes32",
          "name": "",
          "type": "bytes32"
        }
      ],
      "stateMutability": "view",
      "type": "function"
    },
    {
      "inputs": [
        {
          "internalType": "address",
          "name": "owner",
          "type": "address"
        },
        {
          "internalType": "address",
          "name": "spender",
          "type": "address"
        }
      ],
      "name": "allowance",
      "outputs": [
        {
          "internalType": "uint256",
          "name": "",
          "type": "uint256"
        }
      ],
      "stateMutability": "view",
      "type": "function"
    },
    {
      "inputs": [
        {
          "internalType": "address",
          "name": "spender",
          "type": "address"
        },
        {
          "internalType": "uint256",
          "name": "amount",
          "type": "uint256"
        }
      ],
      "name": "approve",
      "outputs": [
        {
          "internalType": "bool",
          "name": "",
          "type": "bool"
        }
      ],
      "stateMutability": "nonpayable",
      "type": "function"
    },
    {
      "inputs": [
        {
          "internalType": "address",
          "name": "_to",
          "type": "address"
        }
      ],
      "name": "assignAdmin",
      "outputs": [],
      "stateMutability": "nonpayable",
      "type": "function"
    },
    {
      "inputs": [
        {
          "internalType": "address",
          "name": "_to",
          "type": "address"
        }
      ],
      "name": "assignSeller",
      "outputs": [],
      "stateMutability": "nonpayable",
      "type": "function"
    },
    {
      "inputs": [
        {
          "internalType": "address",
          "name": "",
          "type": "address"
        }
      ],
      "name": "balanceFor",
      "outputs": [
        {
          "internalType": "uint256",
          "name": "",
          "type": "uint256"
        }
      ],
      "stateMutability": "view",
      "type": "function"
    },
    {
      "inputs": [
        {
          "internalType": "address",
          "name": "account",
          "type": "address"
        }
      ],
      "name": "balanceOf",
      "outputs": [
        {
          "internalType": "uint256",
          "name": "",
          "type": "uint256"
        }
      ],
      "stateMutability": "view",
      "type": "function"
    },
    {
      "inputs": [
        {
          "internalType": "uint256",
          "name": "amount",
          "type": "uint256"
        }
      ],
      "name": "burn",
      "outputs": [],
      "stateMutability": "nonpayable",
      "type": "function"
    },
    {
      "inputs": [
        {
          "internalType": "address",
          "name": "account",
          "type": "address"
        },
        {
          "internalType": "uint256",
          "name": "amount",
          "type": "uint256"
        }
      ],
      "name": "burnFrom",
      "outputs": [],
      "stateMutability": "nonpayable",
      "type": "function"
    },
    {
      "inputs": [
        {
          "internalType": "address",
          "name": "from",
          "type": "address"
        },
        {
          "internalType": "uint256",
          "name": "amount",
          "type": "uint256"
        }
      ],
      "name": "burnToken",
      "outputs": [
        {
          "internalType": "bool",
          "name": "",
          "type": "bool"
        }
      ],
      "stateMutability": "nonpayable",
      "type": "function"
    },
    {
      "inputs": [],
      "name": "decimals",
      "outputs": [
        {
          "internalType": "uint8",
          "name": "",
          "type": "uint8"
        }
      ],
      "stateMutability": "view",
      "type": "function"
    },
    {
      "inputs": [
        {
          "internalType": "address",
          "name": "spender",
          "type": "address"
        },
        {
          "internalType": "uint256",
          "name": "subtractedValue",
          "type": "uint256"
        }
      ],
      "name": "decreaseAllowance",
      "outputs": [
        {
          "internalType": "bool",
          "name": "",
          "type": "bool"
        }
      ],
      "stateMutability": "nonpayable",
      "type": "function"
    },
    {
      "inputs": [
        {
          "internalType": "address",
          "name": "_customer",
          "type": "address"
        }
      ],
      "name": "fetchTransactions",
      "outputs": [
        {
          "components": [
            {
              "internalType": "uint256",
              "name": "transactionId",
              "type": "uint256"
            },
            {
              "internalType": "address",
              "name": "customer",
              "type": "address"
            },
            {
              "internalType": "uint256",
              "name": "amount",
              "type": "uint256"
            },
            {
              "internalType": "uint256",
              "name": "currAmount",
              "type": "uint256"
            },
            {
              "internalType": "uint256",
              "name": "mintDate",
              "type": "uint256"
            },
            {
              "internalType": "bool",
              "name": "isCredit",
              "type": "bool"
            },
            {
              "internalType": "string",
              "name": "detail",
              "type": "string"
            }
          ],
          "internalType": "struct LoyaltyToken.transaction[]",
          "name": "",
          "type": "tuple[]"
        }
      ],
      "stateMutability": "view",
      "type": "function"
    },
    {
      "inputs": [
        {
          "internalType": "bytes32",
          "name": "role",
          "type": "bytes32"
        }
      ],
      "name": "getRoleAdmin",
      "outputs": [
        {
          "internalType": "bytes32",
          "name": "",
          "type": "bytes32"
        }
      ],
      "stateMutability": "view",
      "type": "function"
    },
    {
      "inputs": [
        {
          "internalType": "bytes32",
          "name": "role",
          "type": "bytes32"
        },
        {
          "internalType": "address",
          "name": "account",
          "type": "address"
        }
      ],
      "name": "grantRole",
      "outputs": [],
      "stateMutability": "nonpayable",
      "type": "function"
    },
    {
      "inputs": [
        {
          "internalType": "bytes32",
          "name": "role",
          "type": "bytes32"
        },
        {
          "internalType": "address",
          "name": "account",
          "type": "address"
        }
      ],
      "name": "hasRole",
      "outputs": [
        {
          "internalType": "bool",
          "name": "",
          "type": "bool"
        }
      ],
      "stateMutability": "view",
      "type": "function"
    },
    {
      "inputs": [
        {
          "internalType": "address",
          "name": "spender",
          "type": "address"
        },
        {
          "internalType": "uint256",
          "name": "addedValue",
          "type": "uint256"
        }
      ],
      "name": "increaseAllowance",
      "outputs": [
        {
          "internalType": "bool",
          "name": "",
          "type": "bool"
        }
      ],
      "stateMutability": "nonpayable",
      "type": "function"
    },
    {
      "inputs": [
        {
          "internalType": "uint256",
          "name": "amount",
          "type": "uint256"
        }
      ],
      "name": "mint",
      "outputs": [
        {
          "internalType": "bool",
          "name": "",
          "type": "bool"
        }
      ],
      "stateMutability": "nonpayable",
      "type": "function"
    },
    {
      "inputs": [
        {
          "internalType": "address",
          "name": "to",
          "type": "address"
        },
        {
          "internalType": "uint256",
          "name": "amount",
          "type": "uint256"
        }
      ],
      "name": "mintFor",
      "outputs": [
        {
          "internalType": "bool",
          "name": "",
          "type": "bool"
        }
      ],
      "stateMutability": "nonpayable",
      "type": "function"
    },
    {
      "inputs": [
        {
          "internalType": "address",
          "name": "to",
          "type": "address"
        },
        {
          "internalType": "uint256",
          "name": "amount",
          "type": "uint256"
        }
      ],
      "name": "mintTo",
      "outputs": [
        {
          "internalType": "bool",
          "name": "",
          "type": "bool"
        }
      ],
      "stateMutability": "nonpayable",
      "type": "function"
    },
    {
      "inputs": [],
      "name": "name",
      "outputs": [
        {
          "internalType": "string",
          "name": "",
          "type": "string"
        }
      ],
      "stateMutability": "view",
      "type": "function"
    },
    {
      "inputs": [
        {
          "internalType": "uint256",
          "name": "amount",
          "type": "uint256"
        }
      ],
      "name": "redeemTokens",
      "outputs": [
        {
          "internalType": "bool",
          "name": "",
          "type": "bool"
        }
      ],
      "stateMutability": "nonpayable",
      "type": "function"
    },
    {
      "inputs": [
        {
          "internalType": "address",
          "name": "_from",
          "type": "address"
        }
      ],
      "name": "removeAdmin",
      "outputs": [],
      "stateMutability": "nonpayable",
      "type": "function"
    },
    {
      "inputs": [
        {
          "internalType": "address",
          "name": "_from",
          "type": "address"
        }
      ],
      "name": "removeSeller",
      "outputs": [],
      "stateMutability": "nonpayable",
      "type": "function"
    },
    {
      "inputs": [
        {
          "internalType": "bytes32",
          "name": "role",
          "type": "bytes32"
        },
        {
          "internalType": "address",
          "name": "account",
          "type": "address"
        }
      ],
      "name": "renounceRole",
      "outputs": [],
      "stateMutability": "nonpayable",
      "type": "function"
    },
    {
      "inputs": [
        {
          "internalType": "bytes32",
          "name": "role",
          "type": "bytes32"
        },
        {
          "internalType": "address",
          "name": "account",
          "type": "address"
        }
      ],
      "name": "revokeRole",
      "outputs": [],
      "stateMutability": "nonpayable",
      "type": "function"
    },
    {
      "inputs": [
        {
          "internalType": "bytes4",
          "name": "interfaceId",
          "type": "bytes4"
        }
      ],
      "name": "supportsInterface",
      "outputs": [
        {
          "internalType": "bool",
          "name": "",
          "type": "bool"
        }
      ],
      "stateMutability": "view",
      "type": "function"
    },
    {
      "inputs": [],
      "name": "symbol",
      "outputs": [
        {
          "internalType": "string",
          "name": "",
          "type": "string"
        }
      ],
      "stateMutability": "view",
      "type": "function"
    },
    {
      "inputs": [],
      "name": "totalSupply",
      "outputs": [
        {
          "internalType": "uint256",
          "name": "",
          "type": "uint256"
        }
      ],
      "stateMutability": "view",
      "type": "function"
    },
    {
      "inputs": [
        {
          "internalType": "address",
          "name": "to",
          "type": "address"
        },
        {
          "internalType": "uint256",
          "name": "amount",
          "type": "uint256"
        }
      ],
      "name": "transfer",
      "outputs": [
        {
          "internalType": "bool",
          "name": "",
          "type": "bool"
        }
      ],
      "stateMutability": "nonpayable",
      "type": "function"
    },
    {
      "inputs": [
        {
          "internalType": "address",
          "name": "from",
          "type": "address"
        },
        {
          "internalType": "address",
          "name": "to",
          "type": "address"
        },
        {
          "internalType": "uint256",
          "name": "amount",
          "type": "uint256"
        }
      ],
      "name": "transferFrom",
      "outputs": [
        {
          "internalType": "bool",
          "name": "",
          "type": "bool"
        }
      ],
      "stateMutability": "nonpayable",
      "type": "function"
    },
    {
      "inputs": [
        {
          "internalType": "uint256",
          "name": "transactionId",
          "type": "uint256"
        }
      ],
      "name": "validateTokens",
      "outputs": [
        {
          "internalType": "bool",
          "name": "",
          "type": "bool"
        }
      ],
      "stateMutability": "nonpayable",
      "type": "function"
    }
  ],
  "bytecode": "0x60806040523480156200001157600080fd5b506040518060400160405280600e81526020016d4c6f79616c747920546f6b656e7360901b81525060405180604001604052806002815260200161444560f01b815250816003908162000065919062000307565b50600462000074828262000307565b5050600780546001600160a01b031916339081179091556101f4600855620000c19150620000a0601290565b620000ad90600a620004e6565b620000bb906103e8620004fe565b620000d4565b620000ce6000336200019b565b6200052e565b6001600160a01b0382166200012f5760405162461bcd60e51b815260206004820152601f60248201527f45524332303a206d696e7420746f20746865207a65726f206164647265737300604482015260640160405180910390fd5b806002600082825462000143919062000518565b90915550506001600160a01b038216600081815260208181526040808320805486019055518481527fddf252ad1be2c89b69c2b068fc378daa952ba7f163c4a11628f55a4df523b3ef910160405180910390a35b5050565b620001978282620001ac565b505050565b620001b8828262000236565b620001975760008281526005602090815260408083206001600160a01b03851684529091529020805460ff19166001179055620001f23390565b6001600160a01b0316816001600160a01b0316837f2f8788117e7eff1d82e926ec794901d17c78024a50270940304540a733656f0d60405160405180910390a45050565b60008281526005602090815260408083206001600160a01b038516845290915290205460ff165b92915050565b634e487b7160e01b600052604160045260246000fd5b600181811c908216806200028e57607f821691505b602082108103620002af57634e487b7160e01b600052602260045260246000fd5b50919050565b601f821115620001a757600081815260208120601f850160051c81016020861015620002de5750805b601f850160051c820191505b81811015620002ff57828155600101620002ea565b505050505050565b81516001600160401b0381111562000323576200032362000263565b6200033b8162000334845462000279565b84620002b5565b602080601f8311600181146200037357600084156200035a5750858301515b600019600386901b1c1916600185901b178555620002ff565b600085815260208120601f198616915b82811015620003a45788860151825594840194600190910190840162000383565b5085821015620003c35787850151600019600388901b60f8161c191681555b5050505050600190811b01905550565b634e487b7160e01b600052601160045260246000fd5b600181815b808511156200042a5781600019048211156200040e576200040e620003d3565b808516156200041c57918102915b93841c9390800290620003ee565b509250929050565b60008262000443575060016200025d565b8162000452575060006200025d565b81600181146200046b5760028114620004765762000496565b60019150506200025d565b60ff8411156200048a576200048a620003d3565b50506001821b6200025d565b5060208310610133831016604e8410600b8410161715620004bb575081810a6200025d565b620004c78383620003e9565b8060001904821115620004de57620004de620003d3565b029392505050565b6000620004f760ff84168362000432565b9392505050565b80820281158282048414176200025d576200025d620003d3565b808201808211156200025d576200025d620003d3565b612a69806200053e6000396000f3fe608060405234801561001057600080fd5b50600436106102265760003560e01c806375b238fc1161012a578063a6e158f8116100bd578063d1df306c1161008c578063da1919b311610071578063da1919b3146104f0578063dbe4613d14610503578063dd62ed3e1461052a57600080fd5b8063d1df306c146104ca578063d547741f146104dd57600080fd5b8063a6e158f814610471578063a9059cbb14610484578063ba9dfc6114610497578063bc7ff274146104b757600080fd5b806395d89b41116100f957806395d89b411461043b578063a0712d6814610443578063a217fddf14610456578063a457c2d71461045e57600080fd5b806375b238fc146103b557806379cc6790146103dc5780637cb9cf54146103ef57806391d148541461040257600080fd5b80632f2ff15d116101bd5780633da7d2ed1161018c578063449a52f811610171578063449a52f814610359578063556849ea1461036c57806370a082311461038c57600080fd5b80633da7d2ed1461033357806342966c681461034657600080fd5b80632f2ff15d146102eb578063313ce567146102fe57806336568abe1461030d578063395093511461032057600080fd5b80631785f53c116101f95780631785f53c1461028e57806318160ddd146102a357806323b872dd146102b5578063248a9ca3146102c857600080fd5b806301ffc9a71461022b57806306fdde0314610253578063095ea7b3146102685780631141848a1461027b575b600080fd5b61023e610239366004612463565b610563565b60405190151581526020015b60405180910390f35b61025b6105fc565b60405161024a91906124f5565b61023e610276366004612524565b61068e565b61023e61028936600461254e565b6106a6565b6102a161029c366004612567565b6109a6565b005b6002545b60405190815260200161024a565b61023e6102c3366004612582565b610aeb565b6102a76102d636600461254e565b60009081526005602052604090206001015490565b6102a16102f93660046125be565b610b0f565b6040516012815260200161024a565b6102a161031b3660046125be565b610b39565b61023e61032e366004612524565b610bc5565b6102a1610341366004612567565b610c04565b6102a161035436600461254e565b610cbf565b61023e610367366004612524565b610cc9565b6102a761037a366004612567565b600a6020526000908152604090205481565b6102a761039a366004612567565b6001600160a01b031660009081526020819052604090205490565b6102a77fa49807205ce4d355092ef5a8a18f56e8913cf4a201fbe287825b095693c2177581565b6102a16103ea366004612524565b611022565b6102a16103fd366004612567565b611037565b61023e6104103660046125be565b60009182526005602090815260408084206001600160a01b0393909316845291905290205460ff1690565b61025b61119f565b61023e61045136600461254e565b6111ae565b6102a7600081565b61023e61046c366004612524565b611279565b61023e61047f36600461254e565b611323565b61023e610492366004612524565b611597565b6104aa6104a5366004612567565b6115a5565b60405161024a91906125ea565b6102a16104c5366004612567565b611813565b61023e6104d8366004612524565b6118f4565b6102a16104eb3660046125be565b611a3a565b61023e6104fe366004612524565b611a5f565b6102a77f43f25613eb2f15fb17222a5d424ca2655743e71265d98e4b93c05e5fb589ecde81565b6102a761053836600461269e565b6001600160a01b03918216600090815260016020908152604080832093909416825291909152205490565b60007fffffffff0000000000000000000000000000000000000000000000000000000082167f7965db0b0000000000000000000000000000000000000000000000000000000014806105f657507f01ffc9a7000000000000000000000000000000000000000000000000000000007fffffffff000000000000000000000000000000000000000000000000000000008316145b92915050565b60606003805461060b906126c8565b80601f0160208091040260200160405190810160405280929190818152602001828054610637906126c8565b80156106845780601f1061065957610100808354040283529160200191610684565b820191906000526020600020905b81548152906001019060200180831161066757829003601f168201915b5050505050905090565b60003361069c818585611ac6565b5060019392505050565b60008181526009602052604081206005015460ff1661070c5760405162461bcd60e51b815260206004820152601860248201527f4f6e6c7920666f7220437265646974656420546f6b656e73000000000000000060448201526064015b60405180910390fd5b600082815260096020526040902060048101546001820154600283015460039093015460085442946001600160a01b0390931692919061074c9085612718565b8511801561075a5750600081115b1561099957600061076b84846118f4565b9050801561094357610781600680546001019055565b600061078c60065490565b6001600160a01b0386166000908152600a60205260408120805492935085929091906107b990849061272b565b90915550506040805160e0810182528281526001600160a01b0387811660208084019182528385018981526060850189815260006080870181815260a088018281528951808b018b52600e81527f546f6b656e7320457870697265640000000000000000000000000000000000008188015260c08a019081528b845260099096529890912087518155945160018601805473ffffffffffffffffffffffffffffffffffffffff191691909716179095559051600284015551600383015591516004820155925160058401805460ff19169115159190911790555190919060068201906108a590826127a2565b5050604080518381526001600160a01b03881660208201529081018690526060810185905260006080820181905260a082015260e060c08201819052600e908201527f546f6b656e7320457870697265640000000000000000000000000000000000006101008201527f0e0f276cc633ffe267793e0cd80b6e766490d5913bc83a7664b6d2d50972a43291506101200160405180910390a15061098b565b60405162461bcd60e51b815260206004820152601160248201527f546f6b656e73206e6f74204275726e65640000000000000000000000000000006044820152606401610703565b506000979650505050505050565b5060019695505050505050565b6001600160a01b03811660009081527fd8ef4509105c3edb0b04658b4528edc5ddd30ea5a81e623a2623c88db1eb54b6602052604090205460ff16610a2d5760405162461bcd60e51b815260206004820152601b60248201527f41646d696e2072696768747320646f65736e27742065786973747300000000006044820152606401610703565b3360009081527f05b8ccbb9d4d8fb16ea74ce3c29a41f1b461fbdaff4714a0d9a8eb05499746bc602052604090205460ff16610abe5760405162461bcd60e51b815260206004820152602a60248201527f4f6e6c792044656661756c742041646d696e2063616e207265766f6b652041646044820152696d696e2052696768747360b01b6064820152608401610703565b610ae87fa49807205ce4d355092ef5a8a18f56e8913cf4a201fbe287825b095693c2177582611c1e565b50565b600033610af9858285611ca1565b610b04858585611d33565b506001949350505050565b600082815260056020526040902060010154610b2a81611f20565b610b348383611f2a565b505050565b6001600160a01b0381163314610bb75760405162461bcd60e51b815260206004820152602f60248201527f416363657373436f6e74726f6c3a2063616e206f6e6c792072656e6f756e636560448201527f20726f6c657320666f722073656c6600000000000000000000000000000000006064820152608401610703565b610bc18282611c1e565b5050565b3360008181526001602090815260408083206001600160a01b038716845290915281205490919061069c9082908690610bff908790612718565b611ac6565b3360009081527f05b8ccbb9d4d8fb16ea74ce3c29a41f1b461fbdaff4714a0d9a8eb05499746bc602052604090205460ff16610c955760405162461bcd60e51b815260206004820152602a60248201527f4f6e6c792044656661756c742041646d696e2063616e2061737369676e2041646044820152696d696e2052696768747360b01b6064820152608401610703565b610ae87fa49807205ce4d355092ef5a8a18f56e8913cf4a201fbe287825b095693c2177582611f2a565b610ae83382611fcc565b3360009081527f9adf02c4c7cfbfab2a0872ace1bf79ea4d72ff11554aea838928a0dcdeb1e5a0602052604081205460ff1680610d3457503360009081527fd8ef4509105c3edb0b04658b4528edc5ddd30ea5a81e623a2623c88db1eb54b6602052604090205460ff165b80610d6d57503360009081527f05b8ccbb9d4d8fb16ea74ce3c29a41f1b461fbdaff4714a0d9a8eb05499746bc602052604090205460ff165b610ddf5760405162461bcd60e51b815260206004820152602860248201527f596f7520646f6e27742068617665207468652072696768747320746f206d696e60448201527f7420546f6b656e730000000000000000000000000000000000000000000000006064820152608401610703565b6001600160a01b038316610e445760405162461bcd60e51b815260206004820152602660248201527f43616e6e6f74207472616e7366657220746f6b656e7320746f207a65726f206160448201526564647265737360d01b6064820152608401610703565b610e52600680546001019055565b6000610e5d60065490565b9050610e698484612135565b6001600160a01b0384166000908152600a602052604081208054859290610e91908490612718565b90915550506040805160e0810182528281526001600160a01b038681166020808401918252838501888152606085018981524260808701818152600160a089018181528a51808c018c52601b81527f546f6b656e20526563696576656420666f7220507572636861736500000000008189015260c08b0190815260008d815260099098529a909620895181559651908701805473ffffffffffffffffffffffffffffffffffffffff1916919098161790965591516002850155516003840155925160048301555160058201805460ff191691151591909117905592519092906006820190610f7f90826127a2565b5050604080518481526001600160a01b03881660208201529081018690526060810186905260808101839052600160a082015260e060c08201819052601c908201527f546f6b656e7320526563696576656420666f72205075726368617365000000006101008201527f0e0f276cc633ffe267793e0cd80b6e766490d5913bc83a7664b6d2d50972a43291506101200160405180910390a1506001949350505050565b61102d823383611ca1565b610bc18282611fcc565b3360009081527fd8ef4509105c3edb0b04658b4528edc5ddd30ea5a81e623a2623c88db1eb54b6602052604090205460ff16806110a257503360009081527f05b8ccbb9d4d8fb16ea74ce3c29a41f1b461fbdaff4714a0d9a8eb05499746bc602052604090205460ff165b6110ee5760405162461bcd60e51b815260206004820152601c60248201527f596f7520646f6e277420686176652061646d696e2072696768747321000000006044820152606401610703565b6001600160a01b03811660009081527f9adf02c4c7cfbfab2a0872ace1bf79ea4d72ff11554aea838928a0dcdeb1e5a0602052604090205460ff166111755760405162461bcd60e51b815260206004820152601560248201527f53656c6c657220646f65736e27742065786973747300000000000000000000006044820152606401610703565b610ae87f43f25613eb2f15fb17222a5d424ca2655743e71265d98e4b93c05e5fb589ecde82611c1e565b60606004805461060b906126c8565b3360009081527f05b8ccbb9d4d8fb16ea74ce3c29a41f1b461fbdaff4714a0d9a8eb05499746bc602052604081205460ff166112525760405162461bcd60e51b815260206004820152602660248201527f4f6e6c792044656661756c742041646d696e2063616e2063726561746520612060448201527f737570706c7900000000000000000000000000000000000000000000000000006064820152608401610703565b611271336112626012600a612946565b61126c9085612955565b612135565b506001919050565b3360008181526001602090815260408083206001600160a01b0387168452909152812054909190838110156113165760405162461bcd60e51b815260206004820152602560248201527f45524332303a2064656372656173656420616c6c6f77616e63652062656c6f7760448201527f207a65726f0000000000000000000000000000000000000000000000000000006064820152608401610703565b610b048286868403611ac6565b336000908152600a6020526040812054826113805760405162461bcd60e51b815260206004820152601860248201527f546f6b656e732063616e2774206265206e6567617469766500000000000000006044820152606401610703565b828110156113d05760405162461bcd60e51b815260206004820152601260248201527f4e6f7420656e6f75676820546f6b656e732100000000000000000000000000006044820152606401610703565b6113da3384611fcc565b6113e8600680546001019055565b60006113f360065490565b6040805160e0810182528281523360208083019182528284018981526060840188815260006080860181815260a087018281528851808a018a52600f81527f546f6b656e732052656465656d656400000000000000000000000000000000008188015260c089019081528a845260099096529790912086518155945160018601805473ffffffffffffffffffffffffffffffffffffffff19166001600160a01b0390921691909117905591516002850155516003840155516004830155925160058201805460ff191691151591909117905591519293509160068201906114da90826127a2565b5050604080518381523360208201529081018690526060810184905260006080820181905260a082015260e060c08201819052600f908201527f546f6b656e732052656465656d656400000000000000000000000000000000006101008201527f0e0f276cc633ffe267793e0cd80b6e766490d5913bc83a7664b6d2d50972a43291506101200160405180910390a1336000908152600a60205260408120805486929061158890849061272b565b90915550600195945050505050565b60003361069c818585611d33565b606060006115b260065490565b9050600060015b828111611604576000818152600960205260409020600101546001600160a01b038087169116036115f257816115ee8161296c565b9250505b806115fc8161296c565b9150506115b9565b5060008167ffffffffffffffff8111156116205761162061273e565b60405190808252806020026020018201604052801561169c57816020015b6116896040518060e001604052806000815260200160006001600160a01b03168152602001600081526020016000815260200160008152602001600015158152602001606081525090565b81526020019060019003908161163e5790505b509050600060015b848111611808576000818152600960205260409020600101546001600160a01b038089169116036117f657600081815260096020908152604091829020825160e0810184528154815260018201546001600160a01b0316928101929092526002810154928201929092526003820154606082015260048201546080820152600582015460ff16151560a0820152600682018054839160c0840191611747906126c8565b80601f0160208091040260200160405190810160405280929190818152602001828054611773906126c8565b80156117c05780601f10611795576101008083540402835291602001916117c0565b820191906000526020600020905b8154815290600101906020018083116117a357829003601f168201915b5050505050815250508484815181106117db576117db612985565b602002602001018190525082806117f19061296c565b935050505b806118008161296c565b9150506116a4565b509095945050505050565b3360009081527fd8ef4509105c3edb0b04658b4528edc5ddd30ea5a81e623a2623c88db1eb54b6602052604090205460ff168061187e57503360009081527f05b8ccbb9d4d8fb16ea74ce3c29a41f1b461fbdaff4714a0d9a8eb05499746bc602052604090205460ff165b6118ca5760405162461bcd60e51b815260206004820152601c60248201527f596f7520646f6e277420686176652061646d696e2072696768747321000000006044820152606401610703565b610ae87f43f25613eb2f15fb17222a5d424ca2655743e71265d98e4b93c05e5fb589ecde82611f2a565b3360009081527fd8ef4509105c3edb0b04658b4528edc5ddd30ea5a81e623a2623c88db1eb54b6602052604081205460ff168061195f57503360009081527f05b8ccbb9d4d8fb16ea74ce3c29a41f1b461fbdaff4714a0d9a8eb05499746bc602052604090205460ff165b6119ab5760405162461bcd60e51b815260206004820152601c60248201527f596f7520646f6e277420686176652061646d696e2072696768747321000000006044820152606401610703565b6001600160a01b038316611a275760405162461bcd60e51b815260206004820152602860248201527f43616e6e6f74206275726e20746f6b656e732066726f6d20746865207a65726f60448201527f20616464726573730000000000000000000000000000000000000000000000006064820152608401610703565b611a318383611fcc565b50600192915050565b600082815260056020526040902060010154611a5581611f20565b610b348383611c1e565b60006001600160a01b038316610e445760405162461bcd60e51b815260206004820152602660248201527f43616e6e6f74207472616e7366657220746f6b656e7320746f207a65726f206160448201526564647265737360d01b6064820152608401610703565b6001600160a01b038316611b415760405162461bcd60e51b8152602060048201526024808201527f45524332303a20617070726f76652066726f6d20746865207a65726f2061646460448201527f72657373000000000000000000000000000000000000000000000000000000006064820152608401610703565b6001600160a01b038216611bbd5760405162461bcd60e51b815260206004820152602260248201527f45524332303a20617070726f766520746f20746865207a65726f20616464726560448201527f73730000000000000000000000000000000000000000000000000000000000006064820152608401610703565b6001600160a01b0383811660008181526001602090815260408083209487168084529482529182902085905590518481527f8c5be1e5ebec7d5bd14f71427d1e84f3dd0314c0f7b2291e5b200ac8c7c3b925910160405180910390a3505050565b60008281526005602090815260408083206001600160a01b038516845290915290205460ff1615610bc15760008281526005602090815260408083206001600160a01b0385168085529252808320805460ff1916905551339285917ff6391f5c32d9c69d2a47ea670b442974b53935d1edc7fd64eb21e047a839171b9190a45050565b6001600160a01b038381166000908152600160209081526040808320938616835292905220546000198114611d2d5781811015611d205760405162461bcd60e51b815260206004820152601d60248201527f45524332303a20696e73756666696369656e7420616c6c6f77616e63650000006044820152606401610703565b611d2d8484848403611ac6565b50505050565b6001600160a01b038316611daf5760405162461bcd60e51b815260206004820152602560248201527f45524332303a207472616e736665722066726f6d20746865207a65726f20616460448201527f64726573730000000000000000000000000000000000000000000000000000006064820152608401610703565b6001600160a01b038216611e2b5760405162461bcd60e51b815260206004820152602360248201527f45524332303a207472616e7366657220746f20746865207a65726f206164647260448201527f65737300000000000000000000000000000000000000000000000000000000006064820152608401610703565b6001600160a01b03831660009081526020819052604090205481811015611eba5760405162461bcd60e51b815260206004820152602660248201527f45524332303a207472616e7366657220616d6f756e742065786365656473206260448201527f616c616e636500000000000000000000000000000000000000000000000000006064820152608401610703565b6001600160a01b03848116600081815260208181526040808320878703905593871680835291849020805487019055925185815290927fddf252ad1be2c89b69c2b068fc378daa952ba7f163c4a11628f55a4df523b3ef910160405180910390a3611d2d565b610ae881336121f4565b60008281526005602090815260408083206001600160a01b038516845290915290205460ff16610bc15760008281526005602090815260408083206001600160a01b03851684529091529020805460ff19166001179055611f883390565b6001600160a01b0316816001600160a01b0316837f2f8788117e7eff1d82e926ec794901d17c78024a50270940304540a733656f0d60405160405180910390a45050565b6001600160a01b0382166120485760405162461bcd60e51b815260206004820152602160248201527f45524332303a206275726e2066726f6d20746865207a65726f2061646472657360448201527f73000000000000000000000000000000000000000000000000000000000000006064820152608401610703565b6001600160a01b038216600090815260208190526040902054818110156120d75760405162461bcd60e51b815260206004820152602260248201527f45524332303a206275726e20616d6f756e7420657863656564732062616c616e60448201527f63650000000000000000000000000000000000000000000000000000000000006064820152608401610703565b6001600160a01b0383166000818152602081815260408083208686039055600280548790039055518581529192917fddf252ad1be2c89b69c2b068fc378daa952ba7f163c4a11628f55a4df523b3ef910160405180910390a3505050565b6001600160a01b03821661218b5760405162461bcd60e51b815260206004820152601f60248201527f45524332303a206d696e7420746f20746865207a65726f2061646472657373006044820152606401610703565b806002600082825461219d9190612718565b90915550506001600160a01b038216600081815260208181526040808320805486019055518481527fddf252ad1be2c89b69c2b068fc378daa952ba7f163c4a11628f55a4df523b3ef910160405180910390a35050565b60008281526005602090815260408083206001600160a01b038516845290915290205460ff16610bc15761222781612269565b61223283602061227b565b60405160200161224392919061299b565b60408051601f198184030181529082905262461bcd60e51b8252610703916004016124f5565b60606105f66001600160a01b03831660145b6060600061228a836002612955565b612295906002612718565b67ffffffffffffffff8111156122ad576122ad61273e565b6040519080825280601f01601f1916602001820160405280156122d7576020820181803683370190505b5090507f30000000000000000000000000000000000000000000000000000000000000008160008151811061230e5761230e612985565b60200101906001600160f81b031916908160001a9053507f78000000000000000000000000000000000000000000000000000000000000008160018151811061235957612359612985565b60200101906001600160f81b031916908160001a905350600061237d846002612955565b612388906001612718565b90505b600181111561240d577f303132333435363738396162636465660000000000000000000000000000000085600f16601081106123c9576123c9612985565b1a60f81b8282815181106123df576123df612985565b60200101906001600160f81b031916908160001a90535060049490941c9361240681612a1c565b905061238b565b50831561245c5760405162461bcd60e51b815260206004820181905260248201527f537472696e67733a20686578206c656e67746820696e73756666696369656e746044820152606401610703565b9392505050565b60006020828403121561247557600080fd5b81357fffffffff000000000000000000000000000000000000000000000000000000008116811461245c57600080fd5b60005b838110156124c05781810151838201526020016124a8565b50506000910152565b600081518084526124e18160208601602086016124a5565b601f01601f19169290920160200192915050565b60208152600061245c60208301846124c9565b80356001600160a01b038116811461251f57600080fd5b919050565b6000806040838503121561253757600080fd5b61254083612508565b946020939093013593505050565b60006020828403121561256057600080fd5b5035919050565b60006020828403121561257957600080fd5b61245c82612508565b60008060006060848603121561259757600080fd5b6125a084612508565b92506125ae60208501612508565b9150604084013590509250925092565b600080604083850312156125d157600080fd5b823591506125e160208401612508565b90509250929050565b60006020808301818452808551808352604092508286019150828160051b87010184880160005b8381101561269057888303603f19018552815180518452878101516001600160a01b0316888501528681015187850152606080820151908501526080808201519085015260a08082015115159085015260c09081015160e09185018290529061267c818601836124c9565b968901969450505090860190600101612611565b509098975050505050505050565b600080604083850312156126b157600080fd5b6126ba83612508565b91506125e160208401612508565b600181811c908216806126dc57607f821691505b6020821081036126fc57634e487b7160e01b600052602260045260246000fd5b50919050565b634e487b7160e01b600052601160045260246000fd5b808201808211156105f6576105f6612702565b818103818111156105f6576105f6612702565b634e487b7160e01b600052604160045260246000fd5b601f821115610b3457600081815260208120601f850160051c8101602086101561277b5750805b601f850160051c820191505b8181101561279a57828155600101612787565b505050505050565b815167ffffffffffffffff8111156127bc576127bc61273e565b6127d0816127ca84546126c8565b84612754565b602080601f83116001811461280557600084156127ed5750858301515b600019600386901b1c1916600185901b17855561279a565b600085815260208120601f198616915b8281101561283457888601518255948401946001909101908401612815565b50858210156128525787850151600019600388901b60f8161c191681555b5050505050600190811b01905550565b600181815b8085111561289d57816000190482111561288357612883612702565b8085161561289057918102915b93841c9390800290612867565b509250929050565b6000826128b4575060016105f6565b816128c1575060006105f6565b81600181146128d757600281146128e1576128fd565b60019150506105f6565b60ff8411156128f2576128f2612702565b50506001821b6105f6565b5060208310610133831016604e8410600b8410161715612920575081810a6105f6565b61292a8383612862565b806000190482111561293e5761293e612702565b029392505050565b600061245c60ff8416836128a5565b80820281158282048414176105f6576105f6612702565b60006001820161297e5761297e612702565b5060010190565b634e487b7160e01b600052603260045260246000fd5b7f416363657373436f6e74726f6c3a206163636f756e74200000000000000000008152600083516129d38160178501602088016124a5565b7f206973206d697373696e6720726f6c65200000000000000000000000000000006017918401918201528351612a108160288401602088016124a5565b01602801949350505050565b600081612a2b57612a2b612702565b50600019019056fea2646970667358221220b40f511bcafd15019e9773c76a40ef9071e99b3a866607e4c3f5a7fd569d145864736f6c63430008130033",
  "linkReferences": {},
  "deployedLinkReferences": {}
}