{
  "_format": "hh-sol-artifact-1",
  "contractName": "LoyaltyToken",
  "sourceName": "contracts/LoyaltyToken.sol",
  "abi": [
    {
      "inputs": [],
      "stateMutability": "nonpayable",
      "type": "constructor"
    },
    {
      "anonymous": false,
      "inputs": [
        {
          "indexed": true,
          "internalType": "address",
          "name": "owner",
          "type": "address"
        },
        {
          "indexed": true,
          "internalType": "address",
          "name": "spender",
          "type": "address"
        },
        {
          "indexed": false,
          "internalType": "uint256",
          "name": "value",
          "type": "uint256"
        }
      ],
      "name": "Approval",
      "type": "event"
    },
    {
      "anonymous": false,
      "inputs": [
        {
          "indexed": true,
          "internalType": "bytes32",
          "name": "role",
          "type": "bytes32"
        },
        {
          "indexed": true,
          "internalType": "bytes32",
          "name": "previousAdminRole",
          "type": "bytes32"
        },
        {
          "indexed": true,
          "internalType": "bytes32",
          "name": "newAdminRole",
          "type": "bytes32"
        }
      ],
      "name": "RoleAdminChanged",
      "type": "event"
    },
    {
      "anonymous": false,
      "inputs": [
        {
          "indexed": true,
          "internalType": "bytes32",
          "name": "role",
          "type": "bytes32"
        },
        {
          "indexed": true,
          "internalType": "address",
          "name": "account",
          "type": "address"
        },
        {
          "indexed": true,
          "internalType": "address",
          "name": "sender",
          "type": "address"
        }
      ],
      "name": "RoleGranted",
      "type": "event"
    },
    {
      "anonymous": false,
      "inputs": [
        {
          "indexed": true,
          "internalType": "bytes32",
          "name": "role",
          "type": "bytes32"
        },
        {
          "indexed": true,
          "internalType": "address",
          "name": "account",
          "type": "address"
        },
        {
          "indexed": true,
          "internalType": "address",
          "name": "sender",
          "type": "address"
        }
      ],
      "name": "RoleRevoked",
      "type": "event"
    },
    {
      "anonymous": false,
      "inputs": [
        {
          "indexed": true,
          "internalType": "address",
          "name": "from",
          "type": "address"
        },
        {
          "indexed": true,
          "internalType": "address",
          "name": "to",
          "type": "address"
        },
        {
          "indexed": false,
          "internalType": "uint256",
          "name": "value",
          "type": "uint256"
        }
      ],
      "name": "Transfer",
      "type": "event"
    },
    {
      "anonymous": false,
      "inputs": [
        {
          "indexed": false,
          "internalType": "uint256",
          "name": "totalAmount",
          "type": "uint256"
        },
        {
          "components": [
            {
              "internalType": "uint256",
              "name": "transactionId",
              "type": "uint256"
            },
            {
              "internalType": "address",
              "name": "customer",
              "type": "address"
            },
            {
              "internalType": "uint256",
              "name": "amount",
              "type": "uint256"
            },
            {
              "internalType": "uint256",
              "name": "currAmount",
              "type": "uint256"
            },
            {
              "internalType": "uint256",
              "name": "mintDate",
              "type": "uint256"
            },
            {
              "internalType": "bool",
              "name": "isCredit",
              "type": "bool"
            },
            {
              "internalType": "string",
              "name": "detail",
              "type": "string"
            }
          ],
          "indexed": false,
          "internalType": "struct LoyaltyToken.transaction[]",
          "name": "",
          "type": "tuple[]"
        }
      ],
      "name": "fetchAll",
      "type": "event"
    },
    {
      "anonymous": false,
      "inputs": [
        {
          "indexed": false,
          "internalType": "uint256",
          "name": "transactionId",
          "type": "uint256"
        },
        {
          "indexed": false,
          "internalType": "address",
          "name": "customer",
          "type": "address"
        },
        {
          "indexed": false,
          "internalType": "uint256",
          "name": "amount",
          "type": "uint256"
        },
        {
          "indexed": false,
          "internalType": "uint256",
          "name": "currAmount",
          "type": "uint256"
        },
        {
          "indexed": false,
          "internalType": "uint256",
          "name": "mintDate",
          "type": "uint256"
        },
        {
          "indexed": false,
          "internalType": "bool",
          "name": "isCredit",
          "type": "bool"
        },
        {
          "indexed": false,
          "internalType": "string",
          "name": "detail",
          "type": "string"
        }
      ],
      "name": "tokenMinted",
      "type": "event"
    },
    {
      "inputs": [],
      "name": "ADMIN_ROLE",
      "outputs": [
        {
          "internalType": "bytes32",
          "name": "",
          "type": "bytes32"
        }
      ],
      "stateMutability": "view",
      "type": "function"
    },
    {
      "inputs": [],
      "name": "DEFAULT_ADMIN_ROLE",
      "outputs": [
        {
          "internalType": "bytes32",
          "name": "",
          "type": "bytes32"
        }
      ],
      "stateMutability": "view",
      "type": "function"
    },
    {
      "inputs": [],
      "name": "SELLER_ROLE",
      "outputs": [
        {
          "internalType": "bytes32",
          "name": "",
          "type": "bytes32"
        }
      ],
      "stateMutability": "view",
      "type": "function"
    },
    {
      "inputs": [
        {
          "internalType": "address",
          "name": "owner",
          "type": "address"
        },
        {
          "internalType": "address",
          "name": "spender",
          "type": "address"
        }
      ],
      "name": "allowance",
      "outputs": [
        {
          "internalType": "uint256",
          "name": "",
          "type": "uint256"
        }
      ],
      "stateMutability": "view",
      "type": "function"
    },
    {
      "inputs": [
        {
          "internalType": "address",
          "name": "spender",
          "type": "address"
        },
        {
          "internalType": "uint256",
          "name": "amount",
          "type": "uint256"
        }
      ],
      "name": "approve",
      "outputs": [
        {
          "internalType": "bool",
          "name": "",
          "type": "bool"
        }
      ],
      "stateMutability": "nonpayable",
      "type": "function"
    },
    {
      "inputs": [
        {
          "internalType": "address",
          "name": "_to",
          "type": "address"
        }
      ],
      "name": "assignAdmin",
      "outputs": [],
      "stateMutability": "nonpayable",
      "type": "function"
    },
    {
      "inputs": [
        {
          "internalType": "address",
          "name": "_to",
          "type": "address"
        }
      ],
      "name": "assignSeller",
      "outputs": [],
      "stateMutability": "nonpayable",
      "type": "function"
    },
    {
      "inputs": [
        {
          "internalType": "address",
          "name": "",
          "type": "address"
        }
      ],
      "name": "balanceFor",
      "outputs": [
        {
          "internalType": "uint256",
          "name": "",
          "type": "uint256"
        }
      ],
      "stateMutability": "view",
      "type": "function"
    },
    {
      "inputs": [
        {
          "internalType": "address",
          "name": "account",
          "type": "address"
        }
      ],
      "name": "balanceOf",
      "outputs": [
        {
          "internalType": "uint256",
          "name": "",
          "type": "uint256"
        }
      ],
      "stateMutability": "view",
      "type": "function"
    },
    {
      "inputs": [
        {
          "internalType": "uint256",
          "name": "amount",
          "type": "uint256"
        }
      ],
      "name": "burn",
      "outputs": [],
      "stateMutability": "nonpayable",
      "type": "function"
    },
    {
      "inputs": [
        {
          "internalType": "address",
          "name": "account",
          "type": "address"
        },
        {
          "internalType": "uint256",
          "name": "amount",
          "type": "uint256"
        }
      ],
      "name": "burnFrom",
      "outputs": [],
      "stateMutability": "nonpayable",
      "type": "function"
    },
    {
      "inputs": [
        {
          "internalType": "address",
          "name": "from",
          "type": "address"
        },
        {
          "internalType": "uint256",
          "name": "amount",
          "type": "uint256"
        }
      ],
      "name": "burnToken",
      "outputs": [
        {
          "internalType": "bool",
          "name": "",
          "type": "bool"
        }
      ],
      "stateMutability": "nonpayable",
      "type": "function"
    },
    {
      "inputs": [],
      "name": "decimals",
      "outputs": [
        {
          "internalType": "uint8",
          "name": "",
          "type": "uint8"
        }
      ],
      "stateMutability": "view",
      "type": "function"
    },
    {
      "inputs": [
        {
          "internalType": "address",
          "name": "spender",
          "type": "address"
        },
        {
          "internalType": "uint256",
          "name": "subtractedValue",
          "type": "uint256"
        }
      ],
      "name": "decreaseAllowance",
      "outputs": [
        {
          "internalType": "bool",
          "name": "",
          "type": "bool"
        }
      ],
      "stateMutability": "nonpayable",
      "type": "function"
    },
    {
      "inputs": [
        {
          "internalType": "address",
          "name": "_customer",
          "type": "address"
        }
      ],
      "name": "fetchTransactions",
      "outputs": [
        {
          "components": [
            {
              "internalType": "uint256",
              "name": "transactionId",
              "type": "uint256"
            },
            {
              "internalType": "address",
              "name": "customer",
              "type": "address"
            },
            {
              "internalType": "uint256",
              "name": "amount",
              "type": "uint256"
            },
            {
              "internalType": "uint256",
              "name": "currAmount",
              "type": "uint256"
            },
            {
              "internalType": "uint256",
              "name": "mintDate",
              "type": "uint256"
            },
            {
              "internalType": "bool",
              "name": "isCredit",
              "type": "bool"
            },
            {
              "internalType": "string",
              "name": "detail",
              "type": "string"
            }
          ],
          "internalType": "struct LoyaltyToken.transaction[]",
          "name": "",
          "type": "tuple[]"
        }
      ],
      "stateMutability": "view",
      "type": "function"
    },
    {
      "inputs": [
        {
          "internalType": "bytes32",
          "name": "role",
          "type": "bytes32"
        }
      ],
      "name": "getRoleAdmin",
      "outputs": [
        {
          "internalType": "bytes32",
          "name": "",
          "type": "bytes32"
        }
      ],
      "stateMutability": "view",
      "type": "function"
    },
    {
      "inputs": [
        {
          "internalType": "bytes32",
          "name": "role",
          "type": "bytes32"
        },
        {
          "internalType": "address",
          "name": "account",
          "type": "address"
        }
      ],
      "name": "grantRole",
      "outputs": [],
      "stateMutability": "nonpayable",
      "type": "function"
    },
    {
      "inputs": [
        {
          "internalType": "bytes32",
          "name": "role",
          "type": "bytes32"
        },
        {
          "internalType": "address",
          "name": "account",
          "type": "address"
        }
      ],
      "name": "hasRole",
      "outputs": [
        {
          "internalType": "bool",
          "name": "",
          "type": "bool"
        }
      ],
      "stateMutability": "view",
      "type": "function"
    },
    {
      "inputs": [
        {
          "internalType": "address",
          "name": "spender",
          "type": "address"
        },
        {
          "internalType": "uint256",
          "name": "addedValue",
          "type": "uint256"
        }
      ],
      "name": "increaseAllowance",
      "outputs": [
        {
          "internalType": "bool",
          "name": "",
          "type": "bool"
        }
      ],
      "stateMutability": "nonpayable",
      "type": "function"
    },
    {
      "inputs": [
        {
          "internalType": "uint256",
          "name": "amount",
          "type": "uint256"
        }
      ],
      "name": "mint",
      "outputs": [
        {
          "internalType": "bool",
          "name": "",
          "type": "bool"
        }
      ],
      "stateMutability": "nonpayable",
      "type": "function"
    },
    {
      "inputs": [
        {
          "internalType": "address",
          "name": "to",
          "type": "address"
        },
        {
          "internalType": "uint256",
          "name": "amount",
          "type": "uint256"
        }
      ],
      "name": "mintFor",
      "outputs": [
        {
          "internalType": "bool",
          "name": "",
          "type": "bool"
        }
      ],
      "stateMutability": "nonpayable",
      "type": "function"
    },
    {
      "inputs": [
        {
          "internalType": "address",
          "name": "to",
          "type": "address"
        },
        {
          "internalType": "uint256",
          "name": "amount",
          "type": "uint256"
        }
      ],
      "name": "mintTo",
      "outputs": [
        {
          "internalType": "bool",
          "name": "",
          "type": "bool"
        }
      ],
      "stateMutability": "nonpayable",
      "type": "function"
    },
    {
      "inputs": [],
      "name": "name",
      "outputs": [
        {
          "internalType": "string",
          "name": "",
          "type": "string"
        }
      ],
      "stateMutability": "view",
      "type": "function"
    },
    {
      "inputs": [
        {
          "internalType": "uint256",
          "name": "amount",
          "type": "uint256"
        }
      ],
      "name": "redeemTokens",
      "outputs": [
        {
          "internalType": "bool",
          "name": "",
          "type": "bool"
        }
      ],
      "stateMutability": "nonpayable",
      "type": "function"
    },
    {
      "inputs": [
        {
          "internalType": "address",
          "name": "_from",
          "type": "address"
        }
      ],
      "name": "removeAdmin",
      "outputs": [],
      "stateMutability": "nonpayable",
      "type": "function"
    },
    {
      "inputs": [
        {
          "internalType": "address",
          "name": "_from",
          "type": "address"
        }
      ],
      "name": "removeSeller",
      "outputs": [],
      "stateMutability": "nonpayable",
      "type": "function"
    },
    {
      "inputs": [
        {
          "internalType": "bytes32",
          "name": "role",
          "type": "bytes32"
        },
        {
          "internalType": "address",
          "name": "account",
          "type": "address"
        }
      ],
      "name": "renounceRole",
      "outputs": [],
      "stateMutability": "nonpayable",
      "type": "function"
    },
    {
      "inputs": [
        {
          "internalType": "bytes32",
          "name": "role",
          "type": "bytes32"
        },
        {
          "internalType": "address",
          "name": "account",
          "type": "address"
        }
      ],
      "name": "revokeRole",
      "outputs": [],
      "stateMutability": "nonpayable",
      "type": "function"
    },
    {
      "inputs": [
        {
          "internalType": "bytes4",
          "name": "interfaceId",
          "type": "bytes4"
        }
      ],
      "name": "supportsInterface",
      "outputs": [
        {
          "internalType": "bool",
          "name": "",
          "type": "bool"
        }
      ],
      "stateMutability": "view",
      "type": "function"
    },
    {
      "inputs": [],
      "name": "symbol",
      "outputs": [
        {
          "internalType": "string",
          "name": "",
          "type": "string"
        }
      ],
      "stateMutability": "view",
      "type": "function"
    },
    {
      "inputs": [],
      "name": "totalSupply",
      "outputs": [
        {
          "internalType": "uint256",
          "name": "",
          "type": "uint256"
        }
      ],
      "stateMutability": "view",
      "type": "function"
    },
    {
      "inputs": [
        {
          "internalType": "address",
          "name": "to",
          "type": "address"
        },
        {
          "internalType": "uint256",
          "name": "amount",
          "type": "uint256"
        }
      ],
      "name": "transfer",
      "outputs": [
        {
          "internalType": "bool",
          "name": "",
          "type": "bool"
        }
      ],
      "stateMutability": "nonpayable",
      "type": "function"
    },
    {
      "inputs": [
        {
          "internalType": "address",
          "name": "from",
          "type": "address"
        },
        {
          "internalType": "address",
          "name": "to",
          "type": "address"
        },
        {
          "internalType": "uint256",
          "name": "amount",
          "type": "uint256"
        }
      ],
      "name": "transferFrom",
      "outputs": [
        {
          "internalType": "bool",
          "name": "",
          "type": "bool"
        }
      ],
      "stateMutability": "nonpayable",
      "type": "function"
    },
    {
      "inputs": [
        {
          "internalType": "uint256",
          "name": "transactionId",
          "type": "uint256"
        }
      ],
      "name": "validateTokens",
      "outputs": [
        {
          "internalType": "bool",
          "name": "",
          "type": "bool"
        }
      ],
      "stateMutability": "nonpayable",
      "type": "function"
    }
  ],
  "bytecode": "0x60806040523480156200001157600080fd5b506040518060400160405280600e81526020016d4c6f79616c747920546f6b656e7360901b81525060405180604001604052806002815260200161444560f01b815250816003908162000065919062000305565b50600462000074828262000305565b5050600780546001600160a01b031916339081179091556101f4600855620000bf9150620000a0600090565b620000b39060ff166305f5e100620003e7565b63ffffffff16620000d2565b620000cc60003362000199565b62000428565b6001600160a01b0382166200012d5760405162461bcd60e51b815260206004820152601f60248201527f45524332303a206d696e7420746f20746865207a65726f206164647265737300604482015260640160405180910390fd5b806002600082825462000141919062000412565b90915550506001600160a01b038216600081815260208181526040808320805486019055518481527fddf252ad1be2c89b69c2b068fc378daa952ba7f163c4a11628f55a4df523b3ef910160405180910390a35b5050565b620001958282620001aa565b505050565b620001b6828262000234565b620001955760008281526005602090815260408083206001600160a01b03851684529091529020805460ff19166001179055620001f03390565b6001600160a01b0316816001600160a01b0316837f2f8788117e7eff1d82e926ec794901d17c78024a50270940304540a733656f0d60405160405180910390a45050565b60008281526005602090815260408083206001600160a01b038516845290915290205460ff165b92915050565b634e487b7160e01b600052604160045260246000fd5b600181811c908216806200028c57607f821691505b602082108103620002ad57634e487b7160e01b600052602260045260246000fd5b50919050565b601f821115620001a557600081815260208120601f850160051c81016020861015620002dc5750805b601f850160051c820191505b81811015620002fd57828155600101620002e8565b505050505050565b81516001600160401b0381111562000321576200032162000261565b620003398162000332845462000277565b84620002b3565b602080601f831160018114620003715760008415620003585750858301515b600019600386901b1c1916600185901b178555620002fd565b600085815260208120601f198616915b82811015620003a25788860151825594840194600190910190840162000381565b5085821015620003c15787850151600019600388901b60f8161c191681555b5050505050600190811b01905550565b634e487b7160e01b600052601160045260246000fd5b63ffffffff8181168382160280821691908281146200040a576200040a620003d1565b505092915050565b808201808211156200025b576200025b620003d1565b612a6f80620004386000396000f3fe608060405234801561001057600080fd5b50600436106102265760003560e01c806375b238fc1161012a578063a6e158f8116100bd578063d1df306c1161008c578063da1919b311610071578063da1919b3146104f0578063dbe4613d14610503578063dd62ed3e1461052a57600080fd5b8063d1df306c146104ca578063d547741f146104dd57600080fd5b8063a6e158f814610471578063a9059cbb14610484578063ba9dfc6114610497578063bc7ff274146104b757600080fd5b806395d89b41116100f957806395d89b411461043b578063a0712d6814610443578063a217fddf14610456578063a457c2d71461045e57600080fd5b806375b238fc146103b557806379cc6790146103dc5780637cb9cf54146103ef57806391d148541461040257600080fd5b80632f2ff15d116101bd5780633da7d2ed1161018c578063449a52f811610171578063449a52f814610359578063556849ea1461036c57806370a082311461038c57600080fd5b80633da7d2ed1461033357806342966c681461034657600080fd5b80632f2ff15d146102eb578063313ce567146102fe57806336568abe1461030d578063395093511461032057600080fd5b80631785f53c116101f95780631785f53c1461028e57806318160ddd146102a357806323b872dd146102b5578063248a9ca3146102c857600080fd5b806301ffc9a71461022b57806306fdde0314610253578063095ea7b3146102685780631141848a1461027b575b600080fd5b61023e610239366004612469565b610563565b60405190151581526020015b60405180910390f35b61025b6105fc565b60405161024a91906124fb565b61023e61027636600461252a565b61068e565b61023e610289366004612554565b6106a6565b6102a161029c36600461256d565b6109a6565b005b6002545b60405190815260200161024a565b61023e6102c3366004612588565b610aeb565b6102a76102d6366004612554565b60009081526005602052604090206001015490565b6102a16102f93660046125c4565b610b0f565b6040516000815260200161024a565b6102a161031b3660046125c4565b610b39565b61023e61032e36600461252a565b610bc5565b6102a161034136600461256d565b610c04565b6102a1610354366004612554565b610cbf565b61023e61036736600461252a565b610cc9565b6102a761037a36600461256d565b600a6020526000908152604090205481565b6102a761039a36600461256d565b6001600160a01b031660009081526020819052604090205490565b6102a77fa49807205ce4d355092ef5a8a18f56e8913cf4a201fbe287825b095693c2177581565b6102a16103ea36600461252a565b611022565b6102a16103fd36600461256d565b611037565b61023e6104103660046125c4565b60009182526005602090815260408084206001600160a01b0393909316845291905290205460ff1690565b61025b61119f565b61023e610451366004612554565b6111ae565b6102a7600081565b61023e61046c36600461252a565b611279565b61023e61047f366004612554565b611323565b61023e61049236600461252a565b61159d565b6104aa6104a536600461256d565b6115ab565b60405161024a91906125f0565b6102a16104c536600461256d565b611819565b61023e6104d836600461252a565b6118fa565b6102a16104eb3660046125c4565b611a40565b61023e6104fe36600461252a565b611a65565b6102a77f43f25613eb2f15fb17222a5d424ca2655743e71265d98e4b93c05e5fb589ecde81565b6102a76105383660046126a4565b6001600160a01b03918216600090815260016020908152604080832093909416825291909152205490565b60007fffffffff0000000000000000000000000000000000000000000000000000000082167f7965db0b0000000000000000000000000000000000000000000000000000000014806105f657507f01ffc9a7000000000000000000000000000000000000000000000000000000007fffffffff000000000000000000000000000000000000000000000000000000008316145b92915050565b60606003805461060b906126ce565b80601f0160208091040260200160405190810160405280929190818152602001828054610637906126ce565b80156106845780601f1061065957610100808354040283529160200191610684565b820191906000526020600020905b81548152906001019060200180831161066757829003601f168201915b5050505050905090565b60003361069c818585611acc565b5060019392505050565b60008181526009602052604081206005015460ff1661070c5760405162461bcd60e51b815260206004820152601860248201527f4f6e6c7920666f7220437265646974656420546f6b656e73000000000000000060448201526064015b60405180910390fd5b600082815260096020526040902060048101546001820154600283015460039093015460085442946001600160a01b0390931692919061074c908561271e565b8511801561075a5750600081115b1561099957600061076b84846118fa565b9050801561094357610781600680546001019055565b600061078c60065490565b6001600160a01b0386166000908152600a60205260408120805492935085929091906107b9908490612731565b90915550506040805160e0810182528281526001600160a01b0387811660208084019182528385018981526060850189815260006080870181815260a088018281528951808b018b52600e81527f546f6b656e7320457870697265640000000000000000000000000000000000008188015260c08a019081528b845260099096529890912087518155945160018601805473ffffffffffffffffffffffffffffffffffffffff191691909716179095559051600284015551600383015591516004820155925160058401805460ff19169115159190911790555190919060068201906108a590826127a8565b5050604080518381526001600160a01b03881660208201529081018690526060810185905260006080820181905260a082015260e060c08201819052600e908201527f546f6b656e7320457870697265640000000000000000000000000000000000006101008201527f0e0f276cc633ffe267793e0cd80b6e766490d5913bc83a7664b6d2d50972a43291506101200160405180910390a15061098b565b60405162461bcd60e51b815260206004820152601160248201527f546f6b656e73206e6f74204275726e65640000000000000000000000000000006044820152606401610703565b506000979650505050505050565b5060019695505050505050565b6001600160a01b03811660009081527fd8ef4509105c3edb0b04658b4528edc5ddd30ea5a81e623a2623c88db1eb54b6602052604090205460ff16610a2d5760405162461bcd60e51b815260206004820152601b60248201527f41646d696e2072696768747320646f65736e27742065786973747300000000006044820152606401610703565b3360009081527f05b8ccbb9d4d8fb16ea74ce3c29a41f1b461fbdaff4714a0d9a8eb05499746bc602052604090205460ff16610abe5760405162461bcd60e51b815260206004820152602a60248201527f4f6e6c792044656661756c742041646d696e2063616e207265766f6b652041646044820152696d696e2052696768747360b01b6064820152608401610703565b610ae87fa49807205ce4d355092ef5a8a18f56e8913cf4a201fbe287825b095693c2177582611c24565b50565b600033610af9858285611ca7565b610b04858585611d39565b506001949350505050565b600082815260056020526040902060010154610b2a81611f26565b610b348383611f30565b505050565b6001600160a01b0381163314610bb75760405162461bcd60e51b815260206004820152602f60248201527f416363657373436f6e74726f6c3a2063616e206f6e6c792072656e6f756e636560448201527f20726f6c657320666f722073656c6600000000000000000000000000000000006064820152608401610703565b610bc18282611c24565b5050565b3360008181526001602090815260408083206001600160a01b038716845290915281205490919061069c9082908690610bff90879061271e565b611acc565b3360009081527f05b8ccbb9d4d8fb16ea74ce3c29a41f1b461fbdaff4714a0d9a8eb05499746bc602052604090205460ff16610c955760405162461bcd60e51b815260206004820152602a60248201527f4f6e6c792044656661756c742041646d696e2063616e2061737369676e2041646044820152696d696e2052696768747360b01b6064820152608401610703565b610ae87fa49807205ce4d355092ef5a8a18f56e8913cf4a201fbe287825b095693c2177582611f30565b610ae83382611fd2565b3360009081527f9adf02c4c7cfbfab2a0872ace1bf79ea4d72ff11554aea838928a0dcdeb1e5a0602052604081205460ff1680610d3457503360009081527fd8ef4509105c3edb0b04658b4528edc5ddd30ea5a81e623a2623c88db1eb54b6602052604090205460ff165b80610d6d57503360009081527f05b8ccbb9d4d8fb16ea74ce3c29a41f1b461fbdaff4714a0d9a8eb05499746bc602052604090205460ff165b610ddf5760405162461bcd60e51b815260206004820152602860248201527f596f7520646f6e27742068617665207468652072696768747320746f206d696e60448201527f7420546f6b656e730000000000000000000000000000000000000000000000006064820152608401610703565b6001600160a01b038316610e445760405162461bcd60e51b815260206004820152602660248201527f43616e6e6f74207472616e7366657220746f6b656e7320746f207a65726f206160448201526564647265737360d01b6064820152608401610703565b610e52600680546001019055565b6000610e5d60065490565b9050610e69848461213b565b6001600160a01b0384166000908152600a602052604081208054859290610e9190849061271e565b90915550506040805160e0810182528281526001600160a01b038681166020808401918252838501888152606085018981524260808701818152600160a089018181528a51808c018c52601b81527f546f6b656e20526563696576656420666f7220507572636861736500000000008189015260c08b0190815260008d815260099098529a909620895181559651908701805473ffffffffffffffffffffffffffffffffffffffff1916919098161790965591516002850155516003840155925160048301555160058201805460ff191691151591909117905592519092906006820190610f7f90826127a8565b5050604080518481526001600160a01b03881660208201529081018690526060810186905260808101839052600160a082015260e060c08201819052601c908201527f546f6b656e7320526563696576656420666f72205075726368617365000000006101008201527f0e0f276cc633ffe267793e0cd80b6e766490d5913bc83a7664b6d2d50972a43291506101200160405180910390a1506001949350505050565b61102d823383611ca7565b610bc18282611fd2565b3360009081527fd8ef4509105c3edb0b04658b4528edc5ddd30ea5a81e623a2623c88db1eb54b6602052604090205460ff16806110a257503360009081527f05b8ccbb9d4d8fb16ea74ce3c29a41f1b461fbdaff4714a0d9a8eb05499746bc602052604090205460ff165b6110ee5760405162461bcd60e51b815260206004820152601c60248201527f596f7520646f6e277420686176652061646d696e2072696768747321000000006044820152606401610703565b6001600160a01b03811660009081527f9adf02c4c7cfbfab2a0872ace1bf79ea4d72ff11554aea838928a0dcdeb1e5a0602052604090205460ff166111755760405162461bcd60e51b815260206004820152601560248201527f53656c6c657220646f65736e27742065786973747300000000000000000000006044820152606401610703565b610ae87f43f25613eb2f15fb17222a5d424ca2655743e71265d98e4b93c05e5fb589ecde82611c24565b60606004805461060b906126ce565b3360009081527f05b8ccbb9d4d8fb16ea74ce3c29a41f1b461fbdaff4714a0d9a8eb05499746bc602052604081205460ff166112525760405162461bcd60e51b815260206004820152602660248201527f4f6e6c792044656661756c742041646d696e2063616e2063726561746520612060448201527f737570706c7900000000000000000000000000000000000000000000000000006064820152608401610703565b611271336112626000600a61294c565b61126c908561295b565b61213b565b506001919050565b3360008181526001602090815260408083206001600160a01b0387168452909152812054909190838110156113165760405162461bcd60e51b815260206004820152602560248201527f45524332303a2064656372656173656420616c6c6f77616e63652062656c6f7760448201527f207a65726f0000000000000000000000000000000000000000000000000000006064820152608401610703565b610b048286868403611acc565b336000908152600a6020526040812054826113805760405162461bcd60e51b815260206004820152601860248201527f546f6b656e732063616e2774206265206e6567617469766500000000000000006044820152606401610703565b828110156113d05760405162461bcd60e51b815260206004820152601260248201527f4e6f7420656e6f75676820546f6b656e732100000000000000000000000000006044820152606401610703565b6113da3384611fd2565b6113e8600680546001019055565b60006113f360065490565b6040805160e081018252828152336020808301918252828401898152606084018881524260808601818152600060a088018181528951808b018b52600f81527f546f6b656e732052656465656d656400000000000000000000000000000000008189015260c08a019081528b8352600990975298902087518155955160018701805473ffffffffffffffffffffffffffffffffffffffff19166001600160a01b03909216919091179055925160028601559051600385015590516004840155935160058301805460ff191691151591909117905551939450919290919060068201906114df90826127a8565b5050604080518481523360208201529081018790526060810185905260808101839052600060a082015260e060c08201819052600f908201527f546f6b656e732052656465656d656400000000000000000000000000000000006101008201527f0e0f276cc633ffe267793e0cd80b6e766490d5913bc83a7664b6d2d50972a43291506101200160405180910390a1336000908152600a60205260408120805487929061158d908490612731565b9091555060019695505050505050565b60003361069c818585611d39565b606060006115b860065490565b9050600060015b82811161160a576000818152600960205260409020600101546001600160a01b038087169116036115f857816115f481612972565b9250505b8061160281612972565b9150506115bf565b5060008167ffffffffffffffff81111561162657611626612744565b6040519080825280602002602001820160405280156116a257816020015b61168f6040518060e001604052806000815260200160006001600160a01b03168152602001600081526020016000815260200160008152602001600015158152602001606081525090565b8152602001906001900390816116445790505b509050600060015b84811161180e576000818152600960205260409020600101546001600160a01b038089169116036117fc57600081815260096020908152604091829020825160e0810184528154815260018201546001600160a01b0316928101929092526002810154928201929092526003820154606082015260048201546080820152600582015460ff16151560a0820152600682018054839160c084019161174d906126ce565b80601f0160208091040260200160405190810160405280929190818152602001828054611779906126ce565b80156117c65780601f1061179b576101008083540402835291602001916117c6565b820191906000526020600020905b8154815290600101906020018083116117a957829003601f168201915b5050505050815250508484815181106117e1576117e161298b565b602002602001018190525082806117f790612972565b935050505b8061180681612972565b9150506116aa565b509095945050505050565b3360009081527fd8ef4509105c3edb0b04658b4528edc5ddd30ea5a81e623a2623c88db1eb54b6602052604090205460ff168061188457503360009081527f05b8ccbb9d4d8fb16ea74ce3c29a41f1b461fbdaff4714a0d9a8eb05499746bc602052604090205460ff165b6118d05760405162461bcd60e51b815260206004820152601c60248201527f596f7520646f6e277420686176652061646d696e2072696768747321000000006044820152606401610703565b610ae87f43f25613eb2f15fb17222a5d424ca2655743e71265d98e4b93c05e5fb589ecde82611f30565b3360009081527fd8ef4509105c3edb0b04658b4528edc5ddd30ea5a81e623a2623c88db1eb54b6602052604081205460ff168061196557503360009081527f05b8ccbb9d4d8fb16ea74ce3c29a41f1b461fbdaff4714a0d9a8eb05499746bc602052604090205460ff165b6119b15760405162461bcd60e51b815260206004820152601c60248201527f596f7520646f6e277420686176652061646d696e2072696768747321000000006044820152606401610703565b6001600160a01b038316611a2d5760405162461bcd60e51b815260206004820152602860248201527f43616e6e6f74206275726e20746f6b656e732066726f6d20746865207a65726f60448201527f20616464726573730000000000000000000000000000000000000000000000006064820152608401610703565b611a378383611fd2565b50600192915050565b600082815260056020526040902060010154611a5b81611f26565b610b348383611c24565b60006001600160a01b038316610e445760405162461bcd60e51b815260206004820152602660248201527f43616e6e6f74207472616e7366657220746f6b656e7320746f207a65726f206160448201526564647265737360d01b6064820152608401610703565b6001600160a01b038316611b475760405162461bcd60e51b8152602060048201526024808201527f45524332303a20617070726f76652066726f6d20746865207a65726f2061646460448201527f72657373000000000000000000000000000000000000000000000000000000006064820152608401610703565b6001600160a01b038216611bc35760405162461bcd60e51b815260206004820152602260248201527f45524332303a20617070726f766520746f20746865207a65726f20616464726560448201527f73730000000000000000000000000000000000000000000000000000000000006064820152608401610703565b6001600160a01b0383811660008181526001602090815260408083209487168084529482529182902085905590518481527f8c5be1e5ebec7d5bd14f71427d1e84f3dd0314c0f7b2291e5b200ac8c7c3b925910160405180910390a3505050565b60008281526005602090815260408083206001600160a01b038516845290915290205460ff1615610bc15760008281526005602090815260408083206001600160a01b0385168085529252808320805460ff1916905551339285917ff6391f5c32d9c69d2a47ea670b442974b53935d1edc7fd64eb21e047a839171b9190a45050565b6001600160a01b038381166000908152600160209081526040808320938616835292905220546000198114611d335781811015611d265760405162461bcd60e51b815260206004820152601d60248201527f45524332303a20696e73756666696369656e7420616c6c6f77616e63650000006044820152606401610703565b611d338484848403611acc565b50505050565b6001600160a01b038316611db55760405162461bcd60e51b815260206004820152602560248201527f45524332303a207472616e736665722066726f6d20746865207a65726f20616460448201527f64726573730000000000000000000000000000000000000000000000000000006064820152608401610703565b6001600160a01b038216611e315760405162461bcd60e51b815260206004820152602360248201527f45524332303a207472616e7366657220746f20746865207a65726f206164647260448201527f65737300000000000000000000000000000000000000000000000000000000006064820152608401610703565b6001600160a01b03831660009081526020819052604090205481811015611ec05760405162461bcd60e51b815260206004820152602660248201527f45524332303a207472616e7366657220616d6f756e742065786365656473206260448201527f616c616e636500000000000000000000000000000000000000000000000000006064820152608401610703565b6001600160a01b03848116600081815260208181526040808320878703905593871680835291849020805487019055925185815290927fddf252ad1be2c89b69c2b068fc378daa952ba7f163c4a11628f55a4df523b3ef910160405180910390a3611d33565b610ae881336121fa565b60008281526005602090815260408083206001600160a01b038516845290915290205460ff16610bc15760008281526005602090815260408083206001600160a01b03851684529091529020805460ff19166001179055611f8e3390565b6001600160a01b0316816001600160a01b0316837f2f8788117e7eff1d82e926ec794901d17c78024a50270940304540a733656f0d60405160405180910390a45050565b6001600160a01b03821661204e5760405162461bcd60e51b815260206004820152602160248201527f45524332303a206275726e2066726f6d20746865207a65726f2061646472657360448201527f73000000000000000000000000000000000000000000000000000000000000006064820152608401610703565b6001600160a01b038216600090815260208190526040902054818110156120dd5760405162461bcd60e51b815260206004820152602260248201527f45524332303a206275726e20616d6f756e7420657863656564732062616c616e60448201527f63650000000000000000000000000000000000000000000000000000000000006064820152608401610703565b6001600160a01b0383166000818152602081815260408083208686039055600280548790039055518581529192917fddf252ad1be2c89b69c2b068fc378daa952ba7f163c4a11628f55a4df523b3ef910160405180910390a3505050565b6001600160a01b0382166121915760405162461bcd60e51b815260206004820152601f60248201527f45524332303a206d696e7420746f20746865207a65726f2061646472657373006044820152606401610703565b80600260008282546121a3919061271e565b90915550506001600160a01b038216600081815260208181526040808320805486019055518481527fddf252ad1be2c89b69c2b068fc378daa952ba7f163c4a11628f55a4df523b3ef910160405180910390a35050565b60008281526005602090815260408083206001600160a01b038516845290915290205460ff16610bc15761222d8161226f565b612238836020612281565b6040516020016122499291906129a1565b60408051601f198184030181529082905262461bcd60e51b8252610703916004016124fb565b60606105f66001600160a01b03831660145b6060600061229083600261295b565b61229b90600261271e565b67ffffffffffffffff8111156122b3576122b3612744565b6040519080825280601f01601f1916602001820160405280156122dd576020820181803683370190505b5090507f3000000000000000000000000000000000000000000000000000000000000000816000815181106123145761231461298b565b60200101906001600160f81b031916908160001a9053507f78000000000000000000000000000000000000000000000000000000000000008160018151811061235f5761235f61298b565b60200101906001600160f81b031916908160001a905350600061238384600261295b565b61238e90600161271e565b90505b6001811115612413577f303132333435363738396162636465660000000000000000000000000000000085600f16601081106123cf576123cf61298b565b1a60f81b8282815181106123e5576123e561298b565b60200101906001600160f81b031916908160001a90535060049490941c9361240c81612a22565b9050612391565b5083156124625760405162461bcd60e51b815260206004820181905260248201527f537472696e67733a20686578206c656e67746820696e73756666696369656e746044820152606401610703565b9392505050565b60006020828403121561247b57600080fd5b81357fffffffff000000000000000000000000000000000000000000000000000000008116811461246257600080fd5b60005b838110156124c65781810151838201526020016124ae565b50506000910152565b600081518084526124e78160208601602086016124ab565b601f01601f19169290920160200192915050565b60208152600061246260208301846124cf565b80356001600160a01b038116811461252557600080fd5b919050565b6000806040838503121561253d57600080fd5b6125468361250e565b946020939093013593505050565b60006020828403121561256657600080fd5b5035919050565b60006020828403121561257f57600080fd5b6124628261250e565b60008060006060848603121561259d57600080fd5b6125a68461250e565b92506125b46020850161250e565b9150604084013590509250925092565b600080604083850312156125d757600080fd5b823591506125e76020840161250e565b90509250929050565b60006020808301818452808551808352604092508286019150828160051b87010184880160005b8381101561269657888303603f19018552815180518452878101516001600160a01b0316888501528681015187850152606080820151908501526080808201519085015260a08082015115159085015260c09081015160e091850182905290612682818601836124cf565b968901969450505090860190600101612617565b509098975050505050505050565b600080604083850312156126b757600080fd5b6126c08361250e565b91506125e76020840161250e565b600181811c908216806126e257607f821691505b60208210810361270257634e487b7160e01b600052602260045260246000fd5b50919050565b634e487b7160e01b600052601160045260246000fd5b808201808211156105f6576105f6612708565b818103818111156105f6576105f6612708565b634e487b7160e01b600052604160045260246000fd5b601f821115610b3457600081815260208120601f850160051c810160208610156127815750805b601f850160051c820191505b818110156127a05782815560010161278d565b505050505050565b815167ffffffffffffffff8111156127c2576127c2612744565b6127d6816127d084546126ce565b8461275a565b602080601f83116001811461280b57600084156127f35750858301515b600019600386901b1c1916600185901b1785556127a0565b600085815260208120601f198616915b8281101561283a5788860151825594840194600190910190840161281b565b50858210156128585787850151600019600388901b60f8161c191681555b5050505050600190811b01905550565b600181815b808511156128a357816000190482111561288957612889612708565b8085161561289657918102915b93841c939080029061286d565b509250929050565b6000826128ba575060016105f6565b816128c7575060006105f6565b81600181146128dd57600281146128e757612903565b60019150506105f6565b60ff8411156128f8576128f8612708565b50506001821b6105f6565b5060208310610133831016604e8410600b8410161715612926575081810a6105f6565b6129308383612868565b806000190482111561294457612944612708565b029392505050565b600061246260ff8416836128ab565b80820281158282048414176105f6576105f6612708565b60006001820161298457612984612708565b5060010190565b634e487b7160e01b600052603260045260246000fd5b7f416363657373436f6e74726f6c3a206163636f756e74200000000000000000008152600083516129d98160178501602088016124ab565b7f206973206d697373696e6720726f6c65200000000000000000000000000000006017918401918201528351612a168160288401602088016124ab565b01602801949350505050565b600081612a3157612a31612708565b50600019019056fea264697066735822122006d811bebaf4c98b2d68a1c8e626ff476259583e718dbe0e7987853e95a899de64736f6c63430008130033",
  "linkReferences": {},
  "deployedLinkReferences": {}
}